:020000040000FA
:10000000D80A00103902000041020000430200003B
:100010004502000047020000490200000000000005
:10002000000000000000000000000000450100008A
:100030004D02000000000000D50100002102000078
:10004000530200005302000053020000530200005C
:1000500053020000B10300005302000053020000ED
:10006000530200005302000053020000530200003C
:10007000530200005302000053020000530200002C
:10008000530200005302000053020000530200001C
:10009000530200005302000053020000530200000C
:1000A00053020000530200005302000053020000FC
:1000B00053020000530200005302000053020000EC
:1000C000530200005302000053020000DFF80CD07E
:1000D00000F07EFA00480047DD030000D80A001057
:1000E00080F309887047684680F3098804480078DF
:1000F000C00714BF0220032080F31488704700005B
:100100007C0F0000DFF818C0EFF305831B0618BF53
:100110006047EFF31483DB0708BF604700DF7047D9
:10012000E1060000DFF818C0EFF305831B0618BFD7
:100130006047EFF31483DB0708BF604700DF7047B9
:1001400079080000EFF30980816931F8021C31F46D
:100150007F4128D190E80F10E047EFF3098C1A4B4C
:1001600093E80600914219D00CB44FF00103002926
:100170001FBF81F821302CE9F00FC1F824C000F036
:1001800057FD0CBC1A60D2F824C0BCE8F00F92F8FE
:1001900021308CF309881BB192F82000CCF80000C4
:1001A0006FF0020E704710B5084A1268914209D8E4
:1001B000074C54F8214090E80F10A047EFF3098C4A
:1001C0008CE80F0010BD000014000010F4050000C2
:1001D000F405000000F01EFC134B93E8060091426A
:1001E0001BD00CB44FF0000381F82130EFF3098CE1
:1001F0002CE9F00FC1F824C000F01AFD0CBC1A6005
:10020000D2F824C0BCE8F00F8CF3098892F82130B2
:100210001BB192F82030CCF800306FF0020E70471E
:1002200000F0CAFDD8E7000014000010FEE7704798
:10023000FEE77047704700000648804706480047C1
:10024000FEE7FEE7FEE7FEE7FEE7FEE7FEE7FEE786
:10025000FEE7FEE7F3040000CD0000002DE9F05FAB
:100260000546002092469B46884606468146402425
:100270001BE0284641464746224600F02FF85246EA
:100280005B46801A994110D310461946224600F069
:1002900016F82D1A67EB01084F462246012000216F
:1002A00000F00DF817EB00094E41201EA4F10104E7
:1002B000DFDC484631462A464346BDE8F09F202A07
:1002C00004DB203A00FA02F1002070479140C2F1AD
:1002D000200320FA03F3194390407047202A04DBDF
:1002E000203A21FA02F00021704721FA02F3D040AF
:1002F000C2F120029140084319467047FFFFFFFFFB
:10030000DFF80881424C434F4FF6FF7A4FF0010966
:1003100000254FF00076002251460120DFF8F8C09A
:1003200000DF2078401C2070E078FF2803D160783F
:1003300088F80000E570A07810B1FE61A570EAE7CA
:10034000BE6184F80290E6E700231A460121AFF26D
:100350004F00DFF8C8C000DF2D49DFF8C4C0886057
:10036000002000DF2F48016841F0080101602E489D
:10037000016821F0F0010160016841F05001016065
:1003800022484FF0830101734FF0000101714FF0DB
:10039000A20101704FF0030101734FF007020272D6
:1003A00041604FF0E0204FF02001C0F8001170478D
:1003B00070B5164DA868164C00F0060081074FF086
:1003C000FF0601D5267170BD4007FCD50120A1684C
:1003D00000F072F928786070E67070BD124810B5B0
:1003E000416821F4402141600A48016841F00071F0
:1003F0000160FFF7B7FFFFF776FE00220A21AFF298
:10040000B700DFF828C000DF002010BD00C00040AA
:100410000000001000C0092039080000350E00005F
:10042000C50E0000C4C00F4000C002407D0C00009B
:1004300070B55F4CD4F888005E4D6FEA106080079D
:10044000D4F80C0100F003000CD028B1012841D0F1
:10045000022845D003282DD1D4F804015649C0B252
:10046000401C43E028B101280ED0022823D00328E5
:1004700020D154F8880FC0F307422068521CC0F303
:100480000E00401C4D4909E054F8880FC0F30742A4
:100490002068521CC0F30E004949401CA0FB01011A
:1004A0000023FFF7DBFEE26F0023D2B2521CFFF7FE
:1004B000D5FE286070BD54F8880FC0F3074220684D
:1004C000521CC0F30E000021401C090441EA1041F7
:1004D0000004E5E7D4F804013A49C0B2401C05E045
:1004E000D4F804014FF40041C0B2401CB1FBF0F05D
:1004F000DFE770B52E482021C0F8A011D0F8A01178
:10050000890603D5D0F8A0114906FBD500F180007B
:100510000323C0F884304FF00005C0F82851C0F81C
:100520002C514FF00104C0F88C40274941604FF036
:10053000AA01C1604FF05502C2600460C160C26090
:10054000A0F18000D0F888607601FBD540F8803FAC
:10055000C160C260A0F18000D0F8886016F0407FD2
:10056000FAD000F1A00023264660C160C26004609A
:10057000C160C260A0F1A000D0F8A8406405FBD51E
:1005800040F8A03FC160C260A0F1A000D0F8A81060
:1005900011F4407FFAD00D49C0F8C410C0F8C8511A
:1005A000016821F4704141F48041016070BD000098
:1005B00000C00F400C00001000093D0000127A003E
:1005C00000366E01001BB70063000500DE872804BB
:1005D000064C074D06E0E06840F0010394E8070090
:1005E00098471034AC42F6D3FFF774FD940F000027
:1005F000B40F00000000000002E008C8121F08C18C
:10060000002AFAD170477047002001E001C1121F93
:10061000002AFBD1704710B5002A06DA22F000420A
:10062000D21D22F00703102203E0D21C22F00303A4
:100630000C2213B19C188C4201D9012010BD024438
:1006400001448360C0E90021C91AD018884202D849
:1006500010600246F9E70020106010BD08480068ED
:10066000C0010CD54FF06040D0F8801EC90706D0FD
:10067000D0F8000E002802DA024901200870704705
:10068000FCED00E01C0000104FF06042D36F002B27
:10069000FCD0C36AD367D36F002BFCD0C07840EA8C
:1006A0000120A2F87C0070474FF06041CA6F002A19
:1006B000FCD081F87C0070470246084810B500EB7A
:1006C000810050F8040C002806D0114600F0F4F91F
:1006D000BDE8104000F0E0B910BD00005C0800105B
:1006E0004FEA000151E8000F28B1036841E80032E9
:1006F000002AF7D17047BFF32F8F704770B50D46B2
:10070000002812D04FF6FF71084C884204D22268AC
:100710000146104600F0FCF920684570044800F0DE
:10072000BBF8BDE8704000F095BA70BD1400001031
:10073000A808001070B51A4DE86800282ED0A88AC5
:10074000401EA882002623E0A06838B1616841609D
:10075000606810B1A16881606660A660104821469B
:10076000183800F0F9F9A08AA8826078042804D12A
:100770000C49E08A09880844A0820120607084F84E
:100780002000E068E860E06808B10561E660266185
:10079000A88A002802D1EC68002CD5D170BD0000D9
:1007A000C00800102000001070B504000FD00D4DDF
:1007B000A17801262868827891420CD900F0E8F9E6
:1007C000286846702046BDE8704000F043BA0648ED
:1007D00000F062F8F7E766702146BDE87040024815
:1007E00000F0BAB914000010A808001010B50446B3
:1007F000008B084320836278618B062A16D0052A75
:1008000017D1084215D001EA000262838843208391
:10081000204600F0C7F901206070022084F8200013
:100820002146BDE81040034800F096B931EA0002C5
:10083000ECD010BDA808001070B503460D480D4659
:100840000468208B42B133EA000101D0062009E0A0
:1008500098432083022070BD10EA030201D0628316
:10086000F6E70520C1B263832846FFF747FF012062
:1008700070BD000014000010814202D342688A4219
:1008800001D20120704750E8002F0A6040E80012B2
:10089000002AF8D1002070470146406842684A604B
:1008A0000B780022022B05D0012B03D0032B01D0A3
:1008B0004260704743680BB1996042608260704744
:1008C00070B5044600201546207001226270A170A8
:1008D0006060A060E0602061A082E082208360838D
:1008E00084F8200084F82100608C18B90448FFF7D0
:1008F000F7FEA06229462046BDE8704000F002B82D
:100900008801001010B5428C920803D10F4A12687A
:10091000C2F38D02836A03EB8202530700D5121FD4
:10092000403A4FF08073C2E90E1300234FEA0304EC
:1009300042F823405B1C0E2BFAD3C3691362426258
:10094000C162806A0249016010BD0000740F00009E
:10095000A52E5AE22DE9F04104460F4641680020D9
:1009600004F10C0621B1617802291AD0A189A9B33A
:10097000A189E289914246D2218904EB81010F616C
:10098000D6E85F1F491CC6E8521F002AF8D121890A
:10099000491C89B22181E289914200D12081BDE8C0
:1009A000F081074660702046FFF776FF80F82070E0
:1009B0002189054604EB8101C0690861D6E85F0F13
:1009C000401CC6E8510F0029F8D12089401C80B294
:1009D0002081E18988420BD1278109E0FFE7204689
:1009E000FFF75AFF0546C0690421076085F820100B
:1009F00001206870284600F0D5F82946BDE8F0418E
:100A0000034800F0A9B8BDE8F0410320FFF710BC8F
:100A1000A808001070B51C4801210068417000F062
:100A2000B7F81A491A4D002048706C7817E000BFDB
:100A300005EBC40148680278E2B1012A1FD000F03A
:100A4000DDF8E878641C844200D100241048801C42
:100A5000D0E84F1F491EC0E8421F002AF8D1A878ED
:100A60000028E5D16C700B48FFF716FFBDE8704019
:100A700000F0F0B8896889B2FFF7B8FEE1E789684D
:100A8000FFF768FFDDE70000140000101D000010F4
:100A9000D8070010A80800100548017811B10121FD
:100AA0004170704703494FF0805008607047000064
:100AB0001D00001004ED00E0F0B4144B9C1CDD7828
:100AC0004FEA0306D4E84F2FAA4202D1BFF32F8F7B
:100AD0000EE0521CC4E8472F002FF3D1D6E84F2F69
:100AE000541CAC4200D10024C6E8474F002FF5D17A
:100AF000DC78944205D903EBC202C2E90101F0BCE3
:100B00007047F0BC0220FFF793BB0000D80700102D
:100B1000104A10B5D368ABB113469B8A03E08CB181
:100B20002246A48A2344D4688B42F8D3C460D060A0
:100B30000261C46804B12061591A8182908A401A06
:100B4000908210BD0024C460D060C91A02619182F5
:100B5000848210BDC008001030B502780023022A3C
:100B600003D0012A01D0032A00D101238C7800E0B0
:100B70001046426812B19578A542F9D24A604160A8
:100B80001BB102B19160886030BD0020FBE700001E
:100B900003494A6842600022826048607047000052
:100BA000A808001010B5016900290ED0C268CA60FB
:100BB000C36800223BB18B8A848A23448B82C3683A
:100BC0001961C26000E08A82026110BD816839B19A
:100BD00042684A604168002901D080688860704797
:100BE000054906E04A68824202D140684860704781
:100BF00011460029F6D17047A808001010B54168C9
:100C000079B1FFF749FE0446FFF7CCFF0120607081
:100C1000032084F820002146BDE810400348FFF778
:100C20009BBF4188491C418010BD0000A8080010EE
:100C300006480068D0E90910814203D300680449DE
:100C4000884202D00120FFF7F3BA70471400001069
:100C5000A52E5AE20749022248604270064A1278DD
:100C6000002A05D006C98A4202D0C078FFF71CBD11
:100C700070470000140000101C0000102DE9F04126
:100C800005460E469046FFF7E9FC00200446384A28
:100C9000384902E042F82040401C0B889842F9D3C2
:100CA0003548302201883548FFF7B5FC34480068E4
:100CB00080B240F00042334801683348FFF7ABFC94
:100CC00032480822018832480068FFF7A4FC314FFF
:100CD000FF20314AF8707C8400213846FFF7F0FD90
:100CE0002E480421017044602D480170C4600461E5
:100CF0008482786A2030FFF7F3F92A482B494FF0B5
:100D0000E022076002207870274804704470097858
:100D1000C170274800685061946107201061D2F8C3
:100D2000200D24490843C2F8200DD2F8200DD2F836
:100D30000C1D00F07F40C043B0FA80F0C0F1080005
:100D4000C1F30221814200DB481CD2F81C3D6FF048
:100D50008071814063F31701C2F81C1DFFF769FA27
:100D6000424631462846BDE8F041002300F062B813
:100D70005C080010700F0000880F00002C000010AD
:100D8000740F00008C0F000088010010920F00000B
:100D900010000010780800102D020000A8080010B4
:100DA000C008001014000010D8070010900F0000B9
:100DB000780F00000000FFFF0B4810B5006801210C
:100DC0004170FFF7E5FEFFF735FA08490888401C37
:100DD0000880FFF7AFFC00F00DF80548FFF75CFD59
:100DE000BDE81040FFF736BF1400001020000010CF
:100DF000A808001070B50D4C2068002815D0A088F8
:100E00000B4E401EA0800AE0E888FFF710FAA88881
:100E1000A0802868206029463068FFF72DFDA08853
:100E2000002802D12568002DEED170BD24000010ED
:100E3000100000102DE9F041804616461F460C4672
:100E400011F0FF0F00D14C1C1948FFF749FC0500B9
:100E50002BD0200AAE626884E1B242462846EF6198
:100E6000FFF72EFD01241348134905E000EB84022F
:100E700052F8042C22B1641C0A889442F6D900244A
:100E800000EB8400E6B240F8045C0C48EE70007899
:100E900018B101212846FFF7F7FB2846FFF784FC2D
:100EA0000748006880F820602046BDE8F081000017
:100EB0002C0000105C080010700F00001C000010D7
:100EC000140000102DE9F041244C234E244B2268DD
:100ED0000025D17808B1814218D103EB810055700B
:100EE00040F8045C1F48916AFFF7C6FC20688562E1
:100EF000317811B10021FFF7C7FB1B482168FFF7CC
:100F0000BBFC00202560FFF74FFC1FE01749098854
:100F100088421ED803EB800757F8044CCCB120461A
:100F2000FFF754FE2046FFF73DFE47F8045C0D48EE
:100F3000A16AFFF7A1FCA562307818B10021204614
:100F4000FFF7A2FB21460848FFF796FC0020BDE80A
:100F5000F081FF20FBE700001C00001014000010CF
:100F60005C080010880100102C000010700F0000B9
:100F700007000000C80000013F420F000000000011
:100F800010270000000000005C0100005006000077
:100F900010000000B40F0000000000102C00000042
:100FA000F8050000E00F00002C000010AC0A000063
:100FB0000806000000000000000000000000000023
:100FC00000E1F50500000000000000000000000046
:100FD0000000000000000000000000000000000011
:04000005000000CD2A
:00000001FF
