:020000040000FA
:10000000380B0010390200004102000043020000DA
:100010004502000047020000490200000000000005
:10002000000000000000000000000000450100008A
:100030004D02000000000000D50100002102000078
:10004000530200005302000053020000530200005C
:10005000530200005302000053020000530200004C
:10006000530200005302000053020000530200003C
:10007000530200005302000053020000530200002C
:10008000530200005302000053020000530200001C
:10009000530200005302000053020000530200000C
:1000A00053020000530200005302000053020000FC
:1000B00053020000530200005302000053020000EC
:1000C000530200005302000053020000DFF80CD07E
:1000D00000F01EFB00480047A3040000380B00108E
:1000E00080F309887047684680F3098804480078DF
:1000F000C00714BF0220032080F31488704700005B
:100100004C120000DFF818C0EFF305831B0618BF80
:100110006047EFF31483DB0708BF604700DF7047D9
:100120006D090000DFF818C0EFF305831B0618BF48
:100130006047EFF31483DB0708BF604700DF7047B9
:100140006D0B0000EFF30980816931F8021C31F476
:100150007F4128D190E80F10E047EFF3098C1A4B4C
:1001600093E80600914219D00CB44FF00103002926
:100170001FBF81F821302CE9F00FC1F824C000F036
:10018000A7FE0CBC1A60D2F824C0BCE8F00F92F8AD
:1001900021308CF309881BB192F82000CCF80000C4
:1001A0006FF0020E704710B5084A1268914209D8E4
:1001B000074C54F8214090E80F10A047EFF3098C4A
:1001C0008CE80F0010BD000024000010EC020000BD
:1001D000EC02000000F0AAFD134B93E806009142E8
:1001E0001BD00CB44FF0000381F82130EFF3098CE1
:1001F0002CE9F00FC1F824C000F06AFE0CBC1A60B4
:10020000D2F824C0BCE8F00F8CF3098892F82130B2
:100210001BB192F82030CCF800306FF0020E70471E
:1002200000F01AFFD8E7000024000010FEE7704736
:10023000FEE77047704700000648804706480047C1
:10024000FEE7FEE7FEE7FEE7FEE7FEE7FEE7FEE786
:10025000FEE7FEE7F3050000CD0000002DE9F05FAA
:100260000546002092469B46884606468146402425
:100270001BE0284641464746224600F038FA5246DF
:100280005B46801A994110D310461946224600F069
:100290001FFA2D1A67EB01084F4622460120002164
:1002A00000F016FA17EB00094E41201EA4F10104DC
:1002B000DFDC484631462A464346BDE8F09F30B56C
:1002C0000B46014600202022012409E021FA02F514
:1002D0009D4205D303FA02F5491B04FA02F52844AE
:1002E000151EA2F10102F1DC30BD0000000000008B
:1002F00070470A68531C0B6010707047FFFFFFFFC8
:100300006F4D704E704C00270022FF210120DFF856
:10031000BCC100DFE0886EA1401C82B2E280694867
:1003200000F008FAA06805E02A7D9206FCD5297045
:10033000401CA060315C0029F6D1A760E4E7614F62
:100340005F4E614D143F4FF00008A8882C46401CBA
:1003500082B25C48AA8062A1143800F0EBF9A06870
:1003600005E0327D9206FCD53170401CA060395CFE
:100370000029F6D1C4F80880A1884046FF29E4D1BD
:10038000A0800120DFF868C1A16900DFDFF864C147
:1003900000DFDAE74B4E4A4D283E4B4C002756A172
:1003A0006088401C82B247486280283800F0C2F959
:1003B000A06805E02A7D9206FCD52970401CA0604B
:1003C000315C0029F6D10A20DFF83CC1A76000DFCC
:1003D000E5E73C4E3A4D3C3E3B4C00274BA1208884
:1003E000401C82B2374822803C3800F0A3F9A06854
:1003F00005E02A7D9206FCD52970401CA060315C86
:100400000029F6D10520DFF800C1A76000DFE5E78D
:1004100000231A460221AFF24500DFF800C100DFD9
:10042000294C00231A460221E060AFF29700DFF862
:10043000ECC000DF00231A4601212061AFF2011059
:10044000DFF8D8C000DF00231A4601216061AFF257
:100450004F10DFF8C8C000DFA0610020DFF8C0C087
:1004600000DF3048016841F0080101602E48016852
:1004700021F0F0010160016841F050010160104875
:100480004FF0830101734FF0000101714FF0A201A1
:1004900001704FF0030101734FF0070202724160D7
:1004A000704710B5FFF7DDFFFFF71DFE00220A21A0
:1004B000AFF2A300DFF874C000DF002010BD000021
:1004C00000C0004078000010000000102D0B00005C
:1004D000636F756E746572343A25640D0000000018
:1004E000636F756E746572333A25640D0000000009
:1004F000CD0A000011120000636F756E74657232D0
:100500003A25640D00000000790A0000636F756EE3
:10051000746572313A25640D00000000D5100000AA
:1005200065110000C4C00F4000C002401D0F000054
:1005300070B55F4CD4F888005E4D6FEA106080079C
:10054000D4F80C0100F003000CD028B1012841D0F0
:10055000022845D003282DD1D4F804015649C0B251
:10056000401C43E028B101280ED0022823D00328E4
:1005700020D154F8880FC0F307422068521CC0F302
:100580000E00401C4D4909E054F8880FC0F30742A3
:100590002068521CC0F30E004949401CA0FB010119
:1005A0000023FFF75BFEE26F0023D2B2521CFFF77D
:1005B00055FE286070BD54F8880FC0F307422068CC
:1005C000521CC0F30E000021401C090441EA1041F6
:1005D0000004E5E7D4F804013A49C0B2401C05E044
:1005E000D4F804014FF40041C0B2401CB1FBF0F05C
:1005F000DFE770B52E482021C0F8A011D0F8A01177
:10060000890603D5D0F8A0114906FBD500F180007A
:100610000323C0F884304FF00005C0F82851C0F81B
:100620002C514FF00104C0F88C40274941604FF035
:10063000AA01C1604FF05502C2600460C160C2608F
:10064000A0F18000D0F888607601FBD540F8803FAB
:10065000C160C260A0F18000D0F8886016F0407FD1
:10066000FAD000F1A00023264660C160C260046099
:10067000C160C260A0F1A000D0F8A8406405FBD51D
:1006800040F8A03FC160C260A0F1A000D0F8A8105F
:1006900011F4407FFAD00D49C0F8C410C0F8C85119
:1006A000016821F4704141F48041016070BD000097
:1006B00000C00F401C00001000093D0000127A002D
:1006C00000366E01001BB70063000500DE872804BA
:1006D000202A04DB203A00FA02F100207047914002
:1006E000C2F1200320FA03F3194390407047202AF7
:1006F00004DB203A21FA02F00021704721FA02F3CC
:10070000D040C2F1200291400843194670470000D2
:10071000064C074D06E0E06840F0010394E807004E
:1007200098471034AC42F6D3FFF7D4FC64120000B3
:10073000841200000FB4084B10B504A902AA039854
:1007400000F03EF8044602A90020FFF7D2FD204643
:1007500010BC5DF814FB0000F302000002E008C8C2
:10076000121F08C1002AFAD17047002001E001C120
:10077000121F002AFBD1704710B5002A06DA22F0BA
:100780000042D21D22F00703102203E0D21C22F007
:1007900003030C2213B19C188C4201D9012010BD17
:1007A000024401448360C0E90021C91AD01888427C
:1007B00002D810600246F9E70020106010BD00006A
:1007C0002DE9FF4F89B004469B46002596E0252879
:1007D00033D10027641C4D4AB84601212378203BC1
:1007E00001FA03F0104202D00743641CF6E72078B8
:1007F0002E2819D114F8010F47F004072A280ED02B
:100800006FF02F022078A0F1300109290CD808EBF5
:10081000880102EB410100EB0108641CF2E70A9831
:10082000641C50F8048B0A90207800286AD0642851
:1008300008D0692806D075281FD05A460B999047D2
:100840006D1C5AE00A994FF00A0901C90A91002863
:1008500004DAC0F100004FF02D0102E0390504D5A3
:100860002B218DF82010012104E0F90701D020216F
:10087000F7E700218A4608AE0CE00A994FF00A0912
:1008800001C90A91F5E74946FFF719FD01F1300169
:1008900006F8011D0028F6D1ADEB060000F1200995
:1008A000780701D44FF00108002041464A46C84568
:1008B00000DD881A8046002706E008A85A46C05D79
:1008C0000B9990476D1C7F1C5745F6DB04E03020E8
:1008D0005A460B9990476D1CB8F10001A8F1010828
:1008E000F5DC05E016F8010B5A460B9990476D1C94
:1008F000B9F10001A9F10109F4DC641C2078002899
:100900007FF465AF0DB02846BDE8F08F09280100DF
:1009100008480068C0010CD54FF06040D0F8801E38
:10092000C90706D0D0F8000E002802DA02490120DB
:1009300008707047FCED00E02E0000104FF06042A0
:10094000D36F002BFCD0C36AD367D36F002BFCD0CE
:10095000C07840EA0120A2F87C0070474FF0604167
:10096000CA6F002AFCD081F87C0070474FEA000172
:1009700051E8000F28B1036841E80032002AF7D19E
:100980007047BFF32F8F704770B50D46002812D007
:100990004FF6FF71084C884204D222680146104687
:1009A00000F006FA20684570044800F0EFF8BDE852
:1009B000704000F09FBA70BD2400001008090010BC
:1009C00070B51A4DE86800282ED0A88A401EA8826B
:1009D000002623E0A06838B161684160606810B10A
:1009E000A16881606660A66010482146183800F052
:1009F00003FAA08AA8826078042804D10C49E08A0E
:100A000009880844A0820120607084F82000E06812
:100A1000E860E06808B10561E6602661A88A002800
:100A200002D1EC68002CD5D170BD00002009001067
:100A30002C00001070B504000FD00D4DA1780126D8
:100A40002868827891420CD900F0F2F92868467043
:100A50002046BDE8704000F04DBA064800F096F818
:100A6000F7E766702146BDE87040024800F0C4B95F
:100A700024000010080900100321FFF785BF0000C3
:100A800010B50446008B084320836278618B062AE8
:100A900016D0052A17D1084215D001EA0002628358
:100AA00088432083204600F0CDF9012060700220A9
:100AB00084F820002146BDE81040034800F09CB9AE
:100AC00031EA0002ECD010BD08090010024670B5F2
:100AD000154800EB810050F8044C002C22D0208BEC
:100AE000104320836178658B062918D0052919D118
:100AF000284217D005EA00016183A84320832046DD
:100B000000F0A0F9208BA843208301206070022010
:100B100084F820002046BDE87040FFF78BBF35EA1F
:100B20000001EAD070BD0000BC08001070B503469B
:100B30000D480D460468208B42B133EA000101D014
:100B4000062009E098432083022070BD10EA0302CA
:100B500001D06283F6E70520C1B263832846FFF720
:100B600013FF012070BD000024000010814202D359
:100B700042688A4201D20120704750E8002F0A6083
:100B800040E80012002AF8D1002070470146406872
:100B900042684A600B780022022B05D0012B03D05B
:100BA000032B01D04260704743680BB199604260EB
:100BB000826070470649074B48681B6882789B78BB
:100BC0009A4202D142684A60704700207047000094
:100BD000080900102400001070B5044600201546D6
:100BE000207001226270A1706060A060E0602061EE
:100BF000A082E0822083608384F8200084F82100B2
:100C0000608C18B90448FFF7B1FEA062294620465F
:100C1000BDE8704000F002B8E801001010B5428C49
:100C2000920803D10F4A1268C2F38D02836A03EB64
:100C30008202530700D5121F403A4FF08073C2E979
:100C40000E1300234FEA030442F823405B1C0E2BD3
:100C5000FAD3C36913624262C162806A02490160C9
:100C600010BD000044120000A52E5AE22DE9F0410B
:100C700004460F464168002004F10C0621B161785A
:100C800002291AD0A189A9B3A189E289914246D249
:100C9000218904EB81010F61D6E85F1F491CC6E87A
:100CA000521F002AF8D12189491C89B22181E28989
:100CB000914200D12081BDE8F08107466070204656
:100CC000FFF764FF80F820702189054604EB81015D
:100CD000C0690861D6E85F0F401CC6E8510F0029C3
:100CE000F8D12089401C80B22081E18988420BD153
:100CF000278109E0FFE72046FFF748FF0546C06966
:100D00000421076085F8201001206870284600F053
:100D100099F82946BDE8F041034800F06DB8BDE8F8
:100D2000F0410320FFF784BA0809001070B51C4891
:100D300001210068417000F07BF81A491A4D00202B
:100D400048706C7817E000BF05EBC4014868027872
:100D5000E2B1012A1FD000F0A1F8E878641C8442B7
:100D600000D100241048801CD0E84F1F491EC0E865
:100D7000421F002AF8D1A8780028E5D16C700B48F2
:100D8000FFF704FFBDE8704000F0B4B8896889B28D
:100D9000FFF776FEE1E78968FFF768FFDDE700000F
:100DA000240000102F00001038080010080900105F
:100DB000104A10B5D368ABB113469B8A03E08CB1DF
:100DC0002246A48A2344D4688B42F8D3C460D060FE
:100DD0000261C46804B12061591A8182908A401A64
:100DE000908210BD0024C460D060C91A0261918253
:100DF000848210BD2009001030B502780023022A39
:100E000003D0012A01D0032A00D101238C7800E00D
:100E10001046426812B19578A542F9D24A60416005
:100E20001BB102B19160886030BD0020FBE700007B
:100E300003494A68426000228260486070470000AF
:100E40000809001010B5016900290ED0C268CA60F7
:100E5000C36800223BB18B8A848A23448B82C36897
:100E60001961C26000E08A82026110BD816839B1F7
:100E700042684A604168002901D0806888607047F4
:100E8000054906E04A68824202D1406848607047DE
:100E900011460029F6D170470809001010B54168C5
:100EA00079B1FFF773FE0446FFF7CCFF01206070B5
:100EB000032084F820002146BDE810400348FFF7D6
:100EC0009BBF4188491C418010BD000008090010EB
:100ED00006480068D0E90910814203D3006804493C
:100EE000884202D00120FFF7A3B970472400001008
:100EF000A52E5AE20749022248604270064A12783B
:100F0000002A05D006C98A4202D0C078FFF726BD64
:100F100070470000240000102E0000102DE9F04161
:100F200005460E469046FFF7F3FC00200446384A7B
:100F3000384902E042F82040401C0B889842F9D31F
:100F40003548302201883548FFF716FC34480068E0
:100F500080B240F00042334801683348FFF70CFC90
:100F600032480822018832480068FFF705FC314FFB
:100F7000FF20314AF8707C8400213846FFF72CFEB0
:100F80002E480421017044602D480170C460046142
:100F90008482786A2030FFF7A3F82A482B494FF063
:100FA000E0220760022078702748047044700978B6
:100FB000C170274800685061946107201061D2F821
:100FC000200D24490843C2F8200DD2F8200DD2F894
:100FD0000C1D00F07F40C043B0FA80F0C0F1080063
:100FE000C1F30221814200DB481CD2F81C3D6FF0A6
:100FF0008071814063F31701C2F81C1DFFF719F9D6
:10100000424631462846BDE8F041002300F062B870
:10101000BC08001040120000581200008C000010A4
:10102000441200005C120000E8010010621200008F
:1010300020000010D80800102D0200000809001040
:101040002009001024000010380800106012000071
:10105000481200000000FFFF0B4810B50068012196
:101060004170FFF7E5FEFFF7E5F808490888401CE6
:101070000880FFF7A5FC00F00DF80548FFF786FD96
:10108000BDE81040FFF736BF240000102C00001010
:101090000809001070B50D4C2068002815D0A088F4
:1010A0000B4E401EA0800AE0E888FFF7C0F8A88831
:1010B000A0802868206029463068FFF757FDA08887
:1010C000002802D12568002DEED170BD340000103B
:1010D000200000102DE9F041804616461F460C46C0
:1010E00011F0FF0F00D14C1C1948FFF73FFC050021
:1010F0002BD0200AAE626884E1B242462846EF61F6
:10110000FFF76AFD01241348134905E000EB840250
:1011100052F8042C22B1641C0A889442F6D90024A7
:1011200000EB8400E6B240F8045C0C48EE700078F6
:1011300018B101212846FFF701FC2846FFF77AFC89
:101140000748006880F820602046BDE8F081000074
:101150008C000010BC080010401200002E0000108F
:10116000240000102DE9F041244C234E244B22682A
:101170000025D17808B1814218D103EB8100557068
:1011800040F8045C1F48916AFFF7F0FC2068856214
:10119000317811B10021FFF7D1FB1B482168FFF71F
:1011A000E5FC00202560FFF745FC1FE01749098892
:1011B00088421ED803EB800757F8044CCCB1204678
:1011C000FFF754FE2046FFF73DFE47F8045C0D484C
:1011D000A16AFFF7CBFCA562307818B10021204648
:1011E000FFF7ACFB21460848FFF7C0FC0020BDE834
:1011F000F081FF20FBE700002E000010240000100B
:10120000BC080010E80100108C0000104012000023
:1012100070B5FFF7CFFC04000CD0074D07482968D4
:10122000FFF7EAFD2968012048702046BDE87040BC
:10123000FFF760BE70BD0000240000100809001018
:1012400007000000C8000001FF117A000000000044
:1012500080380100000000005C0100005006000022
:101260001000000084120000000000103C0000008C
:101270005C070000C01200003C000010FC0A0000E7
:101280006A070000000000000000000000000000ED
:10129000000000000000000000000000000000004E
:1012A00000E1F50500000000000000000000000063
:1012B000000000000000000000000000000000002E
:04000005000000CD2A
:00000001FF
