:020000040000FA
:10000000200B0010390200004102000043020000F2
:100010004502000047020000490200000000000005
:10002000000000000000000000000000450100008A
:100030004D02000000000000D50100002102000078
:10004000530200005302000053020000530200005C
:10005000530200005302000053020000530200004C
:10006000530200005302000053020000530200003C
:10007000530200005302000053020000530200002C
:10008000530200005302000053020000530200001C
:10009000530200005302000053020000530200000C
:1000A00053020000530200005302000053020000FC
:1000B00053020000530200005302000053020000EC
:1000C000530200005302000053020000DFF80CD07E
:1000D00000F0EEFB004800470B050000200B00106D
:1000E00080F309887047684680F3098804480078DF
:1000F000C00714BF0220032080F31488704700005B
:1001000088120000DFF818C0EFF305831B0618BF44
:100110006047EFF31483DB0708BF604700DF7047D9
:1001200099090000DFF818C0EFF305831B0618BF1C
:100130006047EFF31483DB0708BF604700DF7047B9
:10014000E10B0000EFF30980816931F8021C31F402
:100150007F4128D190E80F10E047EFF3098C1A4B4C
:1001600093E80600914219D00CB44FF00103002926
:100170001FBF81F821302CE9F00FC1F824C000F036
:10018000DBFE0CBC1A60D2F824C0BCE8F00F92F879
:1001900021308CF309881BB192F82000CCF80000C4
:1001A0006FF0020E704710B5084A1268914209D8E4
:1001B000074C54F8214090E80F10A047EFF3098C4A
:1001C0008CE80F0010BD000050000010D4080000A3
:1001D000D408000000F0DEFD134B93E806009142C6
:1001E0001BD00CB44FF0000381F82130EFF3098CE1
:1001F0002CE9F00FC1F824C000F09EFE0CBC1A6080
:10020000D2F824C0BCE8F00F8CF3098892F82130B2
:100210001BB192F82030CCF800306FF0020E70471E
:1002200000F04EFFD8E700005000001000BFFEE7CE
:10023000704700BFFEE700000648804706480047B9
:10024000FEE7FEE7FEE7FEE7FEE7FEE7FEE7FEE786
:10025000FEE7FEE73F070000CD0000002DE9F05F5C
:100260000546002092469B46884606468146402425
:100270001BE0284641464746224600F02FF85246EA
:100280005B46801A994110D310461946224600F069
:1002900016F82D1A67EB01084F462246012000216F
:1002A00000F00DF817EB00094E41201EA4F10104E7
:1002B000DFDC484631462A464346BDE8F09F202A07
:1002C00004DB203A00FA02F1002070479140C2F1AD
:1002D000200320FA03F3194390407047202A04DBDF
:1002E000203A21FA02F00021704721FA02F3D040AF
:1002F000C2F120029140084319467047FFFFFFFFFB
:1003000055E08F48007830B30220DFF838C200DFB4
:100310008D48006800F101008B49086008460068BC
:10032000022818D14FF0000008608848006800F1EA
:100330000100864908600846006864280BD14FF028
:10034000000008607E490870814801684FF0010094
:10035000DFF800C200DF7A48007840BB0220DFF8F7
:10036000E4C100DF7848006800F1010076490860C8
:100370000846006802281AD14FF000000860734850
:10038000006800F1010071490860084600686428AF
:100390000DD14FF0000008604FF00100684908706F
:1003A0006D4801684FF00100DFF8A8C100DFA8E741
:1003B00031E000224FF6FF710120DFF8A0C100DF1D
:1003C00011E000BF6648007D10F0200FFAD06548AC
:1003D00065490968405C624908706348006800F13B
:1003E0000100614908605F485F490968405C002876
:1003F000E7D15D4908604FF400005C49C8614FF0E7
:100400000100DFF840C100DF4FF080605749C8614C
:100410004FF400008861CCE72EE000224FF6FF7118
:100420000120DFF838C100DF11E000BF4C48007D3B
:1004300010F0200FFAD04E484B490968405C4849FB
:1004400008704948006800F10100474908604848C1
:1004500045490968405C0028E7D1434908604FF4EA
:1004600000004249C8614FF00100DFF8D8C000DF4A
:100470004FF090603D498861CFE700231A46022182
:10048000AFF26B00DFF8ECC000DF314908600023F9
:100490001A460121AFF2E700DFF8D8C000DF2E498D
:1004A000086000231A460121AFF2AB10DFF8C4C088
:1004B00000DF314908600020DFF8C0C000DF3048AD
:1004C000006840F008002F49C1F8C4002E480068B9
:1004D00020F0F0002C4908600846006840F0500009
:1004E00008604FF083001E4908734FF00000087148
:1004F0004FF0A20008704FF0030008734FF00700A0
:1005000008724FF003004860704710B51E484068FD
:1005100020F443101C4948601448006840F0906083
:1005200012490860FFF7CBFFFFF7DDFD00220A212B
:10053000AFF2B900DFF854C000DF002010BD0000AA
:1005400038000010ED0A00003000001034000010E8
:100550003C000010410B000040000010A10B000007
:1005600000C00040160000102C00001000C0092040
:10057000000000103D11000044000010CD110000EB
:10058000C4C00F4000C00F4000C00240850F0000F3
:100590002DE9F047B4480068C0F3016003287ED11C
:1005A000B1488430006810F0030006D0012832D032
:1005B00002285ED003282DD100E000BFAA480068C1
:1005C000C0F3074000F1010C4FF00201A748D0F83A
:1005D0008800C0F30E0000F10100A1FB0001A44A55
:1005E0004FF00003A0FB026901FB029100FB031125
:1005F00062463046FFF732FE04469E480068C0B2AD
:1006000000F1010632464FF000032046FFF726FEB8
:10061000994908605FE094480068C0F3074000F122
:10062000010C4FF002019148D0F88800C0F30E0091
:1006300000F10100A1FB0012904B4FF00000A1FB64
:10064000036902FB039201FB002162460346304628
:10065000FFF704FE044687480068C0B200F10106B7
:1006600032464FF000032046FFF7F8FD824908604C
:1006700031E07D480068C0F3074000F1010C4FF005
:1006800002017A48D0F88800C0F30E0000F10100A2
:10069000A1FB00024FF400434FF0000100E01BE01B
:1006A000A0FB036902FB039200FB012762460B4695
:1006B00030463946FFF7D2FD04466E480068C0B2A6
:1006C00000F1010632464FF000032046FFF7C6FD59
:1006D0006949086000BF30E066480830006810F0E3
:1006E000030006D0012810D0022819D0032823D1F6
:1006F00000E000BF5F480068C0B200F101005C4943
:10070000B1FBF0F05C49086016E05A480068C0B2DE
:1007100000F101005949B1FBF0F0574908600BE0C6
:1007200054480068C0B200F101004FF40041B1FB31
:10073000F0F05149086000BF00BFBDE8F0874FF0FE
:1007400020004F4908604948D0F8A00110F0200F60
:1007500005D000BF4A48006810F0400FFAD04FF0B3
:100760000300444908604FF000004049C1F8A80167
:10077000444908604FF00100434908604348444938
:1007800008604FF0AA00434908604FF05500086028
:100790004FF00100404908604FF0AA003D49086051
:1007A0004FF055003149C1F88C0000BF2E48006859
:1007B00010F0806FFAD04FF00300374908604FF017
:1007C000AA002A49C1F88C004FF055003149086051
:1007D00000BF2548006810F0407FFAD04FF023009A
:1007E0002E4908604FF0AA002049C1F8AC004FF034
:1007F00055002B4908604FF001002A4908604FF06E
:10080000AA00274908604FF055001849C1F8AC000C
:1008100000BF2248001D006810F4806FF9D04FF02F
:100820000300204908604FF0AA001049C1F8AC004D
:100830004FF055001A49086000BF1848001D0068B5
:1008400010F4407FF9D01848184908604FF00000B4
:100850000649C1F8C8010846006820F4704040F419
:10086000804008607047000088C00F4000C00F4003
:1008700000093D0004C10F404C000010001BB700F0
:10088000A0C10F40ACC10F400CC10F406300050078
:1008900084C00F408CC00F4080C00F40A4C00F40E8
:1008A000ACC00F40A0C00F40DE872804C4C00F407A
:1008B000064C074D06E0E06840F0010394E80700AD
:1008C00098471034AC42F6D3FFF704FCA0120000A6
:1008D000C01200000000000002E008C8121F08C19A
:1008E000002AFAD170477047002001E001C1121FB1
:1008F000002AFBD1704710B5002A06DA22F0004228
:10090000D21D22F00703102203E0D21C22F00303C1
:100910000C2213B19C188C4201D9012010BD024455
:1009200001448360C0E90021C91AD018884202D866
:1009300010600246F9E70020106010BD084800680A
:10094000C0010CD54FF06040D0F8801EC90706D01A
:10095000D0F8000E002802DA024901200870704722
:10096000FCED00E05A0000104FF06042D36F002B06
:10097000FCD0C36AD367D36F002BFCD0C07840EAA9
:100980000120A2F87C0070474FF06041CA6F002A36
:10099000FCD081F87C0070474FEA000151E8000F5D
:1009A00028B1036841E80032002AF7D17047BFF34D
:1009B0002F8F704770B50D46002812D04FF6FF718B
:1009C000084C884204D222680146104600F024FAFE
:1009D00020684570044800F013F9BDE8704000F04D
:1009E000BDBA70BD50000010F00800100F4810B5DF
:1009F0000D4942680E480B680088934204D00A6093
:100A0000CB88421E1A448A808A8882420AD10020FA
:100A10000860064800F0F4F80146BDE810400348BD
:100A200000F01EBA10BD000060000010F0080010B9
:100A30005800001070B51A4DE86800282ED0A88A1A
:100A4000401EA882002623E0A06838B1616841609A
:100A5000606810B1A16881606660A6601048214698
:100A6000183800F0FDF9A08AA8826078042804D123
:100A70000C49E08A09880844A0820120607084F84B
:100A80002000E068E860E06808B10561E660266182
:100A9000A88A002802D1EC68002CD5D170BD0000D6
:100AA000080900105800001070B504000FD00D4D5B
:100AB000A17801262868827891420CD900F0ECF9DF
:100AC000286846702046BDE8704000F047BA0648E6
:100AD00000F096F8F7E766702146BDE870400248DE
:100AE00000F0BEB950000010F00800100321FFF71D
:100AF00061BF000010B50446008B08432083627874
:100B0000618B062A16D0052A17D1084215D001EAB2
:100B10000002628388432083204600F0C7F9012049
:100B20006070022084F820002146BDE81040034890
:100B300000F096B931EA0002ECD010BDF0080010C8
:100B4000024670B5154800EB810050F8044C002CAB
:100B500022D0208B104320836178658B062918D022
:100B6000052919D1284217D005EA00016183A8435D
:100B70002083204600F09AF9208BA843208301208F
:100B80006070022084F820002046BDE87040FFF726
:100B90008BBF35EA0001EAD070BD0000A408001048
:100BA00070B503460D480D460468208B42B133EA08
:100BB000000101D0062009E098432083022070BD87
:100BC00010EA030201D06283F6E70520C1B2638315
:100BD0002846FFF7EFFE012070BD00005000001016
:100BE000814202D342688A4201D20120704750E814
:100BF000002F0A6040E80012002AF8D10020704758
:100C00000146406842684A600B780022022B05D0FA
:100C1000012B03D0032B01D04260704743680BB116
:100C2000996042608260704770B5044600201546A6
:100C3000207001226270A1706060A060E06020619D
:100C4000A082E0822083608384F8200084F8210061
:100C5000608C18B90448FFF79FFEA0622946204621
:100C6000BDE8704000F00EB8D0010010034800212C
:100C7000016003490968C1807047000060000010EE
:100C80008012000010B5428C920803D10F4A1268FE
:100C9000C2F38D02836A03EB8202530700D5121F51
:100CA000403A4FF08073C2E90E1300234FEA030469
:100CB00042F823405B1C0E2BFAD3C36913624262D5
:100CC000C162806A0249016010BD00007C12000010
:100CD000A52E5AE22DE9F04104460F464168002056
:100CE00004F10C0621B1617802291AD0A189A9B3B7
:100CF000A189E289914246D2218904EB81010F61E9
:100D0000D6E85F1F491CC6E8521F002AF8D1218986
:100D1000491C89B22181E289914200D12081BDE83C
:100D2000F081074660702046FFF76AFF80F8207068
:100D30002189054604EB8101C0690861D6E85F0F8F
:100D4000401CC6E8510F0029F8D12089401C80B210
:100D50002081E18988420BD1278109E0FFE7204605
:100D6000FFF74EFF0546C0690421076085F8201093
:100D700001206870284600F099F82946BDE8F04146
:100D8000034800F06DB8BDE8F0410320FFF751BA09
:100D9000F008001070B51C4801210068417000F097
:100DA0007BF81A491A4D002048706C7817E000BF94
:100DB00005EBC40148680278E2B1012A1FD000F0B7
:100DC000A1F8E878641C844200D100241048801CFB
:100DD000D0E84F1F491EC0E8421F002AF8D1A8786A
:100DE0000028E5D16C700B48FFF70AFFBDE87040A2
:100DF00000F0B4B8896889B2FFF77CFEE1E7896842
:100E0000FFF768FFDDE70000500000105B000010F6
:100E100020080010F0080010104A10B5D368ABB1DC
:100E200013469B8A03E08CB12246A48A2344D468EB
:100E30008B42F8D3C460D0600261C46804B1206101
:100E4000591A8182908A401A908210BD0024C46091
:100E5000D060C91A02619182848210BD0809001015
:100E600030B502780023022A03D0012A01D0032AD8
:100E700000D101238C7800E01046426812B19578C9
:100E8000A542F9D24A6041601BB102B1916088600D
:100E900030BD0020FBE7000003494A6842600022A1
:100EA0008260486070470000F008001010B50169CA
:100EB00000290ED0C268CA60C36800223BB18B8A89
:100EC000848A23448B82C3681961C26000E08A82ED
:100ED000026110BD816839B142684A6041680029E9
:100EE00001D0806888607047054906E04A68824200
:100EF00002D140684860704711460029F6D170471A
:100F0000F008001010B5416879B1FFF779FE04468A
:100F1000FFF7CCFF01206070032084F820002146F9
:100F2000BDE810400348FFF79BBF4188491C418042
:100F300010BD0000F008001006480068D0E9091054
:100F4000814203D300680449884202D00120FFF7A0
:100F500070B9704750000010A52E5AE207490222CE
:100F600048604270064A1278002A05D006C98A42B3
:100F700002D0C078FFF708BD704700005000001095
:100F80005A0000102DE9F04105460E469046FFF745
:100F9000D5FC00200446384A384902E042F8204097
:100FA000401C0B889842F9D33548302201883548D7
:100FB000FFF7A1FC3448006880B240F0004233489B
:100FC00001683348FFF797FC32480822018832480D
:100FD0000068FFF790FC314FFF20314AF8707C84A5
:100FE00000213846FFF720FE2E480421017044609E
:100FF0002D480170C46004618482786A2030FFF754
:101000006FF82A482B494FF0E022076002207870E1
:101010002748047044700978C170274800685061FF
:10102000946107201061D2F8200D24490843C2F8CA
:10103000200DD2F8200DD2F80C1D00F07F40C043E7
:10104000B0FA80F0C0F10800C1F30221814200DB58
:10105000481CD2F81C3D6FF08071814063F317018A
:10106000C2F81C1DFFF702FE424631462846BDE885
:10107000F041002300F062B8A408001078120000CC
:1010800094120000700000107C1200009812000002
:10109000D00100109E12000048000010C00800108F
:1010A0002D020000F0080010080900105000001088
:1010B000200800109C120000841200000000FFFFB6
:1010C0000B4810B5006801214170FFF7E5FEFFF7FE
:1010D0008DFC08490888401C0880FFF7ABFC00F035
:1010E0000DF80548FFF78CFDBDE81040FFF736BF4F
:1010F0005000001058000010F008001070B50D4CA2
:101100002068002815D0A0880B4E401EA0800AE061
:10111000E888FFF78DF8A888A08028682060294615
:101120003068FFF75DFDA088002802D12568002DFA
:10113000EED170BD68000010480000102DE9F041AC
:10114000804616461F460C4611F0FF0F00D14C1C7E
:101150001948FFF721FC05002BD0200AAE626884F5
:10116000E1B242462846EF61FFF75EFD01241348D5
:10117000134905E000EB840252F8042C22B1641CF0
:101180000A889442F6D9002400EB8400E6B240F8C5
:10119000045C0C48EE70007818B101212846FFF776
:1011A000E3FB2846FFF780FC0748006880F82060D2
:1011B0002046BDE8F081000070000010A408001077
:1011C000781200005A000010500000102DE9F04184
:1011D000244C234E244B22680025D17808B181424B
:1011E00018D103EB8100557040F8045C1F48916AE8
:1011F000FFF7F6FC20688562317811B10021FFF716
:10120000B3FB1B482168FFF7EBFC00202560FFF7CC
:101210004BFC1FE01749098888421ED803EB800762
:1012200057F8044CCCB12046FFF754FE2046FFF798
:101230003DFE47F8045C0D48A16AFFF7D1FCA562AA
:10124000307818B100212046FFF78EFB2146084870
:10125000FFF7C6FC0020BDE8F081FF20FBE700009F
:101260005A00001050000010A4080010D001001017
:10127000700000107812000007000000C800000194
:10128000050001003F420F00000000001027000091
:10129000000000005C01000050060000100000008B
:1012A000C01200000000001070000000D80800000C
:1012B0003013000070000010B00A0000E8080000C1
:1012C000434C4F434B57495345202020202028347E
:1012D000736563290D00414E5449434C4F434B57AE
:1012E000495345202834736563290D000000000030
:1012F00000000000000000000000000000000000EE
:1013000000000000000000000000000000E1F50502
:1013100000000000000000000000000000000000CD
:1013200000000000000000000000000000000000BD
:04000005000000CD2A
:00000001FF
