:020000040000FA
:10000000580B0010390200004102000043020000BA
:100010004502000047020000490200000000000005
:10002000000000000000000000000000450100008A
:100030004D02000000000000D50100002102000078
:10004000530200005302000053020000530200005C
:10005000530200005302000053020000530200004C
:10006000530200005302000053020000530200003C
:10007000530200005302000053020000530200002C
:10008000530200005302000053020000530200001C
:10009000530200005302000053020000530200000C
:1000A00053020000530200005302000053020000FC
:1000B00053020000530200005302000053020000EC
:1000C000530200005302000053020000DFF80CD07E
:1000D00000F022FC004800477D060000580B00108D
:1000E00080F309887047684680F3098804480078DF
:1000F000C00714BF0220032080F31488704700005B
:1001000010180000DFF818C0EFF305831B0618BFB6
:100110006047EFF31483DB0708BF604700DF7047D9
:10012000AD0E0000DFF818C0EFF305831B0618BF03
:100130006047EFF31483DB0708BF604700DF7047B9
:1001400005100000EFF30980816931F8021C31F4D9
:100150007F4128D190E80F10E047EFF3098C1A4B4C
:1001600093E80600914219D00CB44FF00103002926
:100170001FBF81F821302CE9F00FC1F824C001F035
:1001800099F90CBC1A60D2F824C0BCE8F00F92F8C0
:1001900021308CF309881BB192F82000CCF80000C4
:1001A0006FF0020E704710B5084A1268914209D8E4
:1001B000074C54F8214090E80F10A047EFF3098C4A
:1001C0008CE80F0010BD000054000010F002000089
:1001D000F002000001F09CF8134B93E806009142F6
:1001E0001BD00CB44FF0000381F82130EFF3098CE1
:1001F0002CE9F00FC1F824C001F05CF90CBC1A60C6
:10020000D2F824C0BCE8F00F8CF3098892F82130B2
:100210001BB192F82030CCF800306FF0020E70471E
:1002200001F00CFAD8E7000054000010FEE7704718
:10023000FEE77047704700000648804706480047C1
:10024000FEE7FEE7FEE7FEE7FEE7FEE7FEE7FEE786
:10025000FEE7FEE71B080000CD0000002DE9F05F7F
:100260000546002092469B46884606468146402425
:100270001BE0284641464746224600F03DFB5246D9
:100280005B46801A994110D310461946224600F069
:100290001FF82D1A67EB01084F4622460120002166
:1002A00000F016F817EB00094E41201EA4F10104DE
:1002B000DFDC484631462A464346BDE8F09F034608
:1002C00011F8012B00F8012B002AF9D118467047CC
:1002D000202A04DB203A00FA02F100207047914006
:1002E000C2F1200320FA03F3194390407047000045
:1002F000000000007047032100F0E6BDFFFFFFFF94
:10030000002100E0491C8142FCD37047F9484FF4BA
:100310007071C1651021C1652021C165704700B5AC
:10032000FFF7F4FFF448F34A4069506510209065E8
:10033000202393651920FFF7E3FFD36500BD10B5B7
:10034000ED4C206900F0F00080006061FFF7E7FFEE
:1003500020690007800D6061FFF7E1FFBDE81040F4
:100360004FF47A70CCE700B5FFF7D0FFE248E14ADE
:10037000406950651020D065202393651920FFF750
:10038000BFFFD36500BD10B5DB4C206900F0F00065
:1003900080006061FFF7E7FF20690007800D606162
:1003A000FFF7E1FFBDE810404FF47A70A8E708B509
:1003B0008026D14C4FF6FF770025A0683A46401CB6
:1003C000A0606946CD48DFF838C300DF2661FFF73B
:1003D000DAFFE56009E02061FFF7B1FF0120DFF8F7
:1003E00024C300DFE068401CE0600098E168405CE6
:1003F0000028F0D1C020C4E90350FFF7C4FFE56036
:1004000009E02061FFF79BFF0120DFF8F8C200DF61
:10041000E068401CE0600098E1680844407C0028E7
:10042000EFD1B648E56014300099FFF77BFEC4E7D2
:10043000B04A10B550694FF4F02300F4F020984210
:1004400015D0AD4800214FF4FA740162491CA14255
:10045000FCD30162516901F4F021994207D00122D5
:100460008270826A120C42EAD1318262C17010BD80
:100470002DE9F04FA04C4FF0010B4FF480180025F0
:1004800084F801B04FF470079A4E08E0012806D0B6
:1004900002280DD003280ED0042811D10EE04FF40D
:1004A000001C4FF480094FF4000AC4F8248007E0D0
:1004B000C4F824C004E0C4F8249001E0C4F824A0E7
:1004C000606AA062B763F063A570FFF7B1FFA07820
:1004D000012806D06078401CC0B260700528CFD2D9
:1004E000D4E725628449E0782C314A5D824203D109
:1004F00081483C30405D02E06D1C102DF5D3E0706A
:100500002562BDE8F08FDFF800C200DF7A4C0023DF
:100510001A461946A061AFF26910DFF8F0C100DF9A
:10052000E06114217548DFF8E8C100DFFF260027ED
:100530004FF6FF786068DFF8CCC1401C6060012096
:1005400000DF6E481430FFF7DDFD05462078B8B1B6
:10055000FFF78EFF6FA12846FFF7B1FEE27871A189
:1005600005F1110000F0EAF9277042462946634878
:10057000DFF8C0C100DF6420DFF888C100DFD9E701
:1005800064A12846FFF79BFE6BA105F1110000F066
:10059000D5F92670E9E700231A460221AFF2990047
:1005A000DFF868C100DF544C00231A460121A06126
:1005B000AFF20520DFF854C100DFE0610020DFF872
:1005C00088C100DF70B561480169614A114001616D
:1005D0004848016C41F470710164016C41F01001F4
:1005E0000164016C41F020010164FFF78FFE4FF4BC
:1005F0004860FFF785FE404CC0256561FFF7B3FEFC
:1006000047F230563046FFF77BFE6561FFF7ABFEE1
:100610003046FFF775FE6561FFF7A5FE3046FFF730
:100620006FFE80256561FFF79EFE3046FFF768FE8E
:1006300028202061FFF7A7FE3046FFF761FE0C205F
:100640002061FFF7A0FE4FF448763046FFF758FED2
:1006500006202061FFF797FE3046FFF751FE01208C
:100660002061FFF790FE42F21070FFF749FE25610E
:10067000FFF789FE3046BDE8704041E6334810B5CB
:10068000C16821F47F41C160016821F040410160EF
:10069000416821F03F0141601648016821F4F021D2
:1006A0000160016A41F4700101624FF470018163DD
:1006B000FFF788FF4FF44860FFF722FE0F48202223
:1006C0002C21143000F05CF9FFF70DFD00220A2107
:1006D000AFF23D10DFF87CC000DF002010BD0649FE
:1006E00000B501200861FFF74EFE42F210705DF880
:1006F00004EB05E600C00920000000106C000010AB
:100700005D120000F7020000F5170000B9160000A6
:10071000E11000004B455950414420544553544981
:100720004E4700004B4559203D20253032582020AF
:1007300020000000B911000057414954494E47209C
:1007400020202020200000004917000000C00240A7
:10075000FF00F0FF0115000070B55F4CD4F8880071
:100760005E4D6FEA10608007D4F80C0100F00300C2
:100770000CD028B1012841D0022845D003282DD122
:10078000D4F804015649C0B2401C43E028B1012806
:100790000ED0022823D0032820D154F8880FC0F3AC
:1007A00007422068521CC0F30E00401C4D4909E06E
:1007B00054F8880FC0F307422068521CC0F30E00A3
:1007C0004949401CA0FB01010023FFF747FDE26FF0
:1007D0000023D2B2521CFFF741FD286070BD54F8CF
:1007E000880FC0F307422068521CC0F30E0000219E
:1007F000401C090441EA10410004E5E7D4F8040173
:100800003A49C0B2401C05E0D4F804014FF400415D
:10081000C0B2401CB1FBF0F0DFE770B52E482021DC
:10082000C0F8A011D0F8A011890603D5D0F8A01106
:100830004906FBD500F180000323C0F884304FF057
:100840000005C0F82851C0F82C514FF00104C0F841
:100850008C40274941604FF0AA01C1604FF055021A
:10086000C2600460C160C260A0F18000D0F88860FE
:100870007601FBD540F8803FC160C260A0F18000E6
:10088000D0F8886016F0407FFAD000F1A00023264F
:100890004660C160C2600460C160C260A0F1A00097
:1008A000D0F8A8406405FBD540F8A03FC160C26005
:1008B000A0F1A000D0F8A81011F4407FFAD00D49A3
:1008C000C0F8C410C0F8C851016821F4704141F467
:1008D0008041016070BD000000C00F404C0000105E
:1008E00000093D0000127A0000366E01001BB700BF
:1008F00063000500DE872804202A04DB203A21FA61
:1009000002F00021704721FA02F3D040C2F1200228
:100910009140084319467047064C074D06E0E068D1
:1009200040F0010394E8070098471034AC42F6D336
:10093000FFF7D0FB28180000481800000FB4084B40
:1009400010B504A902AA039800F03EF8044602A9D3
:10095000002000F077FA204610BC5DF814FB000080
:10096000450E000002E008C8121F08C1002AFAD193
:100970007047002001E001C1121F002AFBD170471F
:1009800010B5002A06DA22F00042D21D22F0070339
:10099000102203E0D21C22F003030C2213B19C1896
:1009A0008C4201D9012010BD024401448360C0E99A
:1009B0000021C91AD018884202D810600246F9E70F
:1009C0000020106010BD00002DE9FF4F8DB00546DE
:1009D0000F460026EEE1252879D100246D1CF94A46
:1009E000A246A14601212B78203B01FA03F01042D8
:1009F00002D004436D1CF6E728782A2810D06FF047
:100A00002F022878A0F13001092915D80AEB8A01B4
:100A100002EB410144F0020400EB010A6D1CF0E717
:100A200057F804ABBAF1000F03DA44F40054CAF1EA
:100A3000000A44F002046D1C28782E2817D115F8FE
:100A4000010F44F004042A280ED06FF02F022878FA
:100A5000A0F1300109290AD809EB890102EB410113
:100A600000EB01096D1CF2E757F8049B6D1C287818
:100A70006C280FD006DC4C2817D068280DD06A28C7
:100A800014D104E0742810D07A280FD10DE044F47A
:100A900000140AE044F4801401E044F4401469783E
:100AA000814202D16D1C04F580146D1C95F800C0C4
:100AB000BCF16E0F2AD012DCBCF1630F3CD007DC16
:100AC000BCF1000F76D0BCF1580F19D1ACE018E0A2
:100AD000BCF1640F6FD0BCF1690F11D16BE0BCF1B8
:100AE000730F32D006DCBCF16F0F71D0BCF1700F08
:100AF00006D19BE0BCF1750F6BD0BCF1780F69D0CB
:100B00006046DDE90F129047761C52E1C4F30250B3
:100B1000022806D003280AD0042801CF0AD0066094
:100B200047E101CF4FEAE671C0E9006141E101CF41
:100B300006803EE106703CE101CF8DF80000002008
:100B40008DF80100EB46012003E057F804BB4FF09D
:100B5000FF3061074FF0000102D40DE008F1010100
:100B6000884649450FDA8045F8DB1BF80810002954
:100B7000F4D108E008F1010188468142FADB1BF854
:100B800008100029F6D1DDE90F23AAEB0800814601
:100B9000214600F040F9304400EB080604E0DDE9AE
:100BA0000F121BF8010B9047B8F10108F7D221464C
:100BB0004846F9E002E10A20C4F302524FF0000B6C
:100BC0000890022A07D001CFC117032A09D00AE0F2
:100BD00035E022E023E0FF1D27F00707F7E80201D8
:100BE00005E000B2C117042A01D140B2C1170029A3
:100BF00006DA0023D0EB030063EB01012D2202E0B3
:100C0000220504D52B228DF82420012203E0E207DF
:100C100001D02022F7E7904653E00A2110E010208F
:100C20004FF0000B08900EE0102109E010214FF06A
:100C3000000B44F004044FF00809089103E0082178
:100C40004FF0000B0891C4F30252022A04D001CFE6
:100C50000021032A06D007E0FF1D27F00707F7E869
:100C6000020105E080B20021042A01D1C0B20021B6
:100C70004FF00008220724D5BCF1700F2AD0089B42
:100C800083F0100353EA0B0309D150EA010206D0A6
:100C900030228DF824208DF825C002229046089B32
:100CA00083F0080353EA0B030BD150EA010201D190
:100CB000620706D530228DF824204FF00108A9F1F3
:100CC000010941A2BCF1580F00D044A20B9208AA1E
:100CD0000A920FE040228DF824200122DEE75B46D5
:100CE000089AFFF7BBFA0B9B9B5C0A9AA2F10102E0
:100CF0000A92137050EA0102F1D10A98ADEB00009C
:100D000000F1200B600702D524F4803401E04FF09D
:100D10000109002049465A46D94501DDA1EB0200F0
:100D200000EB0B0141440890AAEB01000B90E0039B
:100D300006D4DDE90F2321460B9800F06CF8064439
:100D40004FF000090DF1240A07E0DDE90F121AF84F
:100D500009009047761C09F10109C145F5DBE00364
:100D60000CD5DDE90F2321460B9800F054F806441A
:100D700004E0DDE90F1230209047761C0899481EE8
:100D800008900029F5DC08E00A980A990078491CC7
:100D90000A91DDE90F129047761CBBF10001ABF11F
:100DA000010BF1DC0B982146DDE90F2300F020F860
:100DB00006446D1C287800287FF40DAE11B0304633
:100DC000BDE8F08F09280100303132333435363731
:100DD0003839414243444546000000003031323347
:100DE0003435363738396162636465660000000067
:100DF0002DE9F0410446002517461E46880405D417
:100E000006E039462020B04705F10105641EF8D5FB
:100E10002846BDE8F0812DE9F04104460025302741
:100E200090461E46C80300D42027880405D506E056
:100E300041463846B04705F10105641EF8D52846FD
:100E4000BDE8F0810A68531C0B6010707047000009
:100E500008480068C0010CD54FF06040D0F8801EF3
:100E6000C90706D0D0F8000E002802DA0249012096
:100E700008707047FCED00E05E0000104FF060422B
:100E8000D36F002BFCD0C36AD367D36F002BFCD089
:100E9000C07840EA0120A2F87C0070474FF0604122
:100EA000CA6F002AFCD081F87C0070474FEA00012D
:100EB00051E8000F28B1036841E80032002AF7D159
:100EC0007047BFF32F8F704770B50D46002812D0C2
:100ED0004FF6FF71084C884204D222680146104642
:100EE00000F058FA20684570044800F09BF8BDE80F
:100EF000704000F0F1BA70BD5400001028090010D5
:100F000070B51A4DE86800282ED0A88A401EA88225
:100F1000002623E0A06838B161684160606810B1C4
:100F2000A16881606660A66010482146183800F00C
:100F300055FAA08AA8826078042804D10C49E08A76
:100F400009880844A0820120607084F82000E068CD
:100F5000E860E06808B10561E6602661A88A0028BB
:100F600002D1EC68002CD5D170BD00004009001002
:100F70005C00001070B504000FD00D4DA178012663
:100F80002868827891420CD900F044FA28684670AB
:100F90002046BDE8704000F09FBA064800F042F8D5
:100FA000F7E766702146BDE87040024800F016BAC7
:100FB000540000102809001010B50446008B0843A7
:100FC00020836278618B062A16D0052A17D1084241
:100FD00015D001EA0002628388432083204600F096
:100FE00023FA01206070022084F820002146BDE829
:100FF0001040034800F0F2B931EA0002ECD010BD15
:1010000028090010814202D342688A4201D201209D
:10101000704750E8002F0A6040E80012002AF8D11B
:10102000002070470146406842684A600B78002201
:10103000022B05D0012B03D0032B01D04260704757
:1010400043680BB1996042608260704770B5044696
:1010500000201546207001226270A1706060A060BF
:10106000E0602061A082E0822083608384F8200019
:1010700084F82100608C18B90448FFF717FFA062BC
:1010800029462046BDE8704000F002B80802001072
:1010900010B5428C920803D10F4A1268C2F38D0238
:1010A000836A03EB8202530700D5121F403A4FF0C8
:1010B0008073C2E90E1300234FEA030442F8234071
:1010C0005B1C0E2BFAD3C36913624262C162806A51
:1010D0000249016010BD000008180000A52E5AE268
:1010E0000122027000224270426002814281103966
:1010F00082818908C18170472DE9F04104460F467D
:101100004168002004F10C0621B1617802291AD04F
:10111000A189A9B3A189E289914246D2218904EB30
:1011200081010F61D6E85F1F491CC6E8521F002AE3
:10113000F8D12189491C89B22181E289914200D1EB
:101140002081BDE8F081074660702046FFF76AFF06
:1011500080F820702189054604EB8101C06908618F
:10116000D6E85F0F401CC6E8510F0029F8D120894E
:10117000401C80B22081E18988420BD1278109E09F
:10118000FFE72046FFF74EFF0546C06904210760D0
:1011900085F8201001206870284600F045F929469E
:1011A000BDE8F041034800F019B9BDE8F041032063
:1011B000FFF73EB8280900102DE9F0410C4617460C
:1011C0008289254D4168002601B152B1C3899A42F6
:1011D00029D1C7B1204A1268C1B1114600F0FEF80A
:1011E0001AE0FFF71FFF0746C0690460042087F874
:1011F0002000384600F018F93846FFF7BBFE286893
:1012000080F8206025E00120BDE8F0814260296877
:10121000C1E901600121417028680821C461384694
:10122000FFF752FEEFE7018900EB81010C6100F14D
:101230000C0100BFD1E85F2F521CC1E8532F002BD7
:10124000F8D10189491C89B20181C289914200D13A
:1012500006810020D8E70000540000102DE9F0417D
:1012600004468089294F0E4690460025B0B3608918
:1012700004EB8000006908606089401C80B26081D6
:10128000E189884200D165816068E0B12046FFF7BE
:10129000C9FE80F820502189064604EB8101C0690F
:1012A00008612089401C80B22081E189884200D1F8
:1012B0002581304600F0B8F83046FFF75BFE38680D
:1012C00080F8205007E00C34D4E85F0F401EC4E8DB
:1012D000510F0029F8D10020BDE8F081FFE73AB1B5
:1012E0000A496068096828B1204600F077F805E0EF
:1012F0000120F1E761603868C0E9015408214046E7
:10130000FFF7E2FD3868C661F2E700005400001004
:1013100070B51C4801210068417000F07BF81A4943
:101320001A4D002048706C7817E000BF05EBC4012F
:1013300048680278E2B1012A1FD000F0A1F8E878ED
:10134000641C844200D100241048801CD0E84F1F48
:10135000491EC0E8421F002AF8D1A8780028E5D12C
:101360006C700B48FFF75EFEBDE8704000F0B4B84B
:10137000896889B2FFF720FEE1E78968FFF7BCFEC4
:10138000DDE70000540000105F0000105808001056
:1013900028090010104A10B5D368ABB113469B8AD8
:1013A00003E08CB12246A48A2344D4688B42F8D34C
:1013B000C460D0600261C46804B12061591A81829E
:1013C000908A401A908210BD0024C460D060C91A6F
:1013D00002619182848210BD4009001030B502780C
:1013E0000023022A03D0012A01D0032A00D10123BD
:1013F0008C7800E01046426812B19578A542F9D287
:101400004A6041601BB102B19160886030BD00202C
:10141000FBE7000003494A6842600022826048609E
:10142000704700002809001010B5016900290ED08E
:10143000C268CA60C36800223BB18B8A848A234495
:101440008B82C3681961C26000E08A82026110BDAC
:10145000816839B142684A604168002901D08068DA
:1014600088607047054906E04A68824202D14068B8
:101470004860704711460029F6D1704728090010CE
:1014800010B5416879B1FFF7CDFD0446FFF7CCFFF9
:1014900001206070032084F820002146BDE8104040
:1014A0000348FFF79BBF4188491C418010BD0000E5
:1014B0002809001006480068D0E90910814203D3CA
:1014C00000680449884202D00120FEF7B1BE70478F
:1014D00054000010A52E5AE20749022248604270CB
:1014E000064A1278002A05D006C98A4202D0C0787E
:1014F000FFF7D4BC70470000540000105E000010DD
:101500002DE9F04105460E469046FFF7A1FC00206C
:101510000446384A384902E042F82040401C0B8813
:101520009842F9D33548302201883548FFF728FA28
:101530003448006880B240F00042334801683348C4
:10154000FFF71EFA32480822018832480068FFF788
:1015500017FA314FFF20314AF8707C840021384659
:10156000FFF774FD2E480421017044602D4801707E
:10157000C46004618482786A2030FEF7B1FD2A4895
:101580002B494FF0E0220760022078702748047052
:1015900044700978C1702748006850619461072041
:1015A0001061D2F8200D24490843C2F8200DD2F86A
:1015B000200DD2F80C1D00F07F40C043B0FA80F03F
:1015C000C0F10800C1F30221814200DB481CD2F8BF
:1015D0001C3D6FF08071814063F31701C2F81C1D40
:1015E000FEF727FE424631462846BDE8F04100237B
:1015F00000F062B8DC080010041800001C1800009D
:10160000AC000010081800002018000008020010AC
:101610002618000050000010F80800102D020000ED
:10162000280900104009001054000010580800104C
:10163000241800000C1800000000FFFF0B4810B534
:10164000006801214170FFF7E5FEFEF7F3FD084950
:101650000888401C0880FFF753FC00F00DF805488F
:10166000FFF7E0FCBDE81040FFF736BF5400001064
:101670005C0000102809001070B50D4C206800288F
:1016800015D0A0880B4E401EA0800AE0E888FEF727
:10169000CEFDA888A0802868206029463068FFF722
:1016A000B1FCA088002802D12568002DEED170BDC4
:1016B00064000010500000102DE9F04180461646ED
:1016C0001F460C4611F0FF0F00D14C1C1948FFF7C4
:1016D000EDFB05002BD0200AAE626884E1B24246E1
:1016E0002846EF61FFF7B2FC01241348134905E0D7
:1016F00000EB840252F8042C22B1641C0A88944244
:10170000F6D9002400EB8400E6B240F8045C0C48F3
:10171000EE70007818B101212846FFF7AFFB28468C
:10172000FFF728FC0748006880F820602046BDE8E5
:10173000F0810000AC000010DC080010041800006C
:101740005E000010540000102DE9F041244C234E9F
:10175000244B22680025D17808B1814218D103EBCF
:101760008100557040F8045C1F48916AFFF74AFCFD
:1017700020688562317811B10021FFF77FFB1B489B
:101780002168FFF73FFC00202560FFF7F3FB1FE017
:101790001749098888421ED803EB800757F8044C84
:1017A000CCB12046FFF754FE2046FFF73DFE47F838
:1017B000045C0D48A16AFFF725FCA562307818B1DA
:1017C00000212046FFF75AFB21460848FFF71AFC84
:1017D0000020BDE8F081FF20FBE700005E00001064
:1017E00054000010DC08001008020010AC000010CB
:1017F0000418000002480068002800D0C078704734
:101800005400001007000000C80000013F420F0014
:101810000000000010270000000000005C01000034
:1018200050060000100000004818000000000010E2
:101830006C00000064090000B41800006C00001087
:10184000EC0A000072090000000000000000000027
:101850000000000000000000000000000000000088
:101860000000000000000000000000000000000078
:10187000000000001E1D1B172E2D2B274E4D4B4721
:101880008E8D8B87000102030405060708090A0BE9
:101890000C0D0E0F00E1F505000000000000000037
:1018A0000000000000000000000000000000000038
:0418B0000000000034
:04000005000000CD2A
:00000001FF
