:020000040000FA
:10000000B01400102D02000035020000370200007D
:10001000390200003B0200003D0200000000000029
:10002000000000000000000000000000450100008A
:100030004102000000000000D50100002102000084
:10004000470200004702000047020000470200008C
:10005000470200004702000047020000470200007C
:10006000470200004702000047020000470200006C
:10007000470200004702000047020000470200005C
:10008000470200004702000047020000470200004C
:10009000470200004702000047020000470200003C
:1000A000470200004702000047020000470200002C
:1000B000470200004702000047020000470200001C
:1000C000470200004702000047020000DFF80CD0A2
:1000D00000F0CEFB0048004797050000B014001068
:1000E00080F309887047684680F3098804480078DF
:1000F000C00714BF0220032080F31488704700005B
:10010000A4110000DFF818C0EFF305831B0618BF29
:100110006047EFF31483DB0708BF604700DF7047D9
:1001200045090000DFF818C0EFF305831B0618BF70
:100130006047EFF31483DB0708BF604700DF7047B9
:100140009D0A0000EFF30980816931F8021C31F447
:100150007F4128D190E80F10E047EFF3098C1A4B4C
:1001600093E80600914219D00CB44FF00103002926
:100170001FBF81F821302CE9F00FC1F824C000F036
:100180006DFE0CBC1A60D2F824C0BCE8F00F92F8E7
:1001900021308CF309881BB192F82000CCF80000C4
:1001A0006FF0020E704710B5084A1268914209D8E4
:1001B000074C54F8214090E80F10A047EFF3098C4A
:1001C0008CE80F0010BD00002C000010E0020000C1
:1001D000E002000000F030FD134B93E8060091426E
:1001E0001BD00CB44FF0000381F82130EFF3098CE1
:1001F0002CE9F00FC1F824C000F030FE0CBC1A60EE
:10020000D2F824C0BCE8F00F8CF3098892F82130B2
:100210001BB192F82030CCF800306FF0020E70471E
:1002200000F0E0FED8E700002C00001006488047F0
:1002300006480047FEE7FEE7FEE7FEE7FEE7FEE7CB
:10024000FEE7FEE7FEE7FEE753070000CD000000F3
:10025000FEE77047FEE7704770472DE9F05F0546FF
:10026000002092469B4688460646814640241BE075
:10027000284641464746224600F0E9FA52465B4688
:10028000801A994110D310461946224600F0D0FA40
:100290002D1A67EB01084F4622460120002100F08D
:1002A000C7FA17EB00094E41201EA4F10104DFDC60
:1002B000484631462A464346BDE8F09F40EA0103DE
:1002C0009B0703D009E008C9121F08C0042AFAD20C
:1002D00003E011F8013B00F8013B521EF9D27047D0
:1002E0000000000002E008C8121F08C1002AFAD16D
:1002F00070477047032100F033BB0700FFFFFFFF8B
:1003000010B50021AB4A04E0147DA406FCD513709F
:10031000491C435C002BF7D110BDA7A28CB0D2E9D9
:100320000003D2E90212CDE90912CDE907031C222C
:10033000A5A16846FFF7C2FFAA4C4FF6FF75A94872
:1003400029461430DFF8A0C200DF2068DFF89CC225
:10035000401C2060A348143000DF2068042807D127
:10036000A048DFF888C21C3000DF6846FFF7C8FFEE
:100370009C4829461C30DFF870C200DF9948DFF83E
:100380006CC21C3000DF07A8FFF7BAFF0A20DFF8B5
:1003900060C200DFD3E797A28CB0D2E90003D2E9B4
:1003A0000212CDE90912CDE907031C2295A1684686
:1003B000FFF784FF8B4C4FF6FF758A4829461430AF
:1003C000DFF824C200DF2068DFF820C2401C206074
:1003D0008448143000DF2068032802D16846FFF704
:1003E0008FFF804829461C30DFF8FCC100DF7D48C4
:1003F000DFF8F8C11C3000DF07A8FFF781FF0A20F3
:10040000DFF8ECC100DFD8E785A28CB0D2E90003A9
:10041000D2E90212CDE90912CDE907031C2284A119
:100420006846FFF74BFF6F4C4FF6FF756D48294646
:100430001430DFF8B4C100DF2068DFF8B0C1401C21
:1004400020606848143000DF2068022802D1684626
:10045000FFF756FF634829461C30DFF88CC100DFE8
:100460006048DFF888C11C3000DF07A8FFF748FFAD
:100470000A20DFF87CC100DFD8E774A28CB0D2E993
:100480000003D2E90212CDE90912CDE907031C22CB
:1004900072A16846FFF712FF524C4FF6FF755148A4
:1004A00029461430DFF840C100DF2068DFF83CC186
:1004B000401C20604B48143000DF2068012802D126
:1004C0006846FFF71DFF474829461C30DFF818C172
:1004D00000DF07A8FFF714FF4248DFF810C11C3007
:1004E00000DF0A20DFF808C100DFD8E73D4801211E
:1004F0001430DFF884C100DF3A4800211C30DFF8F7
:1005000078C100DF00231A460121AFF29100DFF825
:100510006CC100DF334C00231A4601216060AFF24A
:100520001710DFF858C100DF00231A460121A06030
:10053000AFF29D10DFF844C100DF00231A4601210D
:10054000E060AFF22920DFF834C100DF2061002035
:10055000DFF82CC100DF4B48016841F00801016061
:100560004948016821F0F0010160016841F0500143
:10057000016010484FF0830101734FF000010171D9
:100580004FF0A20101704FF0030101734FF0070219
:1005900002724160704710B5FFF7DDFFFFF7A3FD62
:1005A00000220A21AFF2BB00DFF8E0C000DF00202C
:1005B00010BD000000C000405461736B34205275C0
:1005C0006E6E696E670D00005461736B3420426C6F
:1005D0006F636B6564206174204261727269657239
:1005E0000D00000000000010210E0000E90D0000C9
:1005F000F50200005461736B332052756E6E696EA4
:10060000670D00005461736B3320426C6F636B6540
:100610006420617420426172726965720D0000008D
:100620005461736B322052756E6E696E670D0000F7
:100630005461736B3220426C6F636B65642061742C
:1006400020426172726965720D0000005461736B23
:10065000312052756E6E696E670D00005461736BC8
:100660003120426C6F636B6564206174204261725B
:10067000726965720D000000A90D00006110000094
:10068000F1100000C4C00F4000C00240A90E0000DD
:1006900070B55F4CD4F888005E4D6FEA106080073B
:1006A000D4F80C0100F003000CD028B1012841D08F
:1006B000022845D003282DD1D4F804015649C0B2F0
:1006C000401C43E028B101280ED0022823D0032883
:1006D00020D154F8880FC0F307422068521CC0F3A1
:1006E0000E00401C4D4909E054F8880FC0F3074242
:1006F0002068521CC0F30E004949401CA0FB0101B8
:100700000023FFF7AAFDE26F0023D2B2521CFFF7CD
:10071000A4FD286070BD54F8880FC0F3074220681C
:10072000521CC0F30E000021401C090441EA104194
:100730000004E5E7D4F804013A49C0B2401C05E0E2
:10074000D4F804014FF40041C0B2401CB1FBF0F0FA
:10075000DFE770B52E482021C0F8A011D0F8A01115
:10076000890603D5D0F8A0114906FBD500F1800019
:100770000323C0F884304FF00005C0F82851C0F8BA
:100780002C514FF00104C0F88C40274941604FF0D4
:10079000AA01C1604FF05502C2600460C160C2602E
:1007A000A0F18000D0F888607601FBD540F8803F4A
:1007B000C160C260A0F18000D0F8886016F0407F70
:1007C000FAD000F1A00023264660C160C260046038
:1007D000C160C260A0F1A000D0F8A8406405FBD5BC
:1007E00040F8A03FC160C260A0F1A000D0F8A810FE
:1007F00011F4407FFAD00D49C0F8C410C0F8C851B8
:10080000016821F4704141F48041016070BD000035
:1008100000C00F402400001000093D0000127A00C3
:1008200000366E01001BB70063000500DE87280458
:10083000202A04DB203A00FA02F1002070479140A0
:10084000C2F1200320FA03F3194390407047202A95
:1008500004DB203A21FA02F00021704721FA02F36A
:10086000D040C2F120029140084319467047000071
:10087000064C074D06E0E06840F0010394E80700ED
:1008800098471034AC42F6D3FFF724FCBC110000AB
:10089000DC110000002001E001C1121F002AFBD181
:1008A000704710B5002A06DA22F00042D21D22F06D
:1008B0000703102203E0D21C22F003030C2213B121
:1008C0009C188C4201D9012010BD02440144836070
:1008D000C0E90021C91AD018884202D81060024627
:1008E000F9E70020106010BD08480068C0010CD571
:1008F0004FF06040D0F8801EC90706D0D0F8000E37
:10090000002802DA0249012008707047FCED00E07F
:10091000360000104FF06042D36F002BFCD0C36A4A
:10092000D367D36F002BFCD0C07840EA0120A2F837
:100930007C0070474FF06041CA6F002AFCD081F8FC
:100940007C0070474FEA000151E8000F28B10368AE
:1009500041E80032002AF7D17047BFF32F8F70476C
:1009600070B50D46002812D04FF6FF71084C884232
:1009700004D222680146104600F0A0F920684570B4
:10098000044800F09BF8BDE8704000F079BA70BDF3
:100990002C0000108012001070B51A4DE868002875
:1009A0002ED0A88A401EA882002623E0A06838B175
:1009B00061684160606810B1A16881606660A6608E
:1009C00010482146183800F09DF9A08AA882607866
:1009D000042804D10C49E08A09880844A082012037
:1009E000607084F82000E068E860E06808B10561A4
:1009F000E6602661A88A002802D1EC68002CD5D1D7
:100A000070BD0000981200103400001070B5040092
:100A10000FD00D4DA17801262868827891420CD91B
:100A200000F08CF9286846702046BDE8704000F060
:100A300027BA064800F042F8F7E766702146BDE89D
:100A40007040024800F05EB92C00001080120010C7
:100A500010B50446008B084320836278618B062A18
:100A600016D0052A17D1084215D001EA0002628388
:100A700088432083204600F06BF90120607002203B
:100A800084F820002146BDE81040034800F03AB940
:100A900031EA0002ECD010BD80120010814202D376
:100AA00042688A4201D20120704750E8002F0A6054
:100AB00040E80012002AF8D1002070470146406843
:100AC00042684A600B780022022B05D0012B03D02C
:100AD000032B01D04260704743680BB199604260BC
:100AE0008260704770B504460020154620700122D0
:100AF0006270A1706060A060E0602061A082E0820E
:100B00002083608384F8200084F82100608C18B969
:100B10000448FFF717FFA06229462046BDE8704051
:100B200000F002B8A001001010B5428C920803D169
:100B30000F4A1268C2F38D02836A03EB82025307E5
:100B400000D5121F403A4FF08073C2E90E13002304
:100B50004FEA030442F823405B1C0E2BFAD3C3690F
:100B600013624262C162806A0249016010BD0000E6
:100B70009C110000A52E5AE22DE9F04104460F46D3
:100B80004168002004F10C0621B1617802291AD0D5
:100B9000A189A9B3A189E289914246D2218904EBB6
:100BA00081010F61D6E85F1F491CC6E8521F002A69
:100BB000F8D12189491C89B22181E289914200D171
:100BC0002081BDE8F081074660702046FFF776FF80
:100BD00080F820702189054604EB8101C069086115
:100BE000D6E85F0F401CC6E8510F0029F8D12089D4
:100BF000401C80B22081E18988420BD1278109E025
:100C0000FFE72046FFF75AFF0546C0690421076049
:100C100085F8201001206870284600F099F82946D0
:100C2000BDE8F041034800F06DB8BDE8F041032095
:100C3000FFF710BB8012001070B51C48012100683E
:100C4000417000F07BF81A491A4D002048706C780A
:100C500017E000BF05EBC40148680278E2B1012A41
:100C60001FD000F0A7F8E878641C844200D100246B
:100C70001048801CD0E84F1F491EC0E8421F002AC0
:100C8000F8D1A8780028E5D16C700B48FFF716FF63
:100C9000BDE8704000F0F4B8896889B2FFF7D8FE6B
:100CA000E1E78968FFF768FFDDE700002C0000102E
:100CB00037000010B011001080120010104A10B55B
:100CC000D368ABB113469B8A03E08CB12246A48A59
:100CD0002344D4688B42F8D3C460D0600261C468F6
:100CE00004B12061591A8182908A401A908210BD05
:100CF0000024C460D060C91A02619182848210BD50
:100D00009812001030B502780023022A03D0012A7D
:100D100001D0032A00D101238C7800E010464268FC
:100D200012B19578A542F9D24A6041601BB102B177
:100D30009160886030BD0020FBE7000003494A68ED
:100D400042600022826048607047000080120010FC
:100D500010B5016900290ED0C268CA60C3680022BC
:100D60003BB18B8A848A23448B82C3681961C26039
:100D700000E08A82026110BD816839B142684A6030
:100D80004168002901D0806888607047054906E005
:100D90004A68824202D14068486070471146002983
:100DA000F6D17047801200100222027000224260C9
:100DB0004180704710B5416879B1FFF77FFE044666
:100DC000FFF7C6FF01206070032084F82000214651
:100DD000BDE810400348FFF795BF4188491C41809A
:100DE00010BD00008012001010B5416889B1FFF7F6
:100DF00065FE0446032084F820002046FFF7A8FF84
:100E00002046FFF703FE05490020096881F820000D
:100E100002E04188491C4180002010BD2C000010D8
:100E200010B542880C461AB1521E4280002010BDF7
:100E300034B1094A4368116823B1FFF763FF06E044
:100E4000012010BD416011680023C1E90130072174
:100E50002046FFF785FDF3E72C00001006480068E8
:100E6000D0E90910814203D300680449884202D0C6
:100E70000120FFF7EFB970472C000010A52E5AE2B1
:100E80000749022248604270064A1278002A05D0BB
:100E900006C98A4202D0C078FFF74CBD70470000F7
:100EA0002C000010360000102DE9F04105460E46DA
:100EB0009046FFF719FD00200446384A384902E001
:100EC00042F82040401C0B889842F9D33548302224
:100ED00001883548FFF7E5FC3448006880B240F0EF
:100EE0000042334801683348FFF7DBFC32480822F0
:100EF000018832480068FFF7D4FC314FFF20314AA7
:100F0000F8707C8400213846FFF7ECFD2E48042160
:100F1000017044602D480170C46004618482786A65
:100F20002030FFF7DDF82A482B494FF0E022076018
:100F3000022078702748047044700978C1702748EF
:100F400000685061946107201061D2F8200D244997
:100F50000843C2F8200DD2F8200DD2F80C1D00F085
:100F60007F40C043B0FA80F0C0F10800C1F3022115
:100F7000814200DB481CD2F81C3D6FF0807181403B
:100F800063F31701C2F81C1DFFF765F942463146AD
:100F90002846BDE8F041002300F062B8341200108A
:100FA000FA020000B0110000440000109C11000083
:100FB000B4110000A0010010BA11000028000010B8
:100FC0005012001051020000801200109812001000
:100FD0002C000010B0110010B8110000A01100008A
:100FE0000000FFFF0B4810B5006801214170FFF7BA
:100FF000A5FEFFF731F908490888401C0880FFF773
:10100000CBFC00F00DF80548FFF758FDBDE8104097
:10101000FFF736BF2C0000103400001080120010C3
:1010200070B50D4C2068002815D0A0880B4E401ECE
:10103000A0800AE0E888FFF70CF9A888A08028685B
:10104000206029463068FFF729FDA088002802D1DA
:101050002568002DEED170BD3C0000102800001066
:101060002DE9F041804616461F460C4611F0FF0F51
:1010700000D14C1C1948FFF765FC05002BD0200A55
:10108000AE626884E1B242462846EF61FFF72AFD6E
:1010900001241348134905E000EB840252F8042CA4
:1010A00022B1641C0A889442F6D9002400EB840023
:1010B000E6B240F8045C0C48EE70007818B10121EB
:1010C0002846FFF727FC2846FFF7A0FC07480068E2
:1010D00080F820602046BDE8F08100004400001048
:1010E00034120010FA020000360000102C0000102C
:1010F0002DE9F041244C234E244B22680025D17861
:1011000008B1814218D103EB8100557040F8045CAE
:101110001F48916AFFF7C2FC20688562317811B1DF
:101120000021FFF7F7FB1B482168FFF7B7FC002001
:101130002560FFF76BFC1FE01749098888421ED81D
:1011400003EB800757F8044CCCB12046FFF714FEA0
:101150002046FFF7FDFD47F8045C0D48A16AFFF744
:101160009DFCA562307818B100212046FFF7D2FB24
:1011700021460848FFF792FC0020BDE8F081FF20DF
:10118000FBE70000360000102C00001034120010A5
:10119000A001001044000010FA020000000200014B
:1011A0003F420F0000000000102700000000000078
:1011B0005C0100001010000010000000DC110000B5
:1011C0000000001044000000E402000020120000B3
:1011D000440000106C14000094080000000000009F
:1011E00000000000000000000000000000000000FF
:1011F00000000000000000000000000000000000EF
:1012000000E1F50500000000000000000000000003
:1012100000000000000000000000000000000000CE
:04000005000000CD2A
:00000001FF
