:020000040000FA
:10000000080B00103902000041020000430200000A
:100010004502000047020000490200000000000005
:10002000000000000000000000000000450100008A
:100030004D02000000000000D50100002102000078
:10004000530200005302000053020000530200005C
:10005000530200005302000053020000530200004C
:10006000530200005302000053020000530200003C
:10007000530200005302000053020000530200002C
:10008000530200005302000053020000530200001C
:10009000530200005302000053020000530200000C
:1000A00053020000530200005302000053020000FC
:1000B00053020000530200005302000053020000EC
:1000C000530200005302000053020000DFF80CD07E
:1000D00000F0ECFA00480047CD040000080B0010C7
:1000E00080F309887047684680F3098804480078DF
:1000F000C00714BF0220032080F31488704700005B
:1001000018100000DFF818C0EFF305831B0618BFB6
:100110006047EFF31483DB0708BF604700DF7047D9
:1001200095070000DFF818C0EFF305831B0618BF22
:100130006047EFF31483DB0708BF604700DF7047B9
:100140008D090000EFF30980816931F8021C31F458
:100150007F4128D190E80F10E047EFF3098C1A4B4C
:1001600093E80600914219D00CB44FF00103002926
:100170001FBF81F821302CE9F00FC1F824C000F036
:10018000A5FD0CBC1A60D2F824C0BCE8F00F92F8B0
:1001900021308CF309881BB192F82000CCF80000C4
:1001A0006FF0020E704710B5084A1268914209D8E4
:1001B000074C54F8214090E80F10A047EFF3098C4A
:1001C0008CE80F0010BD000040000010D0060000B9
:1001D000D006000000F0A8FC134B93E80600914203
:1001E0001BD00CB44FF0000381F82130EFF3098CE1
:1001F0002CE9F00FC1F824C000F068FD0CBC1A60B7
:10020000D2F824C0BCE8F00F8CF3098892F82130B2
:100210001BB192F82030CCF800306FF0020E70471E
:1002200000F018FED8E7000040000010FEE770471D
:10023000FEE77047704700000648804706480047C1
:10024000FEE7FEE7FEE7FEE7FEE7FEE7FEE7FEE786
:10025000FEE7FEE7CF050000CD0000002DE9F05FCE
:100260000546002092469B46884606468146402425
:100270001BE0284641464746224600F02FF85246EA
:100280005B46801A994110D310461946224600F069
:1002900016F82D1A67EB01084F462246012000216F
:1002A00000F00DF817EB00094E41201EA4F10104E7
:1002B000DFDC484631462A464346BDE8F09F202A07
:1002C00004DB203A00FA02F1002070479140C2F1AD
:1002D000200320FA03F3194390407047202A04DBDF
:1002E000203A21FA02F00021704721FA02F3D040AF
:1002F000C2F120029140084319467047FFFFFFFFFB
:10030000C0B2092801D9373000E03030C0B27047A0
:10031000DFF8D481754DA8F112060027A6F11A0462
:100320006088401C608000F47040000B2081FFF763
:10033000E7FF3070608800F47060000A2081FFF7EA
:10034000DFFF7070608800F0F00000092081FFF787
:10035000D7FFB070608800F00F002081FFF7D0FF5A
:10036000F0703771434606E02A7D9206FCD529706D
:1003700000F10100A080A088195C0029F4D120467A
:10038000A78006E02B7D9B06FCD52A7001F10101B8
:1003900081808188725C002AF4D18780297D89065A
:1003A000FCD50D2129700120DFF844C1E16800DF90
:1003B000B6E7DFF834814D4DA8F10C08A8F10C0622
:1003C0004FF6FF790027A6F11404002249460120C8
:1003D000DFF820C100DF2088401C208000F470403E
:1003E000000BE080FFF78CFF3070208800F4706015
:1003F000000AE080FFF784FF7070208800F0F000B2
:100400000009E080FFF77CFFB070208800F00F004B
:10041000E080FFF775FFF0703771434606E02A7DF4
:100420009206FCD5297000F10100A080A088195C1B
:100430000029F4D1A78006E02A7D9206FCD5297018
:1004400000F10100A080A088315C0029F4D1A780D0
:10045000287D8006FCD50D202870B6E700231A46BB
:100460000221AFF2B100DFF890C000DF1E4C002384
:100470002C3C1A460121E060AFF26B10DFF878C027
:1004800000DF20610020DFF874C000DF1C48016835
:1004900041F0080101601B48016821F0F001016092
:1004A000016841F05001016010484FF08301017371
:1004B0004FF0000101714FF0A20101704FF00301F4
:1004C00001734FF0070202724160704710B5FFF7E9
:1004D000DDFFFFF708FE00220A21AFF27F00DFF800
:1004E00028C000DF002010BD2C00001000C000401C
:1004F000ED0800004D090000D10E0000610F000062
:10050000C4C00F4000C00240190D000070B55F4C20
:10051000D4F888005E4D6FEA10608007D4F80C01B3
:1005200000F003000CD028B1012841D0022845D0AA
:1005300003282DD1D4F804015649C0B2401C43E031
:1005400028B101280ED0022823D0032820D154F846
:10055000880FC0F307422068521CC0F30E00401CF5
:100560004D4909E054F8880FC0F307422068521C37
:10057000C0F30E004949401CA0FB01010023FFF716
:100580006DFEE26F0023D2B2521CFFF767FE2860B7
:1005900070BD54F8880FC0F307422068521CC0F3A6
:1005A0000E000021401C090441EA10410004E5E767
:1005B000D4F804013A49C0B2401C05E0D4F8040163
:1005C0004FF40041C0B2401CB1FBF0F0DFE770B562
:1005D0002E482021C0F8A011D0F8A011890603D51B
:1005E000D0F8A0114906FBD500F180000323C0F824
:1005F00084304FF00005C0F82851C0F82C514FF05E
:100600000104C0F88C40274941604FF0AA01C16045
:100610004FF05502C2600460C160C260A0F180006A
:10062000D0F888607601FBD540F8803FC160C26099
:10063000A0F18000D0F8886016F0407FFAD000F179
:10064000A00023264660C160C2600460C160C26031
:10065000A0F1A000D0F8A8406405FBD540F8A03F69
:10066000C160C260A0F1A000D0F8A81011F4407FD2
:10067000FAD00D49C0F8C410C0F8C851016821F47F
:10068000704141F48041016070BD000000C00F4026
:100690003800001000093D0000127A0000366E019B
:1006A000001BB70063000500DE872804064C074DD9
:1006B00006E0E06840F0010394E807009847103432
:1006C000AC42F6D3FFF706FD3010000050100000DA
:1006D0000000000002E008C8121F08C1002AFAD179
:1006E00070477047002001E001C1121F002AFBD1B2
:1006F000704710B5002A06DA22F00042D21D22F01F
:100700000703102203E0D21C22F003030C2213B1D2
:100710009C188C4201D9012010BD02440144836021
:10072000C0E90021C91AD018884202D810600246D8
:10073000F9E70020106010BD08480068C0010CD522
:100740004FF06040D0F8801EC90706D0D0F8000EE8
:10075000002802DA0249012008707047FCED00E031
:10076000480000104FF06042D36F002BFCD0C36AEA
:10077000D367D36F002BFCD0C07840EA0120A2F8E9
:100780007C0070474FF06041CA6F002AFCD081F8AE
:100790007C0070474FEA000151E8000F28B1036860
:1007A00041E80032002AF7D17047BFF32F8F70471E
:1007B00070B50D46002812D04FF6FF71084C8842E4
:1007C00004D222680146104600F0F0F92068457016
:1007D000044800F0EBF8BDE8704000F089BA70BD45
:1007E00040000010D808001070B51A4DE8680028C5
:1007F0002ED0A88A401EA882002623E0A06838B127
:1008000061684160606810B1A16881606660A6603F
:1008100010482146183800F0EDF9A08AA8826078C7
:10082000042804D10C49E08A09880844A0820120E8
:10083000607084F82000E068E860E06808B1056155
:10084000E6602661A88A002802D1EC68002CD5D188
:1008500070BD0000F00800104C00001070B50400DE
:100860000FD00D4DA17801262868827891420CD9CD
:1008700000F0DCF9286846702046BDE8704000F0C2
:1008800037BA064800F092F8F7E766702146BDE8EF
:100890007040024800F0AEB940000010D8080010C7
:1008A00010B50446008B084320836278618B062ACA
:1008B00016D0052A17D1084215D001EA000262833A
:1008C00088432083204600F0BBF90120607002209D
:1008D00084F820002146BDE81040034800F08AB9A2
:1008E00031EA0002ECD010BDD8080010024670B505
:1008F000154800EB810050F8044C002C22D0208BCE
:10090000104320836178658B062918D0052919D1F9
:10091000284217D005EA00016183A84320832046BE
:1009200000F08EF9208BA843208301206070022004
:1009300084F820002046BDE87040FFF78FBF35EAFD
:100940000001EAD070BD00008C08001070B50346AD
:100950000D480D460468208B42B133EA000101D0F6
:10096000062009E098432083022070BD10EA0302AC
:1009700001D06283F6E70520C1B263832846FFF702
:1009800017FF012070BD000040000010814202D31B
:1009900042688A4201D20120704750E8002F0A6065
:1009A00040E80012002AF8D1002070470146406854
:1009B00042684A600B780022022B05D0012B03D03D
:1009C000032B01D04260704743680BB199604260CD
:1009D0008260704770B504460020154620700122E1
:1009E0006270A1706060A060E0602061A082E0821F
:1009F0002083608384F8200084F82100608C18B97B
:100A00000448FFF7C7FEA06229462046BDE87040B3
:100A100000F002B8B801001010B5428C920803D162
:100A20000F4A1268C2F38D02836A03EB82025307F6
:100A300000D5121F403A4FF08073C2E90E13002315
:100A40004FEA030442F823405B1C0E2BFAD3C36920
:100A500013624262C162806A0249016010BD0000F7
:100A600010100000A52E5AE22DE9F04104460F4671
:100A70004168002004F10C0621B1617802291AD0E6
:100A8000A189A9B3A189E289914246D2218904EBC7
:100A900081010F61D6E85F1F491CC6E8521F002A7A
:100AA000F8D12189491C89B22181E289914200D182
:100AB0002081BDE8F081074660702046FFF776FF91
:100AC00080F820702189054604EB8101C069086126
:100AD000D6E85F0F401CC6E8510F0029F8D12089E5
:100AE000401C80B22081E18988420BD1278109E036
:100AF000FFE72046FFF75AFF0546C069042107605B
:100B000085F8201001206870284600F099F82946E1
:100B1000BDE8F041034800F06DB8BDE8F0410320A6
:100B2000FFF786BBD808001070B51C48012100688B
:100B3000417000F07BF81A491A4D002048706C781B
:100B400017E000BF05EBC40148680278E2B1012A52
:100B50001FD000F0A1F8E878641C844200D1002482
:100B60001048801CD0E84F1F491EC0E8421F002AD1
:100B7000F8D1A8780028E5D16C700B48FFF716FF74
:100B8000BDE8704000F0B4B8896889B2FFF788FE0C
:100B9000E1E78968FFF768FFDDE70000400000102B
:100BA0004900001008080010D8080010104A10B5BD
:100BB000D368ABB113469B8A03E08CB12246A48A6A
:100BC0002344D4688B42F8D3C460D0600261C46807
:100BD00004B12061591A8182908A401A908210BD16
:100BE0000024C460D060C91A02619182848210BD61
:100BF000F008001030B502780023022A03D0012A41
:100C000001D0032A00D101238C7800E0104642680D
:100C100012B19578A542F9D24A6041601BB102B188
:100C20009160886030BD0020FBE7000003494A68FE
:100C3000426000228260486070470000D8080010BF
:100C400010B5016900290ED0C268CA60C3680022CD
:100C50003BB18B8A848A23448B82C3681961C2604A
:100C600000E08A82026110BD816839B142684A6041
:100C70004168002901D0806888607047054906E016
:100C80004A68824202D14068486070471146002994
:100C9000F6D17047D808001010B5416879B1FFF758
:100CA00085FE0446FFF7CCFF01206070032084F826
:100CB00020002146BDE810400348FFF79BBF418854
:100CC000491C418010BD0000D8080010064800688B
:100CD000D0E90910814203D300680449884202D058
:100CE0000120FFF7A5BA704740000010A52E5AE278
:100CF0000749022248604270064A1278002A05D04D
:100D000006C98A4202D0C078FFF73CBD7047000098
:100D100040000010480000102DE9F04105460E4645
:100D20009046FFF709FD00200446384A384902E0A2
:100D300042F82040401C0B889842F9D335483022B5
:100D400001883548FFF7D5FC3448006880B240F090
:100D50000042334801683348FFF7CBFC3248082291
:100D6000018832480068FFF7C4FC314FFF20314A48
:100D7000F8707C8400213846FFF72CFE2E480421B1
:100D8000017044602D480170C46004618482786AF7
:100D90002030FFF7A5F92A482B494FF0E0220760E1
:100DA000022078702748047044700978C170274881
:100DB00000685061946107201061D2F8200D244929
:100DC0000843C2F8200DD2F8200DD2F80C1D00F017
:100DD0007F40C043B0FA80F0C0F10800C1F30221A7
:100DE000814200DB481CD2F81C3D6FF080718140CD
:100DF00063F31701C2F81C1DFFF71BFA4246314688
:100E00002846BDE8F041002300F062B88C080010CD
:100E10000C100000241000005800001010100000FA
:100E200028100000B80100102E1000003C00001037
:100E3000A80800102D020000D8080010F0080010CB
:100E400040000010080800102C10000014100000D2
:100E50000000FFFF0B4810B5006801214170FFF74B
:100E6000E5FEFFF7E7F908490888401C0880FFF70E
:100E7000BBFC00F00DF80548FFF798FDBDE81040F9
:100E8000FFF736BF400000104C000010D8080010DB
:100E900070B50D4C2068002815D0A0880B4E401E60
:100EA000A0800AE0E888FFF7C2F9A888A080286837
:100EB000206029463068FFF769FDA088002802D12C
:100EC0002568002DEED170BD500000103C000010D0
:100ED0002DE9F041804616461F460C4611F0FF0FE3
:100EE00000D14C1C1948FFF755FC05002BD0200AF7
:100EF000AE626884E1B242462846EF61FFF76AFDC0
:100F000001241348134905E000EB840252F8042C35
:100F100022B1641C0A889442F6D9002400EB8400B4
:100F2000E6B240F8045C0C48EE70007818B101217C
:100F30002846FFF717FC2846FFF790FC0748006893
:100F400080F820602046BDE8F081000058000010C5
:100F50008C0800100C100000480000104000001029
:100F60002DE9F041244C234E244B22680025D178F2
:100F700008B1814218D103EB8100557040F8045C40
:100F80001F48916AFFF702FD20688562317811B130
:100F90000021FFF7E7FB1B482168FFF7F7FC002063
:100FA0002560FFF75BFC1FE01749098888421ED8BF
:100FB00003EB800757F8044CCCB12046FFF754FEF2
:100FC0002046FFF73DFE47F8045C0D48A16AFFF795
:100FD000DDFCA562307818B100212046FFF7C2FB86
:100FE00021460848FFF7D2FC0020BDE8F081FF2031
:100FF000FBE7000048000010400000108C080010C3
:10100000B8010010580000100C100000070000008C
:10101000C80000013F420F00000000001027000040
:10102000000000005C0100005006000010000000FD
:10103000501000000000001058000000D40600000E
:10104000A810000058000010B00A0000E4060000DC
:101050000000000000000000000000000000000090
:101060000000000000000000000000000000000080
:10107000636F756E74657231203A2000636F756E10
:1010800074657232203A200000E1F505000000008E
:101090000000000000000000000000000000000050
:0810A000000000000000000048
:04000005000000CD2A
:00000001FF
