:020000040000FA
:10000000F014001039020000410200004302000019
:100010004502000047020000490200000000000005
:10002000000000000000000000000000450100008A
:100030004D02000000000000D50100002102000078
:10004000530200005302000053020000530200005C
:10005000530200005302000053020000530200004C
:10006000530200005302000053020000530200003C
:10007000530200005302000053020000530200002C
:10008000530200005302000053020000530200001C
:10009000530200005302000053020000530200000C
:1000A00053020000530200005302000053020000FC
:1000B00053020000530200005302000053020000EC
:1000C000530200005302000053020000DFF80CD07E
:1000D00000F01AFD00480047BD040000F0140010B5
:1000E00080F309887047684680F3098804480078DF
:1000F000C00714BF0220032080F31488704700005B
:10010000541F0000DFF818C0EFF305831B0618BF6B
:100110006047EFF31483DB0708BF604700DF7047D9
:10012000A5150000DFF818C0EFF305831B0618BF04
:100130006047EFF31483DB0708BF604700DF7047B9
:1001400005170000EFF30980816931F8021C31F4D2
:100150007F4128D190E80F10E047EFF3098C1A4B4C
:1001600093E80600914219D00CB44FF00103002926
:100170001FBF81F821302CE9F00FC1F824C001F035
:100180002BFD0CBC1A60D2F824C0BCE8F00F92F82A
:1001900021308CF309881BB192F82000CCF80000C4
:1001A0006FF0020E704710B5084A1268914209D8E4
:1001B000074C54F8214090E80F10A047EFF3098C4A
:1001C0008CE80F0010BD000014000010EC020000CD
:1001D000EC02000001F02EFC134B93E80600914264
:1001E0001BD00CB44FF0000381F82130EFF3098CE1
:1001F0002CE9F00FC1F824C001F0EEFC0CBC1A6031
:10020000D2F824C0BCE8F00F8CF3098892F82130B2
:100210001BB192F82030CCF800306FF0020E70471E
:1002200001F09EFDD8E7000014000010FEE77047C3
:10023000FEE77047704700000648804706480047C1
:10024000FEE7FEE7FEE7FEE7FEE7FEE7FEE7FEE786
:10025000FEE7FEE75F060000CD0000002DE9F05F3D
:100260000546002092469B46884606468146402425
:100270001BE0284641464746224600F084FA524693
:100280005B46801A994110D310461946224600F069
:100290006BFA2D1A67EB01084F4622460120002118
:1002A00000F062FA17EB00094E41201EA4F1010490
:1002B000DFDC484631462A464346BDE8F09F00F061
:1002C000004230F000400DD0C10D01F5607142EAEE
:1002D00001510022C0F31600520742EAD002400743
:1002E00011437047002001467047000000000000E5
:1002F00070470A68531C0B6010707047FFFFFFFFC8
:1003000008B57E4D7E4E7F4C4FF6FF7800277C4827
:10031000424669462830DFF8F0C100DF00980068E7
:10032000FFF7CDFF02460B4678A1754800F072FC3E
:10033000206805E02A7D9206FCD52970401C2060CB
:10034000315C0029F6D1276000984068FFF7B7FFBD
:1003500002460B4672A16A4800F05CFC206805E08A
:100360002A7D9206FCD52970401C2060315C002952
:10037000F6D1276000986FA18268614800F04AFCBE
:10038000206805E02A7D9206FCD52970401C20607B
:10039000315C0029F6D15A4827603C300099FFF7BC
:1003A000C1FEB4E7564814212830DFF8A0C100DFB1
:1003B00053483C30FFF7A6FE014665480860654893
:1003C0004860654888604E484FF6FF7422462830E2
:1003D000DFF888C100DF624D1020E8616420DFF89B
:1003E00084C100DF46483C30FFF78CFE01465E4882
:1003F00008605E4848605E48886041482246283070
:10040000DFF858C100DFDFF86CC100DF2020E861B1
:100410006420DFF850C100DF39483C30FFF772FE3E
:10042000014655480860554848605548886034483A
:1004300022462830DFF824C100DF4020E861642034
:10044000DFF820C100DF0020DFF838C100DF002323
:100450001A460221AFF2B300DFF82CC100DF294CAD
:1004600000231A4601216060AFF26B10DFF818C15B
:1004700000DFA0600020DFF80CC100DF4348016806
:1004800041F0080101604248016821F0F00101607B
:10049000016841F05001016018484FF08301017379
:1004A0004FF0000101714FF0A20101704FF0030104
:1004B00001734FF00702027241607047344810B573
:1004C0000168344A114001602548016841F47F61A8
:1004D0000160110D81610A480C2218213C3000F0A6
:1004E00065FCFFF7CBFFFFF7FEFD00220A21AFF20C
:1004F000A100DFF8A4C000DF002010BD00C0004054
:100500002C00001000000010811900000A566F6CCA
:10051000746167653A20252E326620560D00000072
:1005200043757272656E743A20252E326620410D35
:10053000000000004E756D626572206F6620637961
:10054000636C65733A2025640D00000005180000F7
:1005500052B85F43EC518C41D2D70100DD18000046
:1005600000C00920B1160000E13A63435C8F4641A8
:10057000479B0200191F0000A4706543713D3E4176
:100580007A9E03006D1E0000DD1D0000C4C00F40F8
:1005900000C00240FF0000FF251C000070B55F4C4A
:1005A000D4F888005E4D6FEA10608007D4F80C0123
:1005B00000F003000CD028B1012841D0022845D01A
:1005C00003282DD1D4F804015649C0B2401C43E0A1
:1005D00028B101280ED0022823D0032820D154F8B6
:1005E000880FC0F307422068521CC0F30E00401C65
:1005F0004D4909E054F8880FC0F307422068521CA7
:10060000C0F30E004949401CA0FB01010023FFF785
:1006100025FEE26F0023D2B2521CFFF71FFE2860B6
:1006200070BD54F8880FC0F307422068521CC0F315
:100630000E000021401C090441EA10410004E5E7D6
:10064000D4F804013A49C0B2401C05E0D4F80401D2
:100650004FF40041C0B2401CB1FBF0F0DFE770B5D1
:100660002E482021C0F8A011D0F8A011890603D58A
:10067000D0F8A0114906FBD500F180000323C0F893
:1006800084304FF00005C0F82851C0F82C514FF0CD
:100690000104C0F88C40274941604FF0AA01C160B5
:1006A0004FF05502C2600460C160C260A0F18000DA
:1006B000D0F888607601FBD540F8803FC160C26009
:1006C000A0F18000D0F8886016F0407FFAD000F1E9
:1006D000A00023264660C160C2600460C160C260A1
:1006E000A0F1A000D0F8A8406405FBD540F8A03FD9
:1006F000C160C260A0F1A000D0F8A81011F4407F42
:10070000FAD00D49C0F8C410C0F8C851016821F4EE
:10071000704141F48041016070BD000000C00F4095
:100720001000001000093D0000127A0000366E0132
:10073000001BB70063000500DE87280430B50B46B8
:10074000014600202022012409E021FA02F59D4201
:1007500005D303FA02F5491B04FA02F52844151ED5
:10076000A2F10102F1DC30BD202A04DB203A00FABC
:1007700002F1002070479140C2F1200320FA03F3F8
:10078000194390407047202A04DB203A21FA02F0F6
:100790000021704721FA02F3D040C2F120029140BB
:1007A0000843194670472DE9FE4F074681EA0300CA
:1007B000C00F0E46019021F0004123F00044B81A0A
:1007C000A14105D23846314617461E460B46024621
:1007D00023F00040104304D13846314603B0BDE851
:1007E000F08F350DC5F30A00C3F30A510290401A89
:1007F0000090402867DAC3F3130040F4801B01988F
:10080000924620B10023D2EB030A63EB0B0B009856
:100810005946C0F140025046FFF7A6FF80460C46FD
:1008200050465946009A00F081F9C0197141EF17FE
:1008300085EA11533B433FD0019A4AB3009A012AFB
:1008400011DC0022801A4FF0004361EB055103EAEE
:1008500005538018CDE9002341F580114246234617
:1008600000F083F9BAE72E050025401B61EB060175
:10087000401941F58012001852412818A6F50013BE
:1008800043EB020140EAD47018EB0808644113E01E
:1008900064084FEA38084FF0000244EAC0744FEA97
:1008A0000553801A61EB0301801841F58011490856
:1008B0004FEA3000801859414246234603B0BDE854
:1008C000F04F00F045B90198012240000023D0EB21
:1008D000020263EBE07301984FEAE074381A66EBAA
:1008E0000401EBE783F000435DE781F000415AE744
:1008F0002DE9FE4F81EA030421F0004504F0004495
:1009000023F000414FF0000A009450EA050302D0A2
:1009100052EA010304D10020014603B0BDE8F08F84
:10092000C1F30A53C5F30A541C44A0FB02B3C5F338
:10093000130545F4801CC1F3130141F480180CFB2E
:10094000023300FB083EA4F2F334810A930A41EA21
:100950008C5143EA88530194A1FB03474FEA9C253D
:1009600005FB03734FEA982601FB06373D05260574
:1009700045EA1435BBEB06016EEB0503850E920EBE
:1009800045EA8C1542EA8812A5FB0206261E67EB93
:1009900000070C0D44EA0334A61947EB1350C1F3CA
:1009A00013044FF000031946E5FB02014FEA03333D
:1009B00043EA14534FEA0432019C43EA0603A4F1CC
:1009C0000C040294009CCDE900A400F0CEF8A4E74A
:1009D0002DE9F04D81EA030404F0004B21F00047BB
:1009E00014464FF0000A23F0004150EA070220D0DD
:1009F00054EA01021DD0C1F30A550246C1F31300A7
:100A0000C7F30A56C7F3130340F4801143F480136D
:100A1000A6EB0508101BD64608F2FD3873EB010063
:100A200002D308F1010801E092185B41B8F1000F10
:100A300003DA00200146BDE8F08D00204FF4801558
:100A4000064607460EE0B2EB040C73EB010C04D330
:100A5000121B064363EB01032F436D084FEA30007E
:100A600092185B4150EA050CEDD152EA030012D016
:100A700082EA040083EA0105284303D100224FF0F3
:100A8000004308E0101B8B4102D20122002302E048
:100A90006FF0010253101AEB060047EB085110EB00
:100AA0000A0041EB0B01BDE8F04D00F051B8C1F375
:100AB0000A52C1F3130140F2FF3341F480119A420C
:100AC00002DA00200146704740F233439A42A2F214
:100AD000334202DC5242FFF756BEFFF745BE00002C
:100AE00030B5002904DB4FF00044404264EB0101C3
:100AF000002B04DB4FF00044524264EB03039942A5
:100B000008BF904230BD0000064C074D06E0E0688B
:100B100040F0010394E8070098471034AC42F6D344
:100B2000FFF7D8FA6C1F00008C1F0000202A06DB9C
:100B3000CB17203A41FA02F043EAE07306E041FAAB
:100B400002F3D040C2F12002914008431946704799
:100B500010B5002B08DA401C41F1000192185B41EE
:100B60001A4301D120F0010010BD2DE9FF4D93463D
:100B700011B1B1FA81F202E0B0FA80F2203292466D
:100B8000FFF7F2FD039A0746884640EA0B0011433F
:100B90005B46084304D13846414604B0BDE8F08DB9
:100BA000114653EA010016D0CAF140025846FFF739
:100BB000EAFD04460D464FF0010658465246039999
:100BC000FFF7D2FD084300D10026344345EAE6751D
:100BD000274345EA08080E984FF00005A0EB0A01EC
:100BE0004FEAD7200A314FEA47532A4640EA485095
:100BF0004FEAD82402D500200146CEE7281844EB5E
:100C00000151DDE90C45001904B06941BDE8F04D22
:100C10009EE700000FB4084B10B504A902AA039880
:100C200000F0E8F8044602A90020FFF762FB204626
:100C300010BC5DF814FB0000F302000002E008C8DD
:100C4000121F08C1002AFAD17047002001E001C13B
:100C5000121F002AFBD170472DE9FF5FDDE902106A
:100C6000020DDDF838B001430FD10F9801244AA3DB
:100C7000012807D000980F9AC0E90031C0E902426C
:100C8000BDE8FF9F6FEA0B01F4E7A2F2FF3244F6E2
:100C90001050424315140F9801280FD0A5EB0B00FC
:100CA000401CB0F1000A4FF000043C4EDFF8F09019
:100CB000A046CAF1000717DB074615E0CBF100009C
:100CC000EFE7F80707D02246334640464946FFF78C
:100CD0000FFE804689462246334610461946FFF7E6
:100CE00007FE04460E467F10002FEAD1DDE902011F
:100CF000BAF1000F42464B4602DAFFF7F9FD01E078
:100D0000FFF766FE04460E460022264BFFF7E8FE7C
:100D100003D84FF0FF30014607E00022224B204667
:100D20003146FFF740FDFFF7C2FE102409E0002C1A
:100D30000ADB0A220023FFF791FA019B30321A5591
:100D4000641E50EA0102F2D1641C019AC4F111033D
:100D500014440F9A012A07D00122084301D15B45B0
:100D60000DDD00226D1C0DE0084303D1A3EB0B0544
:100D70006D1E09E000204FF0110B0F908BE701DA98
:100D800000226D1E002A86D000980F99C0E902311A
:100D9000C0E9004574E70000300000000000244076
:100DA0000000F03F0000F0430000E03F10B5002AD3
:100DB00006DA22F00042D21D22F00703102203E0DF
:100DC000D21C22F003030C2213B19C188C4201D9CF
:100DD000012010BD024401448360C0E90021C91A0A
:100DE000D018884202D810600246F9E7002010604F
:100DF00010BD00002DE9FF4F95B006469B46894681
:100E0000002521E2252801D01799A6E00024F94900
:100E10002746761C4FF0010A05943278203A0AFAE8
:100E200002F0084202D00443761CF6E730782A2804
:100E300011D06FF02F023078A0F13001092916D8B7
:100E4000059944F0020401EB810102EB41010844E1
:100E5000761C0590EFE759F8041B0591002903DA89
:100E6000484244F40054059044F00204761C307863
:100E70002E2816D116F8010F44F004042A280DD0AC
:100E80006FF02F013078A0F13002092A09D807EB62
:100E9000870201EB42028718761CF3E759F8047BBE
:100EA000761C30786C280FD006DC4C2817D06828C8
:100EB0000DD06A2814D104E0742810D07A280FD1FC
:100EC0000DE044F400140AE044F4801401E044F41A
:100ED00040147178814202D1761C04F58014761C8E
:100EE00096F800C0BCF1660F10D01ADCBCF1580FA8
:100EF00070D00CDCBCF1000F6DD0BCF1450FF3D00D
:100F0000BCF1460FF0D0BCF1470F24D1A4E1BCF1F5
:100F1000630F40D0BCF1640F74D0BCF1650F1AD1DF
:100F20009AE1BCF1700F6ED00CDCBCF1670FEDD014
:100F3000BCF1690F75D0BCF16E0F12D0BCF16F0F10
:100F400009D1B3E0BCF1730F2FD0BCF1750F76D08F
:100F5000BCF1780F74D0179960465A4690476D1CC3
:100F600070E1C4F30250022809D003280DD0D9F84B
:100F7000001004280DD00D6009F1040962E1D9F8D0
:100F80000010EA17C1E90052F6E7D9F800100D8009
:100F9000F2E70D70F0E759F8041B8DF800100020FF
:100FA0008DF80100EA46012003E059F804AB4FF048
:100FB000FF3061074FF0000102D40FE008F101019A
:100FC0008846B94211DA8045F8DB1AF80810002982
:100FD000F4D10AE05DE03BE108F10101884681427D
:100FE000FADB1AF808100029F6D105985B46A0EB49
:100FF000080721463846179A00F08FFA284400EB7C
:10100000080506E00DE049E01AF8010B5A46179969
:101010009047B8F10108F7D25B4621463846179A47
:101020000DE10A20C4F302524FF0000A0090022A98
:1010300007D059F8040BC117032A0AD00BE024E0AB
:1010400025E009F1070020F00702F2E802019146CD
:1010500005E000B2C117042A01D140B2C11700292E
:1010600006DA0A460021404261EB02012D2202E02D
:10107000220504D52B228DF80420012203E0E2078B
:1010800001D02022F7E7904654E00A200FE010201C
:101090000DE010214FF0000A00910BE010214FF0FD
:1010A000000A44F004040827009103E008204FF0F0
:1010B000000A0090C4F30252022A05D059F8040B2A
:1010C0000021032A08D009E009F1070020F00702F7
:1010D000F2E80201914605E080B20021042A01D124
:1010E000C0B200214FF00008220723D5BCF1700FD9
:1010F00029D0009B83F0100353EA0A0309D150EA78
:10110000010206D030228DF804208DF805C002229D
:101110009046009B83F0080353EA0A030AD150EA81
:10112000010201D1620705D530228DF804204FF06D
:1011300001087F1E30A2BCF1580F00D033A20392E9
:101140000EAA02920FE040228DF804200122DFE770
:101150005346009AFFF782F8039B9B5C029AA2F128
:1011600001020292137050EA0102F1D1029806A91D
:10117000A1EB000000F1200A600702D524F48034BE
:1011800000E0012700205146574501DDA7EB010093
:1011900000EB0A01009005984144A0EB0100059086
:1011A000E00306D45B462146179A059800F0B5F98E
:1011B0000544002706E001A85A46C05D17999047EC
:1011C0006D1C7F1C4745F6DBE0030CD55B462146D2
:1011D000179A059800F0A1F9054404E030205A461A
:1011E000179990476D1C0099481E00900029F5DC66
:1011F0001FE0000009280100303132333435363722
:101200003839414243444546000000003031323312
:101210003435363738396162636465660000000032
:10122000029802995A460078491C029117999047F2
:101230006D1CBAF10001AAF1010AF1DC4EE100F0E7
:1012400059F9054406F10106307800287FF4DAAD3B
:1012500019B02846BDE8F08F600700D4062709F1D1
:10126000070020F00700F0E80228814608F000435C
:101270009DA0190007D19DA0210504D49CA0E107E1
:1012800001D1AFF27C0028F000431490BCF1650F4F
:1012900011D009DCBCF1450F0DD0BCF1460F1FD0B9
:1012A000BCF1470F3FD13FE0BCF1660F18D0BCF155
:1012B000670F7FD138E000211120112F00DA781C50
:1012C000CDE9000106A90EA8FFF7C6FCDDE90F0174
:1012D0000E9A03910021009207F1010A04914DE05A
:1012E0004FF000400097CDE901A006A90EA8FFF736
:1012F000B3FCDDE91020DDE90E3103920022DDF8B8
:101300000CA00093049218B907F1010001EB000A48
:10131000B7EB0A0004D4C0F1FF3007F1010A0490D2
:10132000AAEB0700019045E0012F00DA0127002118
:101330001120112F00DC3846CDE9000106A90EA8C6
:10134000FFF78AFCDDE90F010E9A03910021049159
:101350000092BA4621070CD40399B94200DA8A46B2
:10136000BAF1010F05DD009AAAF10101515C3029A3
:1013700008D0B84202DA10F1040F06DA0121CDE9F3
:10138000011017E0AAF10101E9E7002805DC049942
:1013900001440491AAEB000102E0411C514500DD2B
:1013A0008A460499A0EB010000F1010001904FF082
:1013B00000400290200705D40198504502DB4FF011
:1013C000FF30019000208DF84F0002980DF14F077B
:1013D000B0F1004F25D02B200E9002984FF002085C
:1013E00000280CDA404202902D200E9007E00A21DE
:1013F0000298FFF7A3F93031029007F8011DB8F108
:101400000001A8F10108F2DC02980028EFD1791E52
:101410000E980870307800F0200040F0450007F882
:10142000020D12A8A0EB070000F10708149800783D
:1014300000B1012000EB0A01019801EBE071059871
:101440004144A0EB0100A0F101000590E00306D4A7
:101450005B462146179A059800F05FF805441498FA
:10146000007820B15A461799904705F10105E0032D
:1014700023D55B462146179A059800F04EF805449F
:101480001BE00498002807DBDDE90301884203DD47
:101490000098405C179901E0179930205A46904710
:1014A00004986D1C401C04900198401E019004D1CA
:1014B0002E205A46179990476D1CBAF10001AAF1E7
:1014C000010ADEDC05E017F8010B5A461799904730
:1014D0006D1CB8F10001A8F10108F4DC5B4621465F
:1014E000179A0598ABE600002D0000002B000000C5
:1014F000200000002DE9F0410446002517461E4655
:10150000880405D406E039462020B04705F10105DE
:10151000641EF8D52846BDE8F0812DE9F041044667
:101520000025302790461E46C80300D42027880493
:1015300005D506E041463846B04705F10105641E71
:10154000F8D52846BDE8F08108480068C0010CD5F0
:101550004FF06040D0F8801EC90706D0D0F8000ECA
:10156000002802DA0249012008707047FCED00E013
:101570001E0000104FF06042D36F002BFCD0C36AF6
:10158000D367D36F002BFCD0C07840EA0120A2F8CB
:101590007C0070474FF06041CA6F002AFCD081F890
:1015A0007C0070474FEA000151E8000F28B1036842
:1015B00041E80032002AF7D17047BFF32F8F704700
:1015C00070B50D46002812D04FF6FF71084C8842C6
:1015D00004D222680146104600F06EFA2068457079
:1015E000044800F09FF8BDE8704000F007BB70BDF4
:1015F00014000010C012001070B51A4DE8680028E1
:101600002ED0A88A401EA882002623E0A06838B108
:1016100061684160606810B1A16881606660A66021
:1016200010482146183800F06BFAA08AA88260782A
:10163000042804D10C49E08A09880844A0820120CA
:10164000607084F82000E068E860E06808B1056137
:10165000E6602661A88A002802D1EC68002CD5D16A
:1016600070BD0000D81200101C00001070B50400FE
:101670000FD00D4DA17801262868827891420CD9AF
:1016800000F05AFA286846702046BDE8704000F025
:10169000B5BA064800F046F8F7E766702146BDE89F
:1016A0007040024800F02CBA14000010C012001064
:1016B0000321FFF785BF000010B50446008B0843E7
:1016C00020836278618B062A16D0052A17D108423A
:1016D00015D001EA0002628388432083204600F08F
:1016E00035FA01206070022084F820002146BDE810
:1016F0001040034800F004BA31EA0002ECD010BDFB
:10170000C0120010814202D342688A4201D20120F5
:10171000704750E8002F0A6040E80012002AF8D114
:10172000002070470146406842684A600B780022FA
:10173000022B05D0012B03D0032B01D04260704750
:1017400043680BB199604260826070470649074B5D
:1017500048681B6882789B789A4202D142684A6046
:101760007047002070470000C012001014000010E5
:1017700070B5044600201546207001226270A170E9
:101780006060A060E0602061A082E08220836083CE
:1017900084F8200084F82100608C18B90448FFF711
:1017A00001FFA06229462046BDE8704000F002B863
:1017B000E001001010B5428C920803D10F4A126864
:1017C000C2F38D02836A03EB8202530700D5121F16
:1017D000403A4FF08073C2E90E1300234FEA03042E
:1017E00042F823405B1C0E2BFAD3C369136242629A
:1017F000C162806A0249016010BD00004C1F0000F8
:10180000A52E5AE20122027000224270426002813B
:101810004281103982818908C18170472DE9F041E8
:1018200004460F464168002004F10C0621B161789E
:1018300002291AD0A189A9B3A189E289914246D28D
:10184000218904EB81010F61D6E85F1F491CC6E8BE
:10185000521F002AF8D12189491C89B22181E289CD
:10186000914200D12081BDE8F0810746607020469A
:10187000FFF758FF80F820702189054604EB8101AD
:10188000C0690861D6E85F0F401CC6E8510F002907
:10189000F8D12089401C80B22081E18988420BD197
:1018A000278109E0FFE72046FFF73CFF0546C069B6
:1018B0000421076085F8201001206870284600F098
:1018C00045F92946BDE8F041034800F019B9BDE8E3
:1018D000F0410320FEF7ACBCC01200102DE9F0412E
:1018E0000C4617468289254D4168002601B152B148
:1018F000C3899A4229D1C7B1204A1268C1B11146A1
:1019000000F0FEF81AE0FFF70DFF0746C06904601B
:10191000042087F82000384600F018F93846FFF711
:10192000A5FE286880F8206025E00120BDE8F08150
:1019300042602968C1E901600121417028680821DD
:10194000C4613846FFF73CFEEFE7018900EB8101F7
:101950000C6100F10C0100BFD1E85F2F521CC1E8FF
:10196000532F002BF8D10189491C89B20181C2890A
:10197000914200D106810020D8E700001400001039
:101980002DE9F04104468089294F0E4690460025F6
:10199000B0B3608904EB8000006908606089401C76
:1019A00080B26081E189884200D165816068E0B1E0
:1019B0002046FFF7B7FE80F820502189064604EB49
:1019C0008101C06908612089401C80B22081E189C1
:1019D000884200D12581304600F0B8F83046FFF744
:1019E00045FE386880F8205007E00C34D4E85F0FDB
:1019F000401EC4E8510F0029F8D10020BDE8F08155
:101A0000FFE73AB10A496068096828B1204600F04A
:101A100077F805E00120F1E761603868C0E901541A
:101A200008214046FFF7CCFD3868C661F2E70000A8
:101A30001400001070B51C4801210068417000F0CE
:101A40007BF81A491A4D002048706C7817E000BFE7
:101A500005EBC40148680278E2B1012A1FD000F00A
:101A6000A1F8E878641C844200D100241048801C4E
:101A7000D0E84F1F491EC0E8421F002AF8D1A878BD
:101A80000028E5D16C700B48FFF74CFEBDE87040B4
:101A900000F0B4B8896889B2FFF70EFEE1E7896803
:101AA000FFF7BCFEDDE70000140000101F0000106F
:101AB000F0110010C0120010104A10B5D368ABB17D
:101AC00013469B8A03E08CB12246A48A2344D4683F
:101AD0008B42F8D3C460D0600261C46804B1206155
:101AE000591A8182908A401A908210BD0024C460E5
:101AF000D060C91A02619182848210BDD812001090
:101B000030B502780023022A03D0012A01D0032A2B
:101B100000D101238C7800E01046426812B195781C
:101B2000A542F9D24A6041601BB102B19160886060
:101B300030BD0020FBE7000003494A6842600022F4
:101B40008260486070470000C012001010B5016943
:101B500000290ED0C268CA60C36800223BB18B8ADC
:101B6000848A23448B82C3681961C26000E08A8240
:101B7000026110BD816839B142684A60416800293C
:101B800001D0806888607047054906E04A68824253
:101B900002D140684860704711460029F6D170476D
:101BA000C012001010B5416879B1FFF7BBFD0446C3
:101BB000FFF7CCFF01206070032084F8200021464D
:101BC000BDE810400348FFF79BBF4188491C418096
:101BD00010BD0000C012001006480068D0E90910CE
:101BE000814203D300680449884202D00120FEF7F5
:101BF0001FBB704714000010A52E5AE207490222AD
:101C000048604270064A1278002A05D006C98A4206
:101C100002D0C078FFF7BEBC70470000140000106F
:101C20001E0000102DE9F04105460E469046FFF7D4
:101C30008BFC00200446384A384902E042F8204034
:101C4000401C0B889842F9D335483022018835482A
:101C5000FFF7ACF83448006880B240F000423348E7
:101C600001683348FFF7A2F8324808220188324859
:101C70000068FFF79BF8314FFF20314AF8707C84F1
:101C800000213846FFF774FD2E480421017044609E
:101C90002D480170C46004618482786A2030FEF7A8
:101CA0001FFA2A482B494FF0E02207600220787083
:101CB0002748047044700978C17027480068506153
:101CC000946107201061D2F8200D24490843C2F81E
:101CD000200DD2F8200DD2F80C1D00F07F40C0433B
:101CE000B0FA80F0C0F10800C1F30221814200DBAC
:101CF000481CD2F81C3D6FF08071814063F31701DE
:101D0000C2F81C1DFEF795FA424631462846BDE84A
:101D1000F041002300F062B874120010481F000068
:101D2000601F0000800000104C1F0000641F0000B6
:101D3000E00100106A1F00000C000010901200105B
:101D40002D020000C0120010D81200101400001064
:101D5000F0110010681F0000501F00000000FFFF7E
:101D60000B4810B5006801214170FFF7E5FEFEF752
:101D700061FA08490888401C0880FFF73DFC00F024
:101D80000DF80548FFF7CEFCBDE81040FFF736BF61
:101D9000140000101C000010C012001070B50D4C93
:101DA0002068002815D0A0880B4E401EA0800AE0B5
:101DB000E888FEF73CFAA888A080286820602946B9
:101DC0003068FFF79FFCA088002802D12568002D0D
:101DD000EED170BD240000100C0000102DE9F04180
:101DE000804616461F460C4611F0FF0F00D14C1CD2
:101DF0001948FFF7D7FB05002BD0200AAE62688494
:101E0000E1B242462846EF61FFF7B2FC01241348D5
:101E1000134905E000EB840252F8042C22B1641C43
:101E20000A889442F6D9002400EB8400E6B240F818
:101E3000045C0C48EE70007818B101212846FFF7C9
:101E400099FB2846FFF712FC0748006880F82060DD
:101E50002046BDE8F08100008000001074120010E0
:101E6000481F00001E000010140000102DE9F04172
:101E7000244C234E244B22680025D17808B181429E
:101E800018D103EB8100557040F8045C1F48916A3B
:101E9000FFF738FC20688562317811B10021FFF727
:101EA00069FB1B482168FFF72DFC00202560FFF728
:101EB000DDFB1FE01749098888421ED803EB800725
:101EC00057F8044CCCB12046FFF754FE2046FFF7EC
:101ED0003DFE47F8045C0D48A16AFFF713FCA562BC
:101EE000307818B100212046FFF744FB214608480E
:101EF000FFF708FC0020BDE8F081FF20FBE70000B1
:101F00001E0000101400001074120010E0010010F8
:101F100080000010481F000070B5FFF717FC040098
:101F20000CD0074D07482968FFF7EAFD2968012012
:101F300048702046BDE87040FFF760BE70BD0000ED
:101F400014000010C0120010070000000002000181
:101F50003F420F00000000001027000000000000BA
:101F60005C01000010100000100000008C1F000039
:101F7000000000102C0000003C0C0000B81F000006
:101F80002C000010C41400004A0C000000000000E7
:101F900000000000000000000000000000E1F50566
:101FA0000000000000000000000000000000000031
:081FB000000000000000000029
:04000005000000CD2A
:00000001FF
