:020000040000FA
:10000000D014001039020000410200004302000039
:100010004502000047020000490200000000000005
:10002000000000000000000000000000450100008A
:100030004D02000000000000D50100002102000078
:10004000530200005302000053020000530200005C
:10005000530200005302000053020000530200004C
:10006000530200005302000053020000530200003C
:10007000530200005302000053020000530200002C
:10008000530200005302000053020000530200001C
:10009000530200005302000053020000530200000C
:1000A00053020000530200005302000053020000FC
:1000B00053020000530200005302000053020000EC
:1000C000530200005302000053020000DFF80CD07E
:1000D00000F072FB00480047CF040000D01400106D
:1000E00080F309887047684680F3098804480078DF
:1000F000C00714BF0220032080F31488704700005B
:10010000FA020000DFF818C0EFF305831B0618BFE2
:100110006047EFF31483DB0708BF604700DF7047D9
:10012000110A0000DFF818C0EFF305831B0618BFA3
:100130006047EFF31483DB0708BF604700DF7047B9
:10014000690B0000EFF30980816931F8021C31F47A
:100150007F4128D190E80F10E047EFF3098C1A4B4C
:1001600093E80600914219D00CB44FF00103002926
:100170001FBF81F821302CE9F00FC1F824C000F036
:10018000D3FE0CBC1A60D2F824C0BCE8F00F92F881
:1001900021308CF309881BB192F82000CCF80000C4
:1001A0006FF0020E704710B5084A1268914209D8E4
:1001B000074C54F8214090E80F10A047EFF3098C4A
:1001C0008CE80F0010BD000034000010E4020000B5
:1001D000E402000000F096FD134B93E80600914204
:1001E0001BD00CB44FF0000381F82130EFF3098CE1
:1001F0002CE9F00FC1F824C000F096FE0CBC1A6088
:10020000D2F824C0BCE8F00F8CF3098892F82130B2
:100210001BB192F82030CCF800306FF0020E70471E
:1002200000F046FFD8E7000034000010FEE77047FA
:10023000FEE77047704700000648804706480047C1
:10024000FEE7FEE7FEE7FEE7FEE7FEE7FEE7FEE786
:10025000FEE7FEE76F060000CD0000002DE9F05F2D
:100260000546002092469B46884606468146402425
:100270001BE0284641464746224600F08CFA52468B
:100280005B46801A994110D310461946224600F069
:1002900073FA2D1A67EB01084F4622460120002110
:1002A00000F06AFA17EB00094E41201EA4F1010488
:1002B000DFDC484631462A464346BDE8F09F40EA27
:1002C00001039B0703D009E008C9121F08C0042AD4
:1002D000FAD203E011F8013B00F8013B521EF9D2BB
:1002E000704700000000000002E008C8121F08C1AB
:1002F000002AFAD17047704707000010FFFFFFFF88
:1003000010B500217F4A04E0147DA406FCD51370CB
:10031000491C435C002BF7D110BD90B040227AA15C
:100320006846FFF7CCFF884EDFF82082884C4FF6F6
:10033000FF7700254FF470694FF0F00A8448394682
:100340001430DFF810C200DF226892B182A1874822
:1003500000F044FA8548FFF7D3FF2068401E206074
:100360006846FFF7CDFF7A48DFF804C21C3000DF93
:100370000DE06068DFF8F8C1401C6060744814301C
:1003800000DF734839462430DFF8C8C100DFC6F803
:100390001C90C6F818A028464146A560401C88421B
:1003A000FCD3A060CAE792B0442272496846FFF7C6
:1003B00086FF654EDFF89481654C4FF6FF77002588
:1003C0004FF0F0094FF4706A614839461430DFF895
:1003D00084C100DF626892B167A1644800F0FEF951
:1003E0006248FFF78DFF6068401E60606846FFF757
:1003F00087FF5748DFF878C1243000DF0DE0206820
:10040000DFF86CC1401C20605148143000DF5048B8
:1004100039461C30DFF83CC100DFC6F81C90C6F836
:1004200018A028464146A560401C8842FCD3A06025
:100430004748DFF83CC1143000DFC5E744480121DC
:100440001430DFF84CC100DF414800211C30DFF8D8
:1004500040C100DF3E4800212430DFF834C100DF16
:1004600000231A460121AFF2C100DFF828C100DFE6
:10047000374C00231A460121E060AFF26110DFF82B
:1004800014C100DF20610020DFF80CC100DF434809
:10049000016841F0080101604148016821F0F00164
:1004A0000160016841F05001016016484FF083017E
:1004B00001734FF0000101714FF0A20101704FF084
:1004C000030101734FF00702027241607047344824
:1004D00010B50168334A114001601B48016841F4BE
:1004E0007F610160110D8161FFF7D1FFFFF7FBFD17
:1004F00000220A21AFF2BB00DFF8ACC000DF002011
:1005000010BD000000C0004044656372656D656EFB
:1005100074732061206C6561646572732C2073694B
:10052000676E616C732061206C6561646572206127
:100530006E64207468656E20696E766F6B657320DB
:1005400064616E63650D000000C0092080F0FA024E
:1005500000000010ED0E00006C6561646572732090
:1005600077616974696E673A25640D004C0000106C
:10057000B50E000068120000666F6C6C6F776572D4
:100580002077616974696E673A25640D0000000088
:10059000750E00002D110000BD110000C4C00F40F9
:1005A00000C00240FF0000FF750F000070B55F4CF7
:1005B000D4F888005E4D6FEA10608007D4F80C0113
:1005C00000F003000CD028B1012841D0022845D00A
:1005D00003282DD1D4F804015649C0B2401C43E091
:1005E00028B101280ED0022823D0032820D154F8A6
:1005F000880FC0F307422068521CC0F30E00401C55
:100600004D4909E054F8880FC0F307422068521C96
:10061000C0F30E004949401CA0FB01010023FFF775
:100620001DFEE26F0023D2B2521CFFF717FE2860B6
:1006300070BD54F8880FC0F307422068521CC0F305
:100640000E000021401C090441EA10410004E5E7C6
:10065000D4F804013A49C0B2401C05E0D4F80401C2
:100660004FF40041C0B2401CB1FBF0F0DFE770B5C1
:100670002E482021C0F8A011D0F8A011890603D57A
:10068000D0F8A0114906FBD500F180000323C0F883
:1006900084304FF00005C0F82851C0F82C514FF0BD
:1006A0000104C0F88C40274941604FF0AA01C160A5
:1006B0004FF05502C2600460C160C260A0F18000CA
:1006C000D0F888607601FBD540F8803FC160C260F9
:1006D000A0F18000D0F8886016F0407FFAD000F1D9
:1006E000A00023264660C160C2600460C160C26091
:1006F000A0F1A000D0F8A8406405FBD540F8A03FC9
:10070000C160C260A0F1A000D0F8A81011F4407F31
:10071000FAD00D49C0F8C410C0F8C851016821F4DE
:10072000704141F48041016070BD000000C00F4085
:100730003000001000093D0000127A0000366E0102
:10074000001BB70063000500DE87280430B50B46A8
:10075000014600202022012409E021FA02F59D42F1
:1007600005D303FA02F5491B04FA02F52844151EC5
:10077000A2F10102F1DC30BD202A04DB203A00FAAC
:1007800002F1002070479140C2F1200320FA03F3E8
:10079000194390407047202A04DB203A21FA02F0E6
:1007A0000021704721FA02F3D040C2F120029140AB
:1007B0000843194670470000064C074D06E0E06804
:1007C00040F0010394E8070098471034AC42F6D398
:1007D000FFF780FCC8120000E81200000FB4084BBD
:1007E00010B504A902AA039800F036F8044602A93D
:1007F000002000F0D9F8204610BC5DF814FB000082
:10080000A9090000002001E001C1121F002AFBD14C
:10081000704710B5002A06DA22F00042D21D22F0FD
:100820000703102203E0D21C22F003030C2213B1B1
:100830009C188C4201D9012010BD02440144836000
:10084000C0E90021C91AD018884202D810600246B7
:10085000F9E70020106010BD2DE9FF4F89B0044674
:100860009B46002596E0252833D10027641C4D4A7D
:10087000B84601212378203B01FA03F0104202D050
:100880000743641CF6E720782E2819D114F8010FCD
:1008900047F004072A280ED06FF02F022078A0F12D
:1008A000300109290CD808EB880102EB410100EB6B
:1008B0000108641CF2E70A98641C50F8048B0A9043
:1008C000207800286AD0642808D0692806D07528C6
:1008D0001FD05A460B9990476D1C5AE00A994FF069
:1008E0000A0901C90A91002804DAC0F100004FF09A
:1008F0002D0102E0390504D52B218DF820100121AE
:1009000004E0F90701D02021F7E700218A4608AE6C
:100910000CE00A994FF00A0901C90A91F5E7494626
:10092000FFF714FF01F1300106F8011D0028F6D190
:10093000ADEB060000F12009780701D44FF0010863
:10094000002041464A46C84500DD881A80460027F7
:1009500006E008A85A46C05D0B9990476D1C7F1CA5
:100960005745F6DB04E030205A460B9990476D1C42
:10097000B8F10001A8F10108F5DC05E016F8010B5B
:100980005A460B9990476D1CB9F10001A9F1010974
:10099000F4DC641C207800287FF465AF0DB0284695
:1009A000BDE8F08F092801000A68531C0B60107025
:1009B0007047000008480068C0010CD54FF0604047
:1009C000D0F8801EC90706D0D0F8000E002802DA41
:1009D0000249012008707047FCED00E03C00001067
:1009E0004FF06042D36F002BFCD0C36AD367D36F44
:1009F000002BFCD0C07840EA0120A2F87C007047B0
:100A00004FF06041CA6F002AFCD081F87C0070472B
:100A10004FEA000151E8000F28B1036841E80032B5
:100A2000002AF7D17047BFF32F8F704770B50D467E
:100A3000002812D04FF6FF71084C884204D2226879
:100A40000146104600F0A0F920684570044800F007
:100A50009BF8BDE8704000F079BA70BD340000101A
:100A6000A012001070B51A4DE86800282ED0A88A90
:100A7000401EA882002623E0A06838B1616841606A
:100A8000606810B1A16881606660A6601048214668
:100A9000183800F09DF9A08AA8826078042804D153
:100AA0000C49E08A09880844A0820120607084F81B
:100AB0002000E068E860E06808B10561E660266152
:100AC000A88A002802D1EC68002CD5D170BD0000A6
:100AD000B81200104000001070B504000FD00D4D8A
:100AE000A17801262868827891420CD900F08CF90F
:100AF000286846702046BDE8704000F027BA0648D6
:100B000000F042F8F7E766702146BDE87040024801
:100B100000F05EB934000010A012001010B50446B9
:100B2000008B084320836278618B062A16D0052A41
:100B300017D1084215D001EA00026283884320835E
:100B4000204600F06BF901206070022084F820003C
:100B50002146BDE81040034800F03AB931EA0002EE
:100B6000ECD010BDA0120010814202D342688A422C
:100B700001D20120704750E8002F0A6040E80012BF
:100B8000002AF8D1002070470146406842684A6058
:100B90000B780022022B05D0012B03D0032B01D0B0
:100BA0004260704743680BB1996042608260704751
:100BB00070B5044600201546207001226270A170B5
:100BC0006060A060E0602061A082E082208360839A
:100BD00084F8200084F82100608C18B90448FFF7DD
:100BE00017FFA06229462046BDE8704000F002B819
:100BF000C001001010B5428C920803D10F4A126850
:100C0000C2F38D02836A03EB8202530700D5121FE1
:100C1000403A4FF08073C2E90E1300234FEA0304F9
:100C200042F823405B1C0E2BFAD3C3691362426265
:100C3000C162806A0249016010BD0000AC12000070
:100C4000A52E5AE22DE9F04104460F4641680020E6
:100C500004F10C0621B1617802291AD0A189A9B347
:100C6000A189E289914246D2218904EB81010F6179
:100C7000D6E85F1F491CC6E8521F002AF8D1218917
:100C8000491C89B22181E289914200D12081BDE8CD
:100C9000F081074660702046FFF776FF80F82070ED
:100CA0002189054604EB8101C0690861D6E85F0F20
:100CB000401CC6E8510F0029F8D12089401C80B2A1
:100CC0002081E18988420BD1278109E0FFE7204696
:100CD000FFF75AFF0546C0690421076085F8201018
:100CE00001206870284600F099F82946BDE8F041D7
:100CF000034800F06DB8BDE8F0410320FFF798BA53
:100D0000A012001070B51C4801210068417000F06D
:100D10007BF81A491A4D002048706C7817E000BF24
:100D200005EBC40148680278E2B1012A1FD000F047
:100D3000A7F8E878641C844200D100241048801C85
:100D4000D0E84F1F491EC0E8421F002AF8D1A878FA
:100D50000028E5D16C700B48FFF716FFBDE8704026
:100D600000F0F4B8896889B2FFF7D8FEE1E7896836
:100D7000FFF768FFDDE70000340000103D000010C1
:100D8000D0110010A0120010104A10B5D368ABB1FA
:100D900013469B8A03E08CB12246A48A2344D4687C
:100DA0008B42F8D3C460D0600261C46804B1206192
:100DB000591A8182908A401A908210BD0024C46022
:100DC000D060C91A02619182848210BDB8120010ED
:100DD00030B502780023022A03D0012A01D0032A69
:100DE00000D101238C7800E01046426812B195785A
:100DF000A542F9D24A6041601BB102B1916088609E
:100E000030BD0020FBE7000003494A684260002231
:100E10008260486070470000A012001010B50169A0
:100E200000290ED0C268CA60C36800223BB18B8A19
:100E3000848A23448B82C3681961C26000E08A827D
:100E4000026110BD816839B142684A604168002979
:100E500001D0806888607047054906E04A68824290
:100E600002D140684860704711460029F6D17047AA
:100E7000A0120010022202700022426041807047DE
:100E800010B5416879B1FFF77FFE0446FFF7C6FF52
:100E900001206070032084F820002146BDE8104046
:100EA0000348FFF795BF4188491C418010BD0000F1
:100EB000A012001010B5416889B1FFF765FE044625
:100EC000032084F820002046FFF7A8FF2046FFF704
:100ED00003FE05490020096881F8200002E04188EE
:100EE000491C4180002010BD3400001010B542881C
:100EF0000C461AB1521E4280002010BD34B1094A7E
:100F00004368116823B1FFF763FF06E0012010BDBD
:100F1000416011680023C1E9013007212046FFF735
:100F200085FDF3E73400001006480068D0E9091099
:100F3000814203D300680449884202D00120FFF7B0
:100F400077B9704734000010A52E5AE207490222F3
:100F500048604270064A1278002A05D006C98A42C3
:100F600002D0C078FFF74CBD70470000340000107D
:100F70003C0000102DE9F04105460E469046FFF773
:100F800019FD00200446384A384902E042F8204062
:100F9000401C0B889842F9D33548302201883548E7
:100FA000FFF737FC3448006880B240F00042334815
:100FB00001683348FFF72DFC324808220188324887
:100FC0000068FFF726FC314FFF20314AF8707C841F
:100FD00000213846FFF7ECFD2E48042101704460E3
:100FE0002D480170C46004618482786A2030FFF764
:100FF00077F82A482B494FF0E022076002207870EA
:101000002748047044700978C1702748006850610F
:10101000946107201061D2F8200D24490843C2F8DA
:10102000200DD2F8200DD2F80C1D00F07F40C043F7
:10103000B0FA80F0C0F10800C1F30221814200DB68
:10104000481CD2F81C3D6FF08071814063F317019A
:10105000C2F81C1DFFF7EDF8424631462846BDE8B0
:10106000F041002300F062B854120010F8020000B2
:10107000BC12000060000010AC120000C0120000A2
:10108000C0010010C41200002C00001070120010EB
:101090002D020000A0120010B81200103400001041
:1010A000D0110010FB020000B01200000000FFFF92
:1010B0000B4810B5006801214170FFF7A5FEFFF74E
:1010C000B9F808490888401C0880FFF7CBFC00F0FD
:1010D0000DF80548FFF758FDBDE81040FFF736BF93
:1010E0003400001040000010A012001070B50D4C2C
:1010F0002068002815D0A0880B4E401EA0800AE072
:10110000E888FFF794F8A888A0802868206029461E
:101110003068FFF729FDA088002802D12568002D3E
:10112000EED170BD440000102C0000102DE9F041FC
:10113000804616461F460C4611F0FF0F00D14C1C8E
:101140001948FFF765FC05002BD0200AAE626884C1
:10115000E1B242462846EF61FFF72AFD0124134819
:10116000134905E000EB840252F8042C22B1641C00
:101170000A889442F6D9002400EB8400E6B240F8D5
:10118000045C0C48EE70007818B101212846FFF786
:1011900027FC2846FFF7A0FC0748006880F820607D
:1011A0002046BDE8F08100006000001054120010DD
:1011B000F80200003C000010340000102DE9F0415E
:1011C000244C234E244B22680025D17808B181425B
:1011D00018D103EB8100557040F8045C1F48916AF8
:1011E000FFF7C2FC20688562317811B10021FFF75A
:1011F000F7FB1B482168FFF7B7FC00202560FFF7CD
:101200006BFC1FE01749098888421ED803EB800752
:1012100057F8044CCCB12046FFF714FE2046FFF7E8
:10122000FDFD47F8045C0D48A16AFFF79DFCA5622F
:10123000307818B100212046FFF7D2FB214608483C
:10124000FFF792FC0020BDE8F081FF20FBE70000E3
:101250003C0000103400001054120010C0010010B7
:1012600060000010F802000044656372656D656EF1
:101270007473206120666F6C6C6F776572732C20BD
:101280007369676E616C73206120666F6C6C6F7739
:10129000657220616E64207468656E20696E766F79
:1012A0006B65732064616E63650D000000020001D0
:1012B0003F420F0010270000000000005C0100000A
:1012C0001010000000000000E812000000000010F4
:1012D0004C000000E8020000341300004C00001035
:1012E000841400000408000000000000000000005A
:1012F00000000000000000000000000000000000EE
:1013000000000000000000000000000000000000DD
:10131000000000000000000000E1F50500000000F2
:1013200000000000000000000000000000000000BD
:0413300000000000B9
:04000005000000CD2A
:00000001FF
