:020000040000FA
:10000000E00A0010A1040000A9040000AB040000F5
:10001000AD040000AF040000B104000000000000C7
:10002000000000000000000000000000450100008A
:10003000B504000000000000D5010000210200000E
:10004000BB040000BB040000BB040000BB040000B4
:10005000BB040000BB040000BB040000BB040000A4
:10006000BB040000BB040000BB040000BB04000094
:10007000BB040000BB040000BB040000BB04000084
:10008000BB040000BB040000BB040000BB04000074
:10009000BB040000BB040000BB040000BB04000064
:1000A000BB040000BB040000BB040000BB04000054
:1000B000BB040000BB040000BB040000BB04000044
:1000C000BB040000BB040000BB040000DFF80CD040
:1000D00000F048FA004800479B020000E00A0010C8
:1000E00080F309887047684680F3098804480078DF
:1000F000C00714BF0220032080F31488704700005B
:100100006C0E0000DFF818C0EFF305831B0618BF64
:100110006047EFF31483DB0708BF604700DF7047D9
:1001200049060000DFF818C0EFF305831B0618BF6F
:100130006047EFF31483DB0708BF604700DF7047B9
:10014000A1070000EFF30980816931F8021C31F446
:100150007F4128D190E80F10E047EFF3098C1A4B4C
:1001600093E80600914219D00CB44FF00103002926
:100170001FBF81F821302CE9F00FC1F824C000F036
:10018000D1FC0CBC1A60D2F824C0BCE8F00F92F885
:1001900021308CF309881BB192F82000CCF80000C4
:1001A0006FF0020E704710B5084A1268914209D8E4
:1001B000074C54F8214090E80F10A047EFF3098C4A
:1001C0008CE80F0010BD000018000010F4020000C1
:1001D000F402000000F0D4FB134B93E806009142B8
:1001E0001BD00CB44FF0000381F82130EFF3098CE1
:1001F0002CE9F00FC1F824C000F094FC0CBC1A608C
:10020000D2F824C0BCE8F00F8CF3098892F82130B2
:100210001BB192F82030CCF800306FF0020E70471E
:1002200000F044FDD8E70000180000106420DFF85B
:1002300098C000DF254C264E4FF08075DFF894C043
:1002400000DF6068401C6060F561F7E76420DFF85C
:1002500078C000DF1D4C1E4E4FF08075DFF874C073
:1002600000DF2068401C2060B561F7E700231A46D4
:100270000121AFF22700DFF860C000DF134C00233C
:100280001A460121A060AFF25B00DFF84CC000DF2E
:10029000E0600020DFF844C000DF114810B541687D
:1002A00021F4403141600A48016841F080710160E9
:1002B000FFF719FF00220A21AFF24F00DFF824C038
:1002C00000DF002010BD00007D08000000000010CD
:1002D00000C0092095080000290D0000B90D00009C
:1002E00000C00240710B0000FEE77047FEE7704758
:1002F000704700000000000070470700FFFFFFFF8D
:1003000070B55F4CD4F888005E4D6FEA10608007CE
:10031000D4F80C0100F003000CD028B1012841D022
:10032000022845D003282DD1D4F804015649C0B283
:10033000401C43E028B101280ED0022823D0032816
:1003400020D154F8880FC0F307422068521CC0F334
:100350000E00401C4D4909E054F8880FC0F30742D5
:100360002068521CC0F30E004949401CA0FB01014B
:10037000002300F0A7F8E26F0023D2B2521C00F075
:10038000A1F8286070BD54F8880FC0F307422068B8
:10039000521CC0F30E000021401C090441EA104128
:1003A0000004E5E7D4F804013A49C0B2401C05E076
:1003B000D4F804014FF40041C0B2401CB1FBF0F08E
:1003C000DFE770B52E482021C0F8A011D0F8A011A9
:1003D000890603D5D0F8A0114906FBD500F18000AD
:1003E0000323C0F884304FF00005C0F82851C0F84E
:1003F0002C514FF00104C0F88C40274941604FF068
:10040000AA01C1604FF05502C2600460C160C260C1
:10041000A0F18000D0F888607601FBD540F8803FDD
:10042000C160C260A0F18000D0F8886016F0407F03
:10043000FAD000F1A00023264660C160C2600460CB
:10044000C160C260A0F1A000D0F8A8406405FBD54F
:1004500040F8A03FC160C260A0F1A000D0F8A81091
:1004600011F4407FFAD00D49C0F8C410C0F8C8514B
:10047000016821F4704141F48041016070BD0000C9
:1004800000C00F401000001000093D0000127A006B
:1004900000366E01001BB70063000500DE872804EC
:1004A0000648804706480047FEE7FEE7FEE7FEE70E
:1004B000FEE7FEE7FEE7FEE7FEE7FEE7C303000018
:1004C000CD0000002DE9F05F0546002092469B46D6
:1004D00088460646814640241BE02846414647465A
:1004E000224600F02FF852465B46801A994110D3FD
:1004F00010461946224600F016F82D1A67EB01083F
:100500004F4622460120002100F00DF817EB0009AC
:100510004E41201EA4F10104DFDC484631462A4644
:100520004346BDE8F09F202A04DB203A00FA02F19E
:10053000002070479140C2F1200320FA03F31943D1
:1005400090407047202A04DB203A21FA02F0002173
:10055000704721FA02F3D040C2F1200291400843D3
:1005600019467047064C074D06E0E06840F001036D
:1005700094E8070098471034AC42F6D3FFF7AAFD81
:10058000840E0000A40E000002E008C8121F08C17B
:10059000002AFAD17047002001E001C1121F002A91
:1005A000FBD1704710B5002A06DA22F00042D21DB6
:1005B00022F00703102203E0D21C22F003030C22D6
:1005C00013B19C188C4201D9012010BD0244014492
:1005D0008360C0E90021C91AD018884202D810608F
:1005E0000246F9E70020106010BD000008480068CE
:1005F000C0010CD54FF06040D0F8801EC90706D06E
:10060000D0F8000E002802DA024901200870704775
:10061000FCED00E0220000104FF06042D36F002B91
:10062000FCD0C36AD367D36F002BFCD0C07840EAFC
:100630000120A2F87C0070474FF06041CA6F002A89
:10064000FCD081F87C0070474FEA000151E8000FB0
:1006500028B1036841E80032002AF7D17047BFF3A0
:100660002F8F704770B50D46002812D04FF6FF71DE
:10067000084C884204D222680146104600F0C2F9B4
:1006800020684570044800F09BF8BDE8704000F019
:100690005BBA70BD18000010B008001070B51A4D9C
:1006A000E86800282ED0A88A401EA882002623E0F1
:1006B000A06838B161684160606810B1A16881606C
:1006C0006660A66010482146183800F0BFF9A08A7D
:1006D000A8826078042804D10C49E08A098808447B
:1006E000A0820120607084F82000E068E860E06883
:1006F00008B10561E6602661A88A002802D1EC688D
:10070000002CD5D170BD0000C808001020000010DA
:1007100070B504000FD00D4DA178012628688278AD
:1007200091420CD900F0AEF9286846702046BDE829
:10073000704000F009BA064800F042F8F7E766702A
:100740002146BDE87040024800F080B91800001052
:10075000B008001010B50446008B0843208362786F
:10076000618B062A16D0052A17D1084215D001EA56
:100770000002628388432083204600F08DF9012027
:100780006070022084F820002146BDE81040034834
:1007900000F05CB931EA0002ECD010BDB0080010E6
:1007A000814202D342688A4201D20120704750E858
:1007B000002F0A6040E80012002AF8D1002070479C
:1007C0000146406842684A600B780022022B05D03F
:1007D000012B03D0032B01D04260704743680BB15B
:1007E000996042608260704770B5044600201546EB
:1007F000207001226270A1706060A060E0602061E2
:10080000A082E0822083608384F8200084F82100A5
:10081000608C18B90448FFF717FFA06229462046EC
:10082000BDE8704000F002B89001001010B5428C95
:10083000920803D10F4A1268C2F38D02836A03EB58
:100840008202530700D5121F403A4FF08073C2E96D
:100850000E1300234FEA030442F823405B1C0E2BC7
:10086000FAD3C36913624262C162806A02490160BD
:1008700010BD0000640E0000A52E5AE20349044A90
:100880000968C882128810448882704718000010D6
:10089000200000100848016808488A8A0088CB8A2E
:1008A000A2EB00001A4480B28A82010402D404211F
:1008B000FFF7D8BE7047000018000010200000109D
:1008C0002DE9F04104460F464168002004F10C0672
:1008D00021B1617802291AD0A189A9B3A189E2893D
:1008E000914246D2218904EB81010F61D6E85F1F56
:1008F000491CC6E8521F002AF8D12189491C89B237
:100900002181E289914200D12081BDE8F081074632
:1009100060702046FFF754FF80F82070218905465B
:1009200004EB8101C0690861D6E85F0F401CC6E88E
:10093000510F0029F8D12089401C80B22081E18923
:1009400088420BD1278109E0FFE72046FFF738FFF7
:100950000546C0690421076085F8201001206870F1
:10096000284600F099F82946BDE8F041034800F018
:100970006DB8BDE8F0410320FFF7B8BCB008001027
:1009800070B51C4801210068417000F07BF81A49DD
:100990001A4D002048706C7817E000BF05EBC401C9
:1009A00048680278E2B1012A1FD000F0A1F8E87887
:1009B000641C844200D100241048801CD0E84F1FE2
:1009C000491EC0E8421F002AF8D1A8780028E5D1C6
:1009D0006C700B48FFF7F4FEBDE8704000F0B4B84F
:1009E000896889B2FFF7B6FEE1E78968FFF768FF1B
:1009F000DDE700001800001023000010E0070010E1
:100A0000B0080010104A10B5D368ABB113469B8AEA
:100A100003E08CB12246A48A2344D4688B42F8D3E5
:100A2000C460D0600261C46804B12061591A818237
:100A3000908A401A908210BD0024C460D060C91A08
:100A400002619182848210BDC808001030B502781E
:100A50000023022A03D0012A01D0032A00D1012356
:100A60008C7800E01046426812B19578A542F9D220
:100A70004A6041601BB102B19160886030BD0020C6
:100A8000FBE7000003494A68426000228260486038
:100A900070470000B008001010B5016900290ED0A1
:100AA000C268CA60C36800223BB18B8A848A23442F
:100AB0008B82C3681961C26000E08A82026110BD46
:100AC000816839B142684A604168002901D0806874
:100AD00088607047054906E04A68824202D1406852
:100AE0004860704711460029F6D17047B0080010E1
:100AF00010B5416879B1FFF763FE0446FFF7CCFFFC
:100B000001206070032084F820002146BDE81040D9
:100B10000348FFF79BBF4188491C418010BD00007E
:100B2000B008001006480068D0E90910814203D3DC
:100B300000680449884202D00120FFF7D7BB704704
:100B400018000010A52E5AE20749022248604270A0
:100B5000064A1278002A05D006C98A4202D0C07817
:100B6000FFF76ABD70470000180000102200001057
:100B70002DE9F04105460E469046FFF737FD00206F
:100B80000446384A384902E042F82040401C0B88AD
:100B90009842F9D33548302201883548FFF702FDE5
:100BA0003448006880B240F000423348016833485E
:100BB000FFF7F8FC32480822018832480068FFF746
:100BC000F1FC314FFF20314AF8707C840021384617
:100BD000FFF70AFE2E480421017044602D48017081
:100BE000C46004618482786A2030FFF779FA2A4869
:100BF0002B494FF0E02207600220787027480470EC
:100C000044700978C17027480068506194610720DA
:100C10001061D2F8200D24490843C2F8200DD2F803
:100C2000200DD2F80C1D00F07F40C043B0FA80F0D8
:100C3000C0F10800C1F30221814200DB481CD2F858
:100C40001C3D6FF08071814063F31701C2F81C1DD9
:100C5000FFF74DFB424631462846BDE8F0410023F0
:100C600000F062B864080010FA020000780E00007C
:100C700030000010640E00007C0E00009001001097
:100C8000820E00001400001080080010E90200002D
:100C9000B0080010C808001018000010E00700108D
:100CA000800E0000680E00000000FFFF0B4810B52A
:100CB000006801214170FFF7E5FEFFF719FB0849C5
:100CC0000888401C0880FFF7E9FC00F00DF8054893
:100CD000FFF776FDBDE81040FFF736BF18000010A3
:100CE00020000010B008001070B50D4C20680028DE
:100CF00015D0A0880B4E401EA0800AE0E888FFF7C0
:100D0000F4FAA888A0802868206029463068FFF798
:100D100047FDA088002802D12568002DEED170BDC6
:100D200028000010140000102DE9F04180461646FE
:100D30001F460C4611F0FF0F00D14C1C1948FFF75D
:100D400083FC05002BD0200AAE626884E1B24246E3
:100D50002846EF61FFF748FD01241348134905E0D9
:100D600000EB840252F8042C22B1641C0A889442DD
:100D7000F6D9002400EB8400E6B240F8045C0C488D
:100D8000EE70007818B101212846FFF745FC28468F
:100D9000FFF7BEFC0748006880F820602046BDE8E9
:100DA000F08100003000001064080010FA0200001A
:100DB00022000010180000102DE9F041244C234EB1
:100DC000244B22680025D17808B1814218D103EB69
:100DD0008100557040F8045C1F48916AFFF7E0FC01
:100DE00020688562317811B10021FFF715FC1B489E
:100DF0002168FFF7D5FC00202560FFF789FC1FE084
:100E00001749098888421ED803EB800757F8044C1D
:100E1000CCB12046FFF754FE2046FFF73DFE47F8D1
:100E2000045C0D48A16AFFF7BBFCA562307818B1DD
:100E300000212046FFF7F0FB21460848FFF7B0FCF1
:100E40000020BDE8F081FF20FBE700002200001039
:100E5000180000106408001090010010300000100D
:100E6000FA020000C80000013F420F00000000002D
:100E700010270000000000005C0100005006000088
:100E800010000000A40E0000000000103000000060
:100E900088050000D40E000030000010B00A0000E9
:100EA00096050000000000000000000000000000A7
:100EB0000000000000E1F505000000000000000057
:100EC0000000000000000000000000000000000022
:040ED000000000001E
:04000005000000CD2A
:00000001FF
