:020000040000FA
:10000000F80A0010350200003D0200003F02000027
:100010004102000043020000450200000000000011
:10002000000000000000000000000000450100008A
:100030004902000000000000D5010000210200007C
:100040004F0200004F0200004F0200004F0200006C
:100050004F0200004F0200004F0200004F0200005C
:100060004F0200004F0200004F0200004F0200004C
:100070004F0200004F0200004F0200004F0200003C
:100080004F0200004F0200004F0200004F0200002C
:100090004F0200004F0200004F0200004F0200001C
:1000A0004F0200004F0200004F0200004F0200000C
:1000B0004F0200004F0200004F0200004F020000FC
:1000C0004F0200004F0200004F020000DFF80CD08A
:1000D00000F0BEFA00480047FF030000F80A0010D5
:1000E00080F309887047684680F3098804480078DF
:1000F000C00714BF0220032080F31488704700005B
:10010000C4100000DFF818C0EFF305831B0618BF0A
:100110006047EFF31483DB0708BF604700DF7047D9
:10012000A9080000DFF818C0EFF305831B0618BF0D
:100130006047EFF31483DB0708BF604700DF7047B9
:10014000110A0000EFF30980816931F8021C31F4D3
:100150007F4128D190E80F10E047EFF3098C1A4B4C
:1001600093E80600914219D00CB44FF00103002926
:100170001FBF81F821302CE9F00FC1F824C000F036
:10018000E1FD0CBC1A60D2F824C0BCE8F00F92F874
:1001900021308CF309881BB192F82000CCF80000C4
:1001A0006FF0020E704710B5084A1268914209D8E4
:1001B000074C54F8214090E80F10A047EFF3098C4A
:1001C0008CE80F0010BD000018000010E8020000CD
:1001D000E802000000F008FD134B93E8060091428E
:1001E0001BD00CB44FF0000381F82130EFF3098CE1
:1001F0002CE9F00FC1F824C000F0A4FD0CBC1A607B
:10020000D2F824C0BCE8F00F8CF3098892F82130B2
:100210001BB192F82030CCF800306FF0020E70471E
:1002200000F054FED8E7000018000010FEE7704709
:10023000FEE700000648804706480047FEE7FEE765
:10024000FEE7FEE7FEE7FEE7FEE7FEE7FEE7FEE786
:1002500033050000CD0000002DE9F05F05460020C9
:1002600092469B4688460646814640241BE0284627
:1002700041464746224600F0DAF952465B46801A6C
:10028000994110D310461946224600F0C1F92D1AA3
:1002900067EB01084F4622460120002100F0B8F923
:1002A00017EB00094E41201EA4F10104DFDC484693
:1002B00031462A464346BDE8F09F30B50B4601461D
:1002C00000202022012409E021FA02F59D4205D3F5
:1002D00003FA02F5491B04FA02F52844151EA2F19F
:1002E0000102F1DC30BD00000000000002E008C89F
:1002F000121F08C1002AFAD170477047FFFFFFFFA5
:10030000464E474C474D00274FF00D08608846A1E8
:10031000401C82B26280414800F0ACF9606806E09F
:100320002A7D9206FCD5297000F101006060315CE5
:100330000029F5D16760287D8006FCD585F800800E
:10034000DFF8FCC000DFE1E7344E354C354D0027C7
:100350004FF00D0820883BA1401C82B222802F481C
:1003600000F088F9606806E02A7D9206FCD52970C5
:1003700000F101006060315C0029F5D16760287DE3
:100380008006FCD585F80080DFF8B4C000DFE1E727
:1003900000231A460121AFF24F00DFF8C0C000DF92
:1003A0001F4C00231A460121A060AFF2AB00DFF81A
:1003B000ACC000DFE0600020DFF8A4C000DF294807
:1003C000016841F0080101602748016821F0F0014F
:1003D0000160016841F05001016012484FF0830153
:1003E00001734FF0000101714FF0A20101704FF055
:1003F000030101734FF0070202724160704710B5AC
:10040000FFF7DDFFFFF76FFE00220A21AFF27F004A
:10041000DFF858C000DF002010BD000038000010D9
:100420000000001000C000405461736B2D322C207E
:10043000636F756E74657232203A20256400000087
:10044000851000005461736B2D312C20636F756E25
:1004500074657231203A202564000000490F0000C5
:10046000D90F0000C4C00F4000C00240910D000031
:1004700070B55F4CD4F888005E4D6FEA106080075D
:10048000D4F80C0100F003000CD028B1012841D0B1
:10049000022845D003282DD1D4F804015649C0B212
:1004A000401C43E028B101280ED0022823D00328A5
:1004B00020D154F8880FC0F307422068521CC0F3C3
:1004C0000E00401C4D4909E054F8880FC0F3074264
:1004D0002068521CC0F30E004949401CA0FB0101DA
:1004E0000023FFF7B9FEE26F0023D2B2521CFFF7E0
:1004F000B3FE286070BD54F8880FC0F3074220682F
:10050000521CC0F30E000021401C090441EA1041B6
:100510000004E5E7D4F804013A49C0B2401C05E004
:10052000D4F804014FF40041C0B2401CB1FBF0F01C
:10053000DFE770B52E482021C0F8A011D0F8A01137
:10054000890603D5D0F8A0114906FBD500F180003B
:100550000323C0F884304FF00005C0F82851C0F8DC
:100560002C514FF00104C0F88C40274941604FF0F6
:10057000AA01C1604FF05502C2600460C160C26050
:10058000A0F18000D0F888607601FBD540F8803F6C
:10059000C160C260A0F18000D0F8886016F0407F92
:1005A000FAD000F1A00023264660C160C26004605A
:1005B000C160C260A0F1A000D0F8A8406405FBD5DE
:1005C00040F8A03FC160C260A0F1A000D0F8A81020
:1005D00011F4407FFAD00D49C0F8C410C0F8C851DA
:1005E000016821F4704141F48041016070BD000058
:1005F00000C00F401000001000093D0000127A00FA
:1006000000366E01001BB70063000500DE8728047A
:10061000202A04DB203A00FA02F1002070479140C2
:10062000C2F1200320FA03F3194390407047202AB7
:1006300004DB203A21FA02F00021704721FA02F38C
:10064000D040C2F120029140084319467047000093
:10065000064C074D06E0E06840F0010394E807000F
:1006600098471034AC42F6D3FFF734FDDC1000009D
:10067000FC1000000FB4084B10B504A902AA03989F
:1006800000F036F8044602A9002000F0D9F8204610
:1006900010BC5DF814FB000041080000002001E0E0
:1006A00001C1121F002AFBD1704710B5002A06DADB
:1006B00022F00042D21D22F00703102203E0D21CD8
:1006C00022F003030C2213B19C188C4201D90120A3
:1006D00010BD024401448360C0E90021C91AD0184A
:1006E000884202D810600246F9E70020106010BD71
:1006F0002DE9FF4F89B004469B46002596E025284A
:1007000033D10027641C4D4AB84601212378203B91
:1007100001FA03F0104202D00743641CF6E7207888
:100720002E2819D114F8010F47F004072A280ED0FB
:100730006FF02F022078A0F1300109290CD808EBC6
:10074000880102EB410100EB0108641CF2E70A9802
:10075000641C50F8048B0A90207800286AD0642822
:1007600008D0692806D075281FD05A460B999047A3
:100770006D1C5AE00A994FF00A0901C90A91002834
:1007800004DAC0F100004FF02D0102E0390504D574
:100790002B218DF82010012104E0F90701D0202140
:1007A000F7E700218A4608AE0CE00A994FF00A09E3
:1007B00001C90A91F5E74946FFF77FFD01F13001D4
:1007C00006F8011D0028F6D1ADEB060000F1200966
:1007D000780701D44FF00108002041464A46C84539
:1007E00000DD881A8046002706E008A85A46C05D4A
:1007F0000B9990476D1C7F1C5745F6DB04E03020B9
:100800005A460B9990476D1CB8F10001A8F10108F8
:10081000F5DC05E016F8010B5A460B9990476D1C64
:10082000B9F10001A9F10109F4DC641C2078002869
:100830007FF465AF0DB02846BDE8F08F09280100B0
:100840000A68531C0B60107070470000084800686D
:10085000C0010CD54FF06040D0F8801EC90706D00B
:10086000D0F8000E002802DA024901200870704713
:10087000FCED00E0200000104FF06042D36F002B31
:10088000FCD0C36AD367D36F002BFCD0C07840EA9A
:100890000120A2F87C0070474FF06041CA6F002A27
:1008A000FCD081F87C0070474FEA000151E8000F4E
:1008B00028B1036841E80032002AF7D17047BFF33E
:1008C0002F8F70470F4810B50D4942680E480B68CE
:1008D0000088934204D00A60CB88421E1A448A8062
:1008E0008A8882420AD100200860064800F0A0F8F9
:1008F0000146BDE81040034800F0B8B910BD000043
:1009000024000010C80800102C00001070B51A4D0B
:10091000E86800282ED0A88A401EA882002623E07E
:10092000A06838B161684160606810B1A1688160F9
:100930006660A66010482146183800F097F9A08A32
:10094000A8826078042804D10C49E08A0988084408
:10095000A0820120607084F82000E068E860E06810
:1009600008B10561E6602661A88A002802D1EC681A
:10097000002CD5D170BD0000E00800102C00001044
:1009800070B504000FD00D4DA1780126286882783B
:1009900091420CD900F086F9286846702046BDE8DF
:1009A000704000F0E1B9064800F042F8F7E76670E1
:1009B0002146BDE87040024800F058B91800001008
:1009C000C808001010B50446008B084320836278E5
:1009D000618B062A16D0052A17D1084215D001EAE4
:1009E0000002628388432083204600F065F90120DD
:1009F0006070022084F820002146BDE810400348C2
:100A000000F034B931EA0002ECD010BDC808001083
:100A1000814202D342688A4201D20120704750E8E5
:100A2000002F0A6040E80012002AF8D10020704729
:100A30000146406842684A600B780022022B05D0CC
:100A4000012B03D0032B01D04260704743680BB1E8
:100A500099604260826070470649074B48681B688E
:100A600082789B789A4202D142684A60704700209F
:100A700070470000C80800101800001070B5044648
:100A800000201546207001226270A1706060A06095
:100A9000E0602061A082E0822083608384F82000EF
:100AA00084F82100608C18B90448FFF7FDFEA062AD
:100AB00029462046BDE8704000F00EB8A80100109D
:100AC00003480021016003490968C18070470000A4
:100AD00024000010BC10000010B5428C920803D115
:100AE0000F4A1268C2F38D02836A03EB8202530736
:100AF00000D5121F403A4FF08073C2E90E13002355
:100B00004FEA030442F823405B1C0E2BFAD3C3695F
:100B100013624262C162806A0249016010BD000036
:100B2000B8100000A52E5AE22DE9F04104460F4608
:100B30004168002004F10C0621B1617802291AD025
:100B4000A189A9B3A189E289914246D2218904EB06
:100B500081010F61D6E85F1F491CC6E8521F002AB9
:100B6000F8D12189491C89B22181E289914200D1C1
:100B70002081BDE8F081074660702046FFF758FFEE
:100B800080F820702189054604EB8101C069086165
:100B9000D6E85F0F401CC6E8510F0029F8D1208924
:100BA000401C80B22081E18988420BD1278109E075
:100BB000FFE72046FFF73CFF0546C06904210760B8
:100BC00085F8201001206870284600F075F8294645
:100BD000BDE8F041034800F049B8BDE8F04103200A
:100BE000FFF726BBC808001070B51C48012100683B
:100BF000417000F057F81A491A4D002048706C787F
:100C000017E000BF05EBC40148680278E2B1012A91
:100C10001FD000F07DF8E878641C844200D10024E5
:100C20001048801CD0E84F1F491EC0E8421F002A10
:100C3000F8D1A8780028E5D16C700B48FFF7F8FED2
:100C4000BDE8704000F090B8896889B2FFF7BAFE3D
:100C5000E1E78968FFF768FFDDE700001800001092
:100C600021000010F8070010C808001030B5027805
:100C70000023022A03D0012A01D0032A00D1012334
:100C80008C7800E01046426812B19578A542F9D2FE
:100C90004A6041601BB102B19160886030BD0020A4
:100CA000FBE7000003494A68426000228260486016
:100CB00070470000C808001010B5016900290ED067
:100CC000C268CA60C36800223BB18B8A848A23440D
:100CD0008B82C3681961C26000E08A82026110BD24
:100CE000816839B142684A604168002901D0806852
:100CF00088607047054906E04A68824202D1406830
:100D00004860704711460029F6D17047C8080010A6
:100D100010B5416879B1FFF78BFE0446FFF7CCFFB1
:100D200001206070032084F820002146BDE81040B7
:100D30000348FFF79BBF4188491C418010BD00005C
:100D4000C808001006480068D0E90910814203D3A2
:100D500000680449884202D00120FFF769BA704751
:100D600018000010A52E5AE207490222486042707E
:100D7000064A1278002A05D006C98A4202D0C078F5
:100D8000FFF78ABD70470000180000102000001017
:100D90002DE9F04105460E469046FFF757FD00202D
:100DA0000446384A384902E042F82040401C0B888B
:100DB0009842F9D33548302201883548FFF775FC51
:100DC0003448006880B240F000423348016833483C
:100DD000FFF76BFC32480822018832480068FFF7B1
:100DE00064FC314FFF20314AF8707C840021384682
:100DF000FFF744FE2E480421017044602D48017025
:100E0000C46004618482786A2030FFF769F92A4857
:100E10002B494FF0E02207600220787027480470C9
:100E200044700978C17027480068506194610720B8
:100E30001061D2F8200D24490843C2F8200DD2F8E1
:100E4000200DD2F80C1D00F07F40C043B0FA80F0B6
:100E5000C0F10800C1F30221814200DB481CD2F836
:100E60001C3D6FF08071814063F31701C2F81C1DB7
:100E7000FFF726FE424631462846BDE8F0410023F2
:100E800000F062B87C080010B4100000D010000020
:100E90004C000010B8100000D4100000A801001091
:100EA000DA10000014000010980800102D02000055
:100EB000C8080010E008001018000010F807001023
:100EC000D8100000C01000000000FFFF0B4810B554
:100ED000006801214170FFF7E5FEFFF7F3FC0849C8
:100EE0000888401C0880FFF711FD00F00DF8054848
:100EF000FFF79EFDBDE81040FFF736BF1800001059
:100F00002C000010C808001070B50D4C2068002897
:100F100015D0A0880B4E401EA0800AE0E888FFF79D
:100F200086F9A888A0802868206029463068FFF7E5
:100F30006FFDA088002802D12568002DEED170BD7C
:100F400030000010140000102DE9F04180461646D4
:100F50001F460C4611F0FF0F00D14C1C1948FFF73B
:100F6000A3FC05002BD0200AAE626884E1B24246A1
:100F70002846EF61FFF782FD01241348134905E07D
:100F800000EB840252F8042C22B1641C0A889442BB
:100F9000F6D9002400EB8400E6B240F8045C0C486B
:100FA000EE70007818B101212846FFF765FC28464D
:100FB000FFF7E6FC0748006880F820602046BDE89F
:100FC000F08100004C0000107C080010B4100000FC
:100FD00020000010180000102DE9F041244C234E91
:100FE000244B22680025D17808B1814218D103EB47
:100FF0008100557040F8045C1F48916AFFF708FDB6
:1010000020688562317811B10021FFF735FC1B485B
:101010002168FFF7FDFC00202560FFF7B1FC1FE011
:101020001749098888421ED803EB800757F8044CFB
:10103000CCB12046FFF754FE2046FFF73DFE47F8AF
:10104000045C0D48A16AFFF7E3FCA562307818B193
:1010500000212046FFF710FC21460848FFF7D8FC86
:101060000020BDE8F081FF20FBE700002000001019
:10107000180000107C080010A80100104C0000109F
:10108000B410000070B5FFF7E7FC04000CD0074D6A
:1010900007482968FFF7EAFD2968012048702046C3
:1010A000BDE87040FFF760BE70BD00001800001082
:1010B000C808001007000000C8000001050001007A
:1010C0003F420F0000000000102700000000000059
:1010D0005C0100005006000010000000FC10000041
:1010E0000000001038000000EC0200003411000085
:1010F00038000010C00A00009C060000000000003C
:1011000000000000000000000000000000E1F50504
:1011100000000000000000000000000000000000CF
:1011200000000000000000000000000000000000BF
:0411300000000000BB
:04000005000000CD2A
:00000001FF
