:020000040000FA
:10000000A014001039020000410200004302000069
:100010004502000047020000490200000000000005
:10002000000000000000000000000000450100008A
:100030004D02000000000000D50100002102000078
:10004000530200005302000053020000530200005C
:10005000530200005302000053020000530200004C
:10006000530200005302000053020000530200003C
:10007000530200005302000053020000530200002C
:10008000530200005302000053020000530200001C
:10009000530200005302000053020000530200000C
:1000A00053020000530200005302000053020000FC
:1000B00053020000530200005302000053020000EC
:1000C000530200005302000053020000DFF80CD07E
:1000D00000F094FA00480047F5030000A014001057
:1000E00080F309887047684680F3098804480078DF
:1000F000C00714BF0220032080F31488704700005B
:10010000500F0000DFF818C0EFF305831B0618BF7F
:100110006047EFF31483DB0708BF604700DF7047D9
:10012000E5060000DFF818C0EFF305831B0618BFD3
:100130006047EFF31483DB0708BF604700DF7047B9
:1001400045080000EFF30980816931F8021C31F4A1
:100150007F4128D190E80F10E047EFF3098C1A4B4C
:1001600093E80600914219D00CB44FF00103002926
:100170001FBF81F821302CE9F00FC1F824C000F036
:1001800041FD0CBC1A60D2F824C0BCE8F00F92F814
:1001900021308CF309881BB192F82000CCF80000C4
:1001A0006FF0020E704710B5084A1268914209D8E4
:1001B000074C54F8214090E80F10A047EFF3098C4A
:1001C0008CE80F0010BD0000180000102006000091
:1001D0002006000000F004FC134B93E80600914257
:1001E0001BD00CB44FF0000381F82130EFF3098CE1
:1001F0002CE9F00FC1F824C000F004FD0CBC1A601B
:10020000D2F824C0BCE8F00F8CF3098892F82130B2
:100210001BB192F82030CCF800306FF0020E70471E
:1002200000F0B4FDD8E7000018000010FEE77047AA
:10023000FEE77047704700000648804706480047C1
:10024000FEE7FEE7FEE7FEE7FEE7FEE7FEE7FEE786
:10025000FEE7FEE71F050000CD0000002DE9F05F7E
:100260000546002092469B46884606468146402425
:100270001BE0284641464746224600F02FF85246EA
:100280005B46801A994110D310461946224600F069
:1002900016F82D1A67EB01084F462246012000216F
:1002A00000F00DF817EB00094E41201EA4F10104E7
:1002B000DFDC484631462A464346BDE8F09F202A07
:1002C00004DB203A00FA02F1002070479140C2F1AD
:1002D000200320FA03F3194390407047202A04DBDF
:1002E000203A21FA02F00021704721FA02F3D040AF
:1002F000C2F120029140084319467047FFFFFFFFFB
:100300001FB543A400201ECC8DE81E0044496A4658
:1003100004E00C7DA406FCD50B70401C135C002B84
:10032000F7D11FBD4FF6FF7421463E48DFF8F8C0F5
:1003300000DFFFF7E5FF0A20DFF8F0C000DFF3E79A
:100340001FB53BA400201ECC8DE81E0034496A4630
:1003500004E00C7DA406FCD50B70401C135C002B44
:10036000F7D11FBD2F48DFF8D8C000DFFFF7E8FF47
:100370000A20DFF8B8C000DFF4E700212948DFF8E1
:10038000C4C000DF00231A460221AFF22700DFF8C5
:10039000B8C000DF234C0023083C1A46012120602E
:1003A000AFF27F00DFF8A0C000DF60600020DFF860
:1003B0009CC000DF2648016841F008010160254823
:1003C000016821F0F0010160016841F05001016015
:1003D00013484FF0830101734FF0000101714FF09A
:1003E000A20101704FF0030101734FF00702027286
:1003F0004160704710B5FFF7DDFFFFF774FE002284
:100400000A21AFF28900DFF850C000DF002010BDE4
:100410007461736B322066756E634228290D00008B
:1004200000C0004008000010C90B0000F1070000E8
:100430007461736B312066756E634128290D00006D
:10044000910B0000510B0000090E0000990E0000F6
:10045000C4C00F4000C00240510C000070B55F4C9A
:10046000D4F888005E4D6FEA10608007D4F80C0164
:1004700000F003000CD028B1012841D0022845D05B
:1004800003282DD1D4F804015649C0B2401C43E0E2
:1004900028B101280ED0022823D0032820D154F8F7
:1004A000880FC0F307422068521CC0F30E00401CA6
:1004B0004D4909E054F8880FC0F307422068521CE8
:1004C000C0F30E004949401CA0FB01010023FFF7C7
:1004D000C5FEE26F0023D2B2521CFFF7BFFE2860B8
:1004E00070BD54F8880FC0F307422068521CC0F357
:1004F0000E000021401C090441EA10410004E5E718
:10050000D4F804013A49C0B2401C05E0D4F8040113
:100510004FF40041C0B2401CB1FBF0F0DFE770B512
:100520002E482021C0F8A011D0F8A011890603D5CB
:10053000D0F8A0114906FBD500F180000323C0F8D4
:1005400084304FF00005C0F82851C0F82C514FF00E
:100550000104C0F88C40274941604FF0AA01C160F6
:100560004FF05502C2600460C160C260A0F180001B
:10057000D0F888607601FBD540F8803FC160C2604A
:10058000A0F18000D0F8886016F0407FFAD000F12A
:10059000A00023264660C160C2600460C160C260E2
:1005A000A0F1A000D0F8A8406405FBD540F8A03F1A
:1005B000C160C260A0F1A000D0F8A81011F4407F83
:1005C000FAD00D49C0F8C410C0F8C851016821F430
:1005D000704141F48041016070BD000000C00F40D7
:1005E0001400001000093D0000127A0000366E0170
:1005F000001BB70063000500DE872804064C074D8A
:1006000006E0E06840F0010394E8070098471034E2
:10061000AC42F6D3FFF75EFD680F0000880F0000C4
:100620000000000002E008C8121F08C1002AFAD129
:1006300070477047002001E001C1121F002AFBD162
:10064000704710B5002A06DA22F00042D21D22F0CF
:100650000703102203E0D21C22F003030C2213B183
:100660009C188C4201D9012010BD024401448360D2
:10067000C0E90021C91AD018884202D81060024689
:10068000F9E70020106010BD08480068C0010CD5D3
:100690004FF06040D0F8801EC90706D0D0F8000E99
:1006A000002802DA0249012008707047FCED00E0E2
:1006B000220000104FF06042D36F002BFCD0C36AC1
:1006C000D367D36F002BFCD0C07840EA0120A2F89A
:1006D0007C0070474FF06041CA6F002AFCD081F85F
:1006E0007C0070474FEA000151E8000F28B1036811
:1006F00041E80032002AF7D17047BFF32F8F7047CF
:1007000070B50D46002812D04FF6FF71084C884294
:1007100004D222680146104600F0A4F92068457012
:10072000044800F09FF8BDE8704000F07DBA70BD4D
:10073000180000107012001070B51A4DE8680028FB
:100740002ED0A88A401EA882002623E0A06838B1D7
:1007500061684160606810B1A16881606660A660F0
:1007600010482146183800F0A1F9A08AA8826078C4
:10077000042804D10C49E08A09880844A082012099
:10078000607084F82000E068E860E06808B1056106
:10079000E6602661A88A002802D1EC68002CD5D139
:1007A00070BD0000881200102000001070B5040019
:1007B0000FD00D4DA17801262868827891420CD97E
:1007C00000F090F9286846702046BDE8704000F0BF
:1007D0002BBA064800F046F8F7E766702146BDE8F8
:1007E0007040024800F062B918000010701200104A
:1007F0000321FFF785BF000010B50446008B0843B6
:1008000020836278618B062A16D0052A17D1084208
:1008100015D001EA0002628388432083204600F05D
:100820006BF901206070022084F820002146BDE8A9
:100830001040034800F03AB931EA0002ECD010BD94
:1008400070120010814202D342688A4201D2012014
:10085000704750E8002F0A6040E80012002AF8D1E3
:10086000002070470146406842684A600B780022C9
:10087000022B05D0012B03D0032B01D0426070471F
:1008800043680BB1996042608260704770B504465E
:1008900000201546207001226270A1706060A06087
:1008A000E0602061A082E0822083608384F82000E1
:1008B00084F82100608C18B90448FFF713FFA06288
:1008C00029462046BDE8704000F002B890010010B3
:1008D00010B5428C920803D10F4A1268C2F38D0200
:1008E000836A03EB8202530700D5121F403A4FF090
:1008F0008073C2E90E1300234FEA030442F8234039
:100900005B1C0E2BFAD3C36913624262C162806A18
:100910000249016010BD0000480F0000A52E5AE2F8
:100920002DE9F04104460F464168002004F10C0611
:1009300021B1617802291AD0A189A9B3A189E289DC
:10094000914246D2218904EB81010F61D6E85F1FF5
:10095000491CC6E8521F002AF8D12189491C89B2D6
:100960002181E289914200D12081BDE8F0810746D2
:1009700060702046FFF776FF80F8207021890546D9
:1009800004EB8101C0690861D6E85F0F401CC6E82E
:10099000510F0029F8D12089401C80B22081E189C3
:1009A00088420BD1278109E0FFE72046FFF75AFF75
:1009B0000546C0690421076085F820100120687091
:1009C000284600F099F82946BDE8F041034800F0B8
:1009D0006DB8BDE8F0410320FFF72ABC701200108B
:1009E00070B51C4801210068417000F07BF81A497D
:1009F0001A4D002048706C7817E000BF05EBC40169
:100A000048680278E2B1012A1FD000F0A7F8E87820
:100A1000641C844200D100241048801CD0E84F1F81
:100A2000491EC0E8421F002AF8D1A8780028E5D165
:100A30006C700B48FFF716FFBDE8704000F0F4B88B
:100A4000896889B2FFF7D8FEE1E78968FFF768FF98
:100A5000DDE700001800001023000010A0110010B6
:100A600070120010104A10B5D368ABB113469B8AC0
:100A700003E08CB12246A48A2344D4688B42F8D385
:100A8000C460D0600261C46804B12061591A8182D7
:100A9000908A401A908210BD0024C460D060C91AA8
:100AA00002619182848210BD8812001030B50278F4
:100AB0000023022A03D0012A01D0032A00D10123F6
:100AC0008C7800E01046426812B19578A542F9D2C0
:100AD0004A6041601BB102B19160886030BD002066
:100AE000FBE7000003494A684260002282604860D8
:100AF000704700007012001010B5016900290ED077
:100B0000C268CA60C36800223BB18B8A848A2344CE
:100B10008B82C3681961C26000E08A82026110BDE5
:100B2000816839B142684A604168002901D0806813
:100B300088607047054906E04A68824202D14068F1
:100B40004860704711460029F6D1704770120010B6
:100B500002220270002242604180704710B5416855
:100B600079B1FFF77FFE0446FFF7C6FF01206070F2
:100B7000032084F820002146BDE810400348FFF719
:100B800095BF4188491C418010BD000070120010C3
:100B900010B5416889B1FFF765FE0446032084F86B
:100BA00020002046FFF7A8FF2046FFF7FFFD05497C
:100BB0000020096881F8200002E04188491C41803A
:100BC000002010BD1800001010B542880C461AB164
:100BD000521E4280002010BD34B1094A436811689A
:100BE00023B1FFF763FF06E0012010BD41601168EB
:100BF0000023C1E9013007212046FFF781FDF3E71B
:100C00001800001006480068D0E90910814203D39B
:100C100000680449884202D00120FFF709BB7047F1
:100C200018000010A52E5AE20749022248604270BF
:100C3000064A1278002A05D006C98A4202D0C07836
:100C4000FFF748BD70470000180000102200001098
:100C50002DE9F04105460E469046FFF715FD0020B0
:100C60000446384A384902E042F82040401C0B88CC
:100C70009842F9D33548302201883548FFF7E1FC26
:100C80003448006880B240F000423348016833487D
:100C9000FFF7D7FC32480822018832480068FFF786
:100CA000D0FC314FFF20314AF8707C840021384657
:100CB000FFF7ECFD2E480421017044602D480170BF
:100CC000C46004618482786A2030FFF709FA2A48F8
:100CD0002B494FF0E022076002207870274804700B
:100CE00044700978C17027480068506194610720FA
:100CF0001061D2F8200D24490843C2F8200DD2F823
:100D0000200DD2F80C1D00F07F40C043B0FA80F0F7
:100D1000C0F10800C1F30221814200DB481CD2F877
:100D20001C3D6FF08071814063F31701C2F81C1DF8
:100D3000FFF77FFA424631462846BDE8F0410023DE
:100D400000F062B824120010440F00005C0F000095
:100D500030000010480F0000600F000090010010EC
:100D6000660F000010000010401200102D0200005D
:100D7000701200108812001018000010A01100104E
:100D8000640F00004C0F00000000FFFF0B4810B57F
:100D9000006801214170FFF7A5FEFFF74BFA0849F3
:100DA0000888401C0880FFF7C7FC00F00DF80548D4
:100DB000FFF758FDBDE81040FFF736BF18000010E0
:100DC000200000107012001070B50D4C2068002833
:100DD00015D0A0880B4E401EA0800AE0E888FFF7DF
:100DE00026FAA888A0802868206029463068FFF786
:100DF00029FDA088002802D12568002DEED170BD04
:100E000028000010100000102DE9F0418046164621
:100E10001F460C4611F0FF0F00D14C1C1948FFF77C
:100E200061FC05002BD0200AAE626884E1B2424624
:100E30002846EF61FFF72AFD01241348134905E016
:100E400000EB840252F8042C22B1641C0A889442FC
:100E5000F6D9002400EB8400E6B240F8045C0C48AC
:100E6000EE70007818B101212846FFF723FC2846D0
:100E7000FFF79CFC0748006880F820602046BDE82A
:100E8000F08100003000001024120010440F000018
:100E900022000010180000102DE9F041244C234ED0
:100EA000244B22680025D17808B1814218D103EB88
:100EB0008100557040F8045C1F48916AFFF7C2FC3E
:100EC00020688562317811B10021FFF7F3FB1B48E0
:100ED0002168FFF7B7FC00202560FFF767FC1FE0E3
:100EE0001749098888421ED803EB800757F8044C3D
:100EF000CCB12046FFF714FE2046FFF7FDFD47F872
:100F0000045C0D48A16AFFF79DFCA562307818B11A
:100F100000212046FFF7CEFB21460848FFF792FC50
:100F20000020BDE8F081FF20FBE700002200001058
:100F30001800001024120010900100103000001062
:100F4000440F000007000000000200013F420F00B4
:100F50000000000010270000000000005C010000FD
:100F60001010000010000000880F000000000010AA
:100F70003000000024060000B80F00003000001010
:100F800070140000340600000000000000000000A3
:100F900000000000000000000000000000E1F50576
:100FA0000000000000000000000000000000000041
:080FB000000000000000000039
:04000005000000CD2A
:00000001FF
