:020000040000FA
:10000000680200106D01000075010000770100001A
:10001000790100007B0100007D010000000000006C
:100020000000000000000000000000007F01000050
:100030008101000000000000830100008501000034
:100040008701000087010000870100008701000090
:100050008701000087010000870100004F020000B7
:100060008701000087010000870100008701000070
:100070008701000087010000870100008701000060
:100080008701000087010000870100008701000050
:100090008701000087010000870100008701000040
:1000A0008701000087010000870100008701000030
:1000B0008701000087010000870100008701000020
:1000C00087010000870100008701000000F002F8AE
:1000D00000F03CF80AA090E8000C82448344AAF1A6
:1000E0000107DA4501D100F031F8AFF2090EBAE8A4
:1000F0000F0013F0010F18BFFB1A43F0010318475C
:100100006805000088050000103A24BF78C878C14F
:10011000FAD8520724BF30C830C144BF04680C600D
:10012000704700000023002400250026103A28BF55
:1001300078C1FBD8520728BF30C148BF0B60704759
:100140001FB500F08AFA1FBD10B510BD00F0ABF866
:100150001146FFF7F5FF00F05CF800F0C9F803B4B2
:10016000FFF7F2FF03BC00F06DFA0000094880477A
:1001700009480047FEE7FEE7FEE7FEE7FEE7FEE789
:10018000FEE7FEE7FEE7FEE704480549034A054BA4
:1001900070470000AF040000CD00000068000010B0
:1001A00068020010680000103648006840F0807057
:1001B0003549C1F8C4003548006920F4702033493E
:1001C00008610846006940F4202008614FF0830070
:1001D0002F4908734FF0000008714FF013000870AA
:1001E0004FF0030008734FF0070008724FF0030050
:1001F00048604FF007004FF0010101FA00F14FEAAB
:1002000050124FF0E02303EB8202C2F8001100BF4E
:10021000704700F04CF900F073F8FFF7C5FF15E0E8
:1002200000BF1C4800780028FBD04FF0000019499F
:100230000870194800781649087000BF1748007800
:100240000028FBD04FF0000014490870E8E710497F
:10025000886800F0060000F00201022904D14FF086
:10026000FF010E4A11700BE000F00401042907D1D0
:1002700007490978084A11704FF0FF01054A1170CB
:1002800070470000C4C00F4000C00F4000C00240D3
:100290000080094002000010000000100300001060
:1002A000704770477047754600F0C8F9AE460500C4
:1002B0006946534620F00700854618B020B5FFF781
:1002C00063FFBDE820404FF000064FF000074FF0FD
:1002D00000084FF0000B21F00701AC46ACE8C00964
:1002E000ACE8C009ACE8C009ACE8C0098D4670476D
:1002F0000446AFF300802046FFF731FFFFFFFFFF0A
:100300002DE9F04784480068C0F3016003287ED1DE
:1003100081488430006810F0030006D0012832D0F4
:1003200002285ED003282DD100E000BF7A48006883
:10033000C0F3074000F1010C4FF002017748D0F8FC
:100340008800C0F30E0000F10100A1FB0001744A17
:100350004FF00003A0FB026901FB029100FB0311B7
:100360006246304600F0F2F804466E480068C0B2BB
:1003700000F1010632464FF00003204600F0E6F897
:10038000694908605FE064480068C0F3074000F115
:10039000010C4FF002016148D0F88800C0F30E0054
:1003A00000F10100A1FB0012604B4FF00000A1FB27
:1003B000036902FB039201FB0021624603463046BB
:1003C00000F0C4F8044657480068C0B200F10106C6
:1003D00032464FF00003204600F0B8F8524908605A
:1003E00031E04D480068C0F3074000F1010C4FF0C8
:1003F00002014A48D0F88800C0F30E0000F1010065
:10040000A1FB00024FF400434FF0000100E01BE0AD
:10041000A0FB036902FB039200FB012762460B4627
:100420003046394600F092F804463E480068C0B2B3
:1004300000F1010632464FF00003204600F086F836
:100440003949086000BF30E036480830006810F0D5
:10045000030006D0012810D0022819D0032823D188
:1004600000E000BF2F480068C0B200F101002C4935
:10047000B1FBF0F02C49086016E02A480068C0B2D1
:1004800000F101002949B1FBF0F0274908600BE0B9
:1004900024480068C0B200F101004FF40041B1FBF4
:1004A000F0F02149086000BF00BFBDE8F0874FF0C1
:1004B00020001F4908601948D0F8A00110F0200F53
:1004C00005D000BF1A48006810F0400FFAD04FF076
:1004D00003001449086017481049C1F8A8011648DC
:1004E000164908604FF00100154908604FF00400FC
:1004F000A1F1040108601348134908604FF48070AB
:100500000649C1F8C8010846006820F4704040F46C
:10051000804008607047000088C00F4000C00F4056
:1005200000093D0004C10F4004000010001BB7008B
:10053000A0C10F405551515555545554ACC10F40B1
:100540000CC10F40DE872804C4C00F4053EA020CE0
:1005500000F069802DE9F04B4FF00006002B1FBF23
:10056000B3FA83F503FA05F424FA05F65E4012BFE8
:100570001643B2FA82F502FA05F4C5F120051EBF52
:1005800022FA05FC44EA0C04203556EA044C4FEAF2
:10059000144418BF641C4FF000084FF0000990424B
:1005A00071EB030C39D3002919BFB1FA81F701FAB5
:1005B00007F6B0FA80F700FA07F6C7F120071EBF6A
:1005C00020FA07FC46EA0C062037B6FBF4FCA7EB42
:1005D0000507103F07F01F0BCBF120060CFA0BFBB1
:1005E0002CFA06F644BFB3460026202FA4BF5E4671
:1005F0004FF0000B5BEA060C08BF4FF0010B19EB44
:100600000B09ABFB027C48EB0608C01B06FB02CCC7
:100610000BFB03CC71EB0C01C1E70B4602464146D4
:100620004846BDE8F08B13B54FF000004FF00001D5
:10063000AFF30080BDE81C407047000000487047E1
:100640000800001001491820ABBEFEE7260002009A
:10065000004870470C000010704710B5FFF7F8FF16
:100660004FF00001016010BD88060000000000107E
:1006700008000000080100009006000008000010BB
:10068000600200002401000000000000C0C62D0030
:04000005000000CD2A
:00000001FF
