:020000040000FA
:1000000018F09FE518F09FE518F09FE518F09FE5C0
:1000100018F09FE50000A0E1F0FF1FE518F09FE554
:1000200054000000400000001002000044000000E6
:1000300048000000000000004C00000050000000DC
:10004000FEFFFFEAFEFFFFEAFEFFFFEAFEFFFFEA18
:10005000FEFFFFEA64009FE50010A0E3001080E5CA
:100060005C009FE50410A0E3041080E50210A0E30B
:10007000001080E54C009FE5DBF021E300D0A0E11B
:10008000000040E2D7F021E300D0A0E1000040E210
:10009000D1F021E300D0A0E1000040E2D2F021E362
:1000A00000D0A0E1400040E2D3F021E300D0A0E185
:1000B000200040E210F021E30C009FE510FF2FE14B
:1000C00000C11FE000C01FE0A8080040D0000000F1
:1000D0000CD09FE5070100EB00009FE510FF2FE12A
:1000E000B00400004808004065C08FE21CFF2FE10B
:1000F0007847C04600C00FE19FF021E30030D1E512
:10010000000053E10600000A013083E20030C1E53F
:100110000030D2E5013083E2000053E10030A0035B
:10012000930042E10CF021E11EFF2FE17847C04629
:1001300000C00FE19FF021E30030D0E5013043E241
:100140000030C0E50CF021E11EFF2FE1406A85463A
:10015000704700006B4607B4014803600148004740
:100160001C000040690A00008446034B1B680C3BDE
:1001700007CB0023604700001C00004003002DE96E
:1001800000204DE900104FE101001DE904E04EE2BE
:10019000024020E9004040E9040040E2FC1F20E961
:1001A0000C00BDE80C0020E90040A0E19FF021E335
:1001B00058001FE500D090E53C009FE50FE0A0E16E
:1001C00010FF2FE134009FE50410D0E50510C0E5D5
:1001D0000010A0E30410C0E51FF021E30400A0E13B
:1001E0001C109FE511FF2FE1040007487847C04627
:1001F00093F021E310E09FE510FF2FE1450300009D
:1002000020000040510B0000610300005402000078
:1002100000C04FE120001CE3B2C05E11FFCCCC1344
:1002200004C01E05FFC4CC0300005CE31B00001AE1
:1002300000204DE994309FE502001DE900C04FE128
:10024000F05F21E9003093E513FF2FE17847C046C6
:100250000040A0E1240094E52110D4E5000051E322
:10026000F00FB0080240B00801000D0900205D0940
:1002700001F06F010EF0B001401080E202000DE9C4
:1002800000205DE9381090E534E080E20040DEE8CF
:1002900001F06FE1FF1F1EE908E09EE50EF0B0E1FE
:1002A00000412DE928809FE5008098E508005CE189
:1002B000FEFFFF2A14809FE50CC198E700804FE104
:1002C0000FE0A0E11CFF2FE108F06FE10081FDE8E5
:1002D00024050000200500007847C0460000A0E18A
:1002E000FEFFFFEA1EFF2FE10000A0E1FEFFFFEA94
:1002F00003002DE90000A0E3D00F00E50300BDE8F6
:1003000004F05EE21849194881610321416101212D
:10031000416017481749486317481849C863184986
:100320002520C8637047C046124920208861704765
:100330000E4880687047C0460C480068C007C00F70
:100340007047C0460949012008600A482021C16160
:1003500000220263416170470649202048617047CE
:100360000449202008617047CFDD0600008000E0CE
:10037000F002000000F0FFFF7C01000000F1FFFF31
:1003800000F2FFFFFF08A0E34C119FE5080081E5A4
:10039000210000EAFF08A0E33C119FE50C0081E585
:1003A0000000A0E334119FE5000081E5040000EAAD
:1003B00028019FE5000090E5010080E21C119FE507
:1003C000000081E514019FE5000090E510119FE514
:1003D000010050E1F5FFFFBAFF08A0E3F8109FE528
:1003E000040081E50000A0E3F0109FE5000081E536
:1003F000040000EAE4009FE5000090E5010080E2CF
:10040000D8109FE5000081E5D0009FE5000090E551
:10041000CC109FE5010050E1F5FFFFBADCFFFFEAD9
:10042000C0009FE5B0109FE5080081E50110A0E342
:100430000000A0E32F0200EB0030A0E30320A0E1C6
:100440000310A0E1C8004FE2040200EB98109FE502
:10045000000081E5140000EA0000A0E37C109FE5A5
:10046000000081E5070000EA78009FE568109FE53D
:10047000040081E564009FE5000090E5010080E252
:1004800058109FE5000081E550009FE5000090E5D1
:100490004C109FE5010050E1F2FFFFBA0210A0E30B
:1004A00044009FE5000090E5120200EBE9FFFFEA3F
:1004B0000000A0E334109FE5000081E530109FE5C7
:1004C000000081E50020A0E30210A0E1B4004FE2AB
:1004D00004FFFFEB0000A0E1FEFFFFEA008002E066
:1004E00014000040A086010000FF0F00080000403B
:1004F0000C0000401000004001C08FE21CFF2FE103
:10050000054C064D04E020000FC800F027F8103419
:10051000AC42F8D300F016F8A80D0000C80D00009A
:100520000800000061050000910500009F05000023
:10053000B7050000BF05000059030000C705000013
:10054000C90500007847C046E2FEFFEA7847C0468A
:1005500064FFFFEA7847C04661FFFFEA18470000E2
:100560000A4D04002868002805D04162002120308F
:10057000417000F063FA02202C606070E078C046A1
:10058000C046FFF7EDFE2000FFF760FE18000040B8
:1005900001000068002801D002680A6070478142AB
:1005A00002D342688A4201D20120704702680A6081
:1005B0000160002070470188491C01807047018854
:1005C000491E01807047704770470000020000EA32
:1005D000043090E4042042E2043081E4000052E35D
:1005E000FAFFFF1A1EFF2FE11EFF2FE10000A0E31C
:1005F000000052E30420421204008114FBFFFF1AA2
:100600001EFF2FE110B4002A06DA52005208D21D54
:10061000D308DB00102203E0D21C93089B000C22BD
:10062000002B02D09C188C4202D9012010BC7047CC
:100630004118041D0AC48218C91A0260D0188842E1
:1006400002D810600200F9E700201060EEE7000019
:100650000E4910B54A680C480D4903680988934251
:1006600003D00260C2885218828082888A4208D1F0
:1006700000210160054800F095F80100034800F0F2
:100680004DF910BC08BC184728000040C4070040C2
:100690003000004070B51C4DE868002831D0A88AB1
:1006A000401E0026A88226E0A068002808D06168C5
:1006B00041606068002802D0A16881606660A66021
:1006C00011482100183800F029F9A08AA882607822
:1006D000042804D10D49E08A09884018A08201202D
:1006E000202160700855E068E860E068002801D0CB
:1006F0000561E6602661A88A002802D1EC68002C1A
:10070000D2D170BC08BC1847DC0700403000004064
:1007100070B504000FD00D4DA178286801268278AD
:1007200091420DD900F01AF928684670200000DFC8
:1007300070BC08BC1847064800F034F800DFF7E743
:1007400003482100667000F0E9F8F1E71800004066
:10075000C407004010B50400008B08432083627872
:10076000618B062A17D0052A12D10A0010420FD039
:100770000240628388432083200000F013F90120A7
:1007800060700221202001550548210000F0C6F8C4
:1007900010BC08BC18470A008243EBD0F8E7000001
:1007A000C407004001004068002243684B600B789A
:1007B000022B05D0012B03D0032B01D042607047E0
:1007C0004368002B01D0996042608260704700004E
:1007D00070B5040016000020012220706270A17024
:1007E0006060A060E0602061A082E082250020833C
:1007F0002035608328706B70608C002802D105481A
:1008000001DFA0623100200000F012F870BC08BCCB
:1008100018470000700100400348002101600349AF
:100820000968491EC180704728000040900D0000F3
:1008300030B4428C920803D1134A12681204920C0D
:10084000836A92009A18530700D5121F21231B5C5C
:10085000002B11D00D4B403A9363CB07D16302D0EC
:100860000A4B20339363C4690123146000249D0064
:100870005B1C0E2B5451FAD34262C1620449806A58
:10088000016030BC704700008C0D0000100000407B
:10089000A52E5AE270B5040040680D00002600281D
:1008A00005D06078022819D0A08900281ED0A08920
:1008B000E18988422CD2208980000019056120003E
:1008C0000C3003DF2089401C0004000C2081E189EA
:1008D000884200D1268170BC08BC18472000667091
:1008E000FFF760FF04002030067007E02000FFF7EC
:1008F00059FF04000421C56120300170012060709F
:10090000200000F04FF80448210000F007F8E2E76B
:100910000320FFF71BFEDEE7C407004030B4027877
:100920000023022A03D0012A01D0032A00D1012387
:100930008C7800E010004268002A02D09578A54229
:10094000F8D24A60002B416005D0002A00D09160A7
:10095000886030BC70470020FAE70000034900239C
:100960004A6883604260486070470000C4070040E6
:1009700010B583680400002B05D1607801280CD1E4
:10098000074B03E09B6818780028FBD0200000F09C
:100990001FF821001800FFF7C1FF10BC08BC184762
:1009A000C407004010B4016900290FD0C3680022B9
:1009B000CB60C368002B07D08B8A848A1B198B827B
:1009C000C3681961C26000E08A82026110BC70478E
:1009D0008168002907D042684A604168002901D037
:1009E000806888607047064906E04A68824202D102
:1009F00040684860704711000029F6D17047000038
:100A0000C407004010B54168002910D0FFF7CAFEA6
:100A10000400FFF7C7FF012060700321202001556B
:100A200005482100FFF77AFF10BC08BC1847418831
:100A3000491C4180F8E70000C4070040084810B591
:100A40000068243003C8884203D3086805498842F7
:100A500002D00120FFF77AFD10BC08BC1847000047
:100A600018000040A52E5AE2C046C04605DF00200F
:100A7000264A2749040002E08300401CD4500B881A
:100A80009842F9D32348302201882348FFF7BAFD62
:100A9000224801210068C9070004000C42182048C0
:100AA00001682048FFF7AEFD1F48082201881F4853
:100AB0000068FFF7A7FD1E4DFF20E87000231D4AC8
:100AC000190028006C84FFF783FE1B480421017085
:100AD00044601A480170C460046184822800FFF7F2
:100AE00035FB1748184905600220687015480470E6
:100AF00044700978C170FFF705FCFFF78DFE1348BD
:100B0000FFF732FBFFF7E8FBFEE700007C07004041
:100B1000880D00009C0D0000400000408C0D00007E
:100B2000A00D000070010040A60D00000000004074
:100B300094070040DC020000C4070040DC070040CE
:100B400018000040F8060040A40D0000690C0000E9
:100B50002D4E0100306821224162012111540027ED
:100B60004170FFF7FBFE294C6079002808D0FFF7A1
:100B7000DFFB216888420ED2FFF7DEFB00280AD196
:100B8000C046C046FFF764FD21490888401C088024
:100B9000FFF780FD0127002060711E4C657811E091
:100BA000E800011948680278002A12D0012A16D0FC
:100BB000FFF728FFE0786D1C854200D10025A01CBE
:100BC000FFF7B4FAA0780028EAD1012F65700AD0A7
:100BD0000BE089680904090CFFF7BCFDEAE78968A6
:100BE000FFF758FEE6E700F019F8FFF727FF0A487D
:100BF000FFF7D8FD022130604170C078C046C04682
:100C00003068FFF7F1FA00001800004020000040B3
:100C100030000040F8060040C407004070B50E4C9C
:100C20002068002814D0A0880C4E401EA08009E047
:100C3000E888FFF78FFCA8882900A080286820603A
:100C4000306802DFA088002802D12568002DEFD18E
:100C500070BC08BC18470000340000400000004091
:100C600001C08FE21CFF2FE1FFB50D0016001F0031
:100C700081B005DF280600D16D1C1C4801DF04008F
:100C80000FD02802000CA66260842906E761019A51
:100C9000090E01232000FFF79BFD1549154A01208D
:100CA0000DE0FFF75DFB002005B0F0BC08BC184765
:100CB00083005B18403BDB6B002B10D0401C13887B
:100CC0009842F5D9E178E06AFF310131C046C0466B
:100CD0002000FFF71DFDFFF743FBE078E4E783000A
:100CE00059184039CC63E070ECE700004000004048
:100CF0007C070040880D000001C08FE21CFF2FE13F
:100D000070B504000E0005DF1B4D002C0FD01B48F2
:100D1000008884421BD81A48A10008184038C46BC8
:100D2000002C14D0A6702868844202D015E02868F0
:100D30008670144840688078B04219D911482968F3
:100D4000FFF7ECFD29680120487000200EE0FFF756
:100D500007FBFF2070BC08BC18472000FFF708FE07
:100D60006078012804D10748FFF71CFDFFF7D0FC8D
:100D7000FFF7F6FA0020EDE718000040880D0000AC
:100D80007C070040C407004006000000C8000001C6
:100D90001400010030750000000001002C0100006B
:100DA0008805000010000000C80D00000000004091
:100DB0003C000000CC050000040E00003C00004098
:100DC0006C080000EC0500000000000000000000BE
:100DD0000000000000000000000000000000000013
:100DE0000000000000000000000000000000000003
:100DF00000000000000000000000000000000000F3
:040E000000000000EE
:04000005000000D027
:00000001FF
