:020000040000FA
:1000000008020010E1000000E9000000EB00000021
:10001000ED000000EF000000F10000000000000013
:10002000000000000000000000000000F3000000DD
:10003000F500000000000000F7000000F9000000DB
:10004000FB000000FB000000FB000000FB000000C4
:10005000FB000000FB000000FB000000FB000000B4
:10006000FB000000FB000000FB000000FB000000A4
:10007000FB000000FB000000FB000000FB00000094
:10008000FB000000FB000000FB000000FB00000084
:10009000FB00000089010000FB000000FB000000E5
:1000A000FB000000FB000000FB000000FB00000064
:1000B000FB000000FB000000FB000000FB00000054
:1000C000FB000000FB000000FB000000DFF80CD08C
:1000D00000F0C0F8004800470501000008020010C9
:1000E0000648804706480047FEE7FEE7FEE7FEE7D2
:1000F000FEE7FEE7FEE7FEE7FEE7FEE7AF040000EF
:10010000CD0000004FF0000400F0D1F900F0F8F845
:100110004FF08060214908614FF0010020490864D8
:1001200088654FF008001F4908601F49C1F8480161
:100130004FF000001D4908604FF015004FF001011D
:1001400001FA00F14FEA50124FF0E02303EB820274
:10015000C2F8001100BF16E000BF15480078002863
:10016000FBD04FF000001249087034B94FF0010085
:100170000B49C8654FF0FF0405E04FF00100084946
:1001800088654FF00004E7E74FF0FF00084908706A
:100190004FF00800034908607047000000C00240AB
:1001A00000C0092040C10F4000C00F404CC10F40AB
:1001B000000000102DE9F05F0546002092469B46A6
:1001C00088460646814640241BE02846414647466D
:1001D000224600F02FF852465B46801A994110D310
:1001E00010461946224600F016F82D1A67EB010852
:1001F0004F4622460120002100F00DF817EB0009C0
:100200004E41201EA4F10104DFDC484631462A4657
:100210004346BDE8F09F202A04DB203A00FA02F1B1
:10022000002070479140C2F1200320FA03F31943E4
:1002300090407047202A04DB203A21FA02F0002186
:10024000704721FA02F3D040C2F1200291400843E6
:1002500019467047064C074D06E0E06840F0010380
:1002600094E8070098471034AC42F6D3FFF732FF0A
:1002700098020000B802000002E008C8121F08C17E
:10028000002AFAD170477047002001E001C1121F17
:10029000002AFBD170470000440500000000001058
:1002A00008000000780200004C0500000800001063
:1002B00000020000880200000000000000000000B2
:1002C000000000000000000000000000000000002E
:1002D000000000000000000000000000000000001E
:1002E000000000000000000000000000000000000E
:1002F000000000000000000000000000FFFFFFFF02
:100300002DE9F04783480068C0F3016003287ED1DF
:1003100080488430006810F0030006D0012832D0F5
:1003200002285ED003282DD100E000BF7948006884
:10033000C0F3074000F1010C4FF002017648D0F8FD
:100340008800C0F30E0000F10100A1FB0001734A18
:100350004FF00003A0FB026901FB029100FB0311B7
:1003600062463046FFF726FF04466D480068C0B27B
:1003700000F1010632464FF000032046FFF71AFF56
:10038000684908605FE063480068C0F3074000F117
:10039000010C4FF002016048D0F88800C0F30E0055
:1003A00000F10100A1FB00125F4B4FF00000A1FB28
:1003B000036902FB039201FB0021624603463046BB
:1003C000FFF7F8FE044656480068C0B200F1010687
:1003D00032464FF000032046FFF7ECFE514908601B
:1003E00031E04C480068C0F3074000F1010C4FF0C9
:1003F00002014948D0F88800C0F30E0000F1010066
:10040000A1FB00024FF400434FF0000100E01BE0AD
:10041000A0FB036902FB039200FB012762460B4627
:1004200030463946FFF7C6FE04463D480068C0B274
:1004300000F1010632464FF000032046FFF7BAFEF6
:100440003849086000BF30E035480830006810F0D7
:10045000030006D0012810D0022819D0032823D188
:1004600000E000BF2E480068C0B200F101002B4937
:10047000B1FBF0F02B49086016E029480068C0B2D3
:1004800000F101002849B1FBF0F0264908600BE0BB
:1004900023480068C0B200F101004FF40041B1FBF5
:1004A000F0F02049086000BF00BFBDE8F0874FF0C2
:1004B00020001E4908601848D0F8A00110F0200F55
:1004C00005D000BF1948006810F0400FFAD04FF077
:1004D00003001349086016480F49C1F8A8011548E0
:1004E000154908604FF00100144908604FF00400FE
:1004F000A1F10401086049F2DE301149086040F2C0
:1005000001100549C1F8C8010846006820F4704090
:100510000860704788C00F4000C00F4000093D00D0
:1005200004C10F4004000010001BB700A0C10F4021
:100530005551515555545554ACC10F400CC10F4045
:0C054000C4C00F4000000000C0C62D0029
:04000005000000CD2A
:00000001FF
