:020000040000FA
:10000000700200108D0100009501000097010000B2
:10001000990100009B0100009D010000000000000C
:100020000000000000000000000000009F01000030
:10003000A101000000000000A3010000A5010000D4
:10004000A7010000A7010000A7010000A701000010
:10005000A7010000A7010000A7010000A701000000
:10006000A7010000A7010000A7010000A7010000F0
:10007000A7010000A7010000A7010000A7010000E0
:10008000A7010000A7010000A7010000A7010000D0
:10009000A7010000A7010000A7010000A7010000C0
:1000A000A7010000A7010000A7010000A7010000B0
:1000B000A7010000A7010000A7010000A7010000A0
:1000C000A7010000A7010000A701000000F002F84E
:1000D00000F04CF80AA090E8000C82448344AAF196
:1000E0000107DA4501D100F041F8AFF2090EBAE894
:1000F0000F0013F0010F18BFFB1A43F0010318475C
:10010000AC1E0000CC1E0000103A24BF78C878C195
:10011000FAD8520724BF30C830C144BF04680C600D
:10012000704700000023002400250026103A28BF55
:1001300078C1FBD8520728BF30C148BF0B60704759
:10014000662901F0D286782900F064840020704787
:100150001FB501F0BEFE00F0CBF804000020002126
:1001600001F0D2FCE0601FBD10B510BD01F080F8B9
:100170001146FFF7EDFF00F00BFA01F09EF803B413
:10018000FFF7F2FF03BC01F0DFF8000009488047E9
:1001900009480047FEE7FEE7FEE7FEE7FEE7FEE769
:1001A000FEE7FEE7FEE7FEE704480549034A054B84
:1001B000704700002F090000CD0000007000001003
:1001C000700200107000001053EA020C00F0698009
:1001D0002DE9F04B4FF00006002B1FBFB3FA83F55B
:1001E00003FA05F424FA05F65E4012BF1643B2FA8C
:1001F00082F502FA05F4C5F120051EBF22FA05FCBE
:1002000044EA0C04203556EA044C4FEA144418BF63
:10021000641C4FF000084FF00009904271EB030C92
:1002200039D3002919BFB1FA81F701FA07F6B0FAFC
:1002300080F700FA07F6C7F120071EBF20FA07FC77
:1002400046EA0C062037B6FBF4FCA7EB0507103F87
:1002500007F01F0BCBF120060CFA0BFB2CFA06F66D
:1002600044BFB3460026202FA4BF5E464FF0000BCC
:100270005BEA060C08BF4FF0010B19EB0B09ABFB57
:10028000027C48EB0608C01B06FB02CC0BFB03CC30
:1002900071EB0C01C1E70B46024641464846BDE8FA
:1002A000F08B13B54FF000004FF00001AFF300806A
:1002B000BDE81C40704700000FB41CB5074B06AAF0
:1002C0007B4469460090059800F0C5FE0020694611
:1002D00000F009F81CBC5DF814FB000023000000CE
:1002E0007047704770470A6802F8010B0A60704750
:1002F000004870472C00001070470000FFFFFFFF10
:100300004FF0000101E001F101018142FBD3704790
:100310004FF470009749C8634FF00070C8674FF002
:100320008060C8674FF0805093490860704700B5FF
:10033000FFF7EEFF914800688E4948634FF08060F8
:10034000C8674FF00070C8674FF080508C49086054
:100350004FF01900FFF7D4FF4FF080508549C1F8E6
:100360009C0000BD00B58748006800F0F00083499C
:100370000860084600684FEA00400860FFF7D7FFB2
:100380008048006800F00F007C490860084600685B
:100390004FEA00500860FFF7CAFF4FF47A70FFF78A
:1003A000AFFF00BD00B57848C06820F47F407649B3
:1003B000C8600846C06920F44020C8610846C0698A
:1003C00020F44010C8610846406A20F0407048623E
:1003D0006848006A40F47000664908620846006E8A
:1003E00040F0007008660846006E40F080600866C5
:1003F0006648006840F08050C1F88000FFF788FF31
:100400004FF030005D490860FFF791FF47F2305030
:10041000FFF776FF4FF0300058490860FFF787FF7D
:1004200047F23050FFF76CFF4FF03000534908603F
:10043000FFF77DFF47F23050FFF762FF4FF02000DB
:100440004E490860FFF773FF47F23050FFF758FF3F
:100450004FF028004B490860FFF784FF47F2305007
:10046000FFF74EFF4FF00C0046490860FFF77AFF98
:100470004FF44870FFF744FF4FF006004149086011
:10048000FFF770FF4FF44870FFF73AFF4FF001009D
:100490003C490860FFF766FF42F21070FFF730FF3B
:1004A0004FF0800037490860FFF75CFF4FF4487059
:1004B000FFF726FF00BD00B5FFF72AFF2F480068B1
:1004C0002C4948634FF0007088674FF08060C86720
:1004D0004FF080502A4908604FF01900FFF710FFD5
:1004E0004FF080502349C1F89C0000BD00B525485D
:1004F000006800F0F00021490860084600684FEAF3
:1005000000400860FFF7D7FF1E48006800F00F00AA
:100510001A490860084600684FEA00500860FFF773
:10052000CAFF4FF47A70FFF7EBFE00BD00B54FF045
:10053000010014490860FFF715FF42F21070FFF741
:10054000DFFE00BD10B504464FF000030EE0E05C96
:100550000C490860FFF7CAFF03F10103102B05D116
:100560004FF0C00007490860FFF7FCFEE05C002880
:10057000EDD110BD00C009209CC00920040000106E
:1005800098C009200000001000C0024080C009206F
:1005900092B061A2D2E901311068D268CDE90B3185
:1005A0000D920A9060A30FCBCDE90823CDE9060197
:1005B00061A207CA03AB07C362A207CA8DE807009E
:1005C00000F0B5F900F0DCF86148006840F4004044
:1005D0006049C1F8C400FFF7E5FE5F48406820F4B9
:1005E00088205D4948600846406840F48040486083
:1005F0005848D0F8C40040F480505649C1F8C400AF
:1006000000F0BEF84FF0800054490860FFF7AAFEE2
:100610004FF44870FFF774FE03A8FFF793FF4FF005
:10062000C0004E490860FFF79DFE4FF44870FFF789
:1006300067FE6846FFF786FF6CE049484949086055
:100640004FF0000601E006F10106B6F5FA6FFAD3A5
:1006500000BF444840680746B0F1004FF9D0414818
:1006600047684FEA1717C7F30B07384601F056FBE8
:1006700005463D4901F066FB04463C4901F08CFA11
:100680008046404601F05CFA044622460B4638A1FB
:1006900010A8FFF711FE3A4637A10EA8FFF70CFE8F
:1006A0004FF0000601E006F10106B6F5FA6FFAD345
:1006B0004FF08A0029490860FFF754FE4FF4487054
:1006C000FFF71EFE10A8FFF73DFF4FF0CB002349B8
:1006D0000860FFF747FE4FF44870FFF711FE0EA8C1
:1006E000FFF730FF4FF0000601E006F10106234856
:1006F0008642FAD34FF0000607E04FF000000EA943
:10070000885510A9885506F10106072EF5D34FF03C
:100710000007B84691E70000414C532042454E4740
:10072000414C555255000000414420434F4E564520
:100730005254455200000000414E414C4F47204961
:10074000503A0000414443204F55545055543A000C
:10075000C4C00F4000C00F4000C0024000000010A5
:1007600001002001004003403333534000F07F4537
:1007700025332E326656000025780000400D030018
:100780002DE9F04783480068C0F3016003287ED15B
:1007900080488430006810F0030006D0012832D071
:1007A00002285ED003282DD100E000BF7948006800
:1007B000C0F3074000F1010C4FF002017648D0F879
:1007C0008800C0F30E0000F10100A1FB0001734A94
:1007D0004FF00003A0FB026901FB029100FB031133
:1007E00062463046FFF7F0FC04466D480068C0B230
:1007F00000F1010632464FF000032046FFF7E4FC0B
:10080000684908605FE063480068C0F3074000F192
:10081000010C4FF002016048D0F88800C0F30E00D0
:1008200000F10100A1FB00125F4B4FF00000A1FBA3
:10083000036902FB039201FB002162460346304636
:10084000FFF7C2FC044656480068C0B200F101063A
:1008500032464FF000032046FFF7B6FC51490860CE
:1008600031E04C480068C0F3074000F1010C4FF044
:1008700002014948D0F88800C0F30E0000F10100E1
:10088000A1FB00024FF400434FF0000100E01BE029
:10089000A0FB036902FB039200FB012762460B46A3
:1008A00030463946FFF790FC04463D480068C0B228
:1008B00000F1010632464FF000032046FFF784FCAA
:1008C0003849086000BF30E035480830006810F053
:1008D000030006D0012810D0022819D0032823D104
:1008E00000E000BF2E480068C0B200F101002B49B3
:1008F000B1FBF0F02B49086016E029480068C0B24F
:1009000000F101002849B1FBF0F0264908600BE036
:1009100023480068C0B200F101004FF40041B1FB70
:10092000F0F02049086000BF00BFBDE8F0874FF03D
:1009300020001E4908601848D0F8A00110F0200FD0
:1009400005D000BF1948006810F0400FFAD04FF0F2
:1009500003001349086016480F49C1F8A80115485B
:10096000154908604FF00100144908604FF0040079
:10097000A1F10401086049F2DE301149086040F23B
:1009800001100549C1F8C8010846006820F470400C
:100990000860704788C00F4000C00F4000093D004C
:1009A00004C10F4008000010001BB700A0C10F4099
:1009B0005551515555545554ACC10F400CC10F40C1
:1009C000C4C00F4070B50446856900683026C10672
:1009D00000D42026C00708D070BDD4E901213046DC
:1009E0009047206A00F1010020626D1EF5D570BDB0
:1009F00070B5044685690068C00708D170BDD4E9A8
:100A0000012120209047206A00F1010020626D1E24
:100A1000F5D570BD70B504460D4621461068AFF39C
:100A200000802168090502D5104A7A4402E00F4A85
:100A30007A440E32002104F1240307E000F00F068F
:100A40004FEA1010965D5E5401F101010028F5D1C6
:100A500020680023000704D5702D02D009B111329F
:100A600002232046BDE8704000F089B8C0140000A1
:100A70002DE9F0474FF0000A04468946C0F820A04F
:100A80002046E1688847002876D0252806D0D4E99A
:100A900001219047206A401C2062F1E7E16820466E
:100AA00000258847C4F81CA006460027C4F818A0F3
:100AB0002A2E09D0304601F020F838B304EB87081D
:100AC000303EC8F8186019E059F8041B204604EBC2
:100AD00087029161E1688847012F064618D1E069D5
:100AE000002820DA25F020051DE0D8F8180000EBDA
:100AF000800006EB40003038C8F818002046E16856
:100B00008847064600F0F9FF0028EED1012F0AD0F1
:100B10002E2E08D12046E16888477F1C0646022F0A
:100B200045F02005C4DBA069002803DA404245F007
:100B30000105A061E80701D025F01005B6B1A6F1C6
:100B40004100192802D8203645F400654A4631464E
:100B5000204625604D46FFF7F3FA58B1012806D02C
:100B6000ED1D25F0070000F1080989E704E005F113
:100B7000040985E730468AE7206ABDE8F0872DE959
:100B8000F0470D4604469246994600F12408016854
:100B9000880604D5E06921F01001216000E0012001
:100BA0000027A84201DDA0EB0507A16907EB0502BC
:100BB00002EB0300A1EB0000A0612068C00602D494
:100BC0002046FFF7FFFE002608E0D4E901211AF8CD
:100BD00006009047206A401C761C20624E45F4DBDC
:100BE0002068C0060AD52046FFF7ECFE06E0D4E9EF
:100BF000012130209047206A401C2062381EA7F156
:100C00000107F4DC07E0D4E9012118F8050090475A
:100C1000206A401C2062281EA5F10105F3DC204655
:100C2000FFF7E6FE21680220090600D40120BDE896
:100C3000F08770472DE9FF4F0C461E464FF0FF37F7
:100C40008DB0D2E90001DDF868800A908946C1F3D1
:100C50000A5505B93D46002108464FF00000B9F19C
:100C6000000F00F4400005DA00EB80004FF4400173
:100C700001EA50004FEA905ABAF1010F00DDBA467E
:100C80000A9850EA490030D044F61050A5F2FF35DA
:100C90004543CAF100000B902F14B8F1000F3DD06E
:100CA00075420B9A291E00DC524600DA694206A8FA
:100CB00000F068FA06AB07CB03AB07C348460A99B6
:100CC00000F04CFB8DE80700A0F500501F380090A5
:100CD0000398002D25DD42F21F015246084403A966
:100CE0000390684600F0ABFD24E0B8F1010F4FF02F
:100CF000000001D1F24307E0302101E02154401C03
:100D0000B042FBDB30460022002121540D99C1F88E
:100D10000880C1E9002011B0BDE8F08FBD1B6D1C3B
:100D2000BFE7A0F5005052461F3803A9039068465C
:100D300000F099FD8DE807000004000C03D04FF08F
:100D4000FF30410800E01046B8F1000F03D0002248
:100D5000009215461FE0751E06D400F08FF902F1CF
:100D6000300262556D1EF8D5B3460122084302D009
:100D700000227F1C04E02078302801D100227F1E51
:100D8000002A099789D01DE0112D07DA00F076F9C5
:100D9000303262556D1C50EA0102F5D108430FD183
:100DA0000021681E05E0235C625C6354491C2254E8
:100DB000401E8142F7DBAB46A81B401E099001E0B4
:100DC000009848B1002004F80B000D98099AC0F86B
:100DD0000880C0E9002B9EE711264FF000085CE771
:100DE0002DE9F04F88460446D21D22F0070191B04C
:100DF000D1E90001CDE90A0100F06BFE02460B9833
:100E0000C10F4FF02D0007D123682B205FEA837CB0
:100E100002D4202000EAC300032A099001D0072A47
:100E200005DB03464146204600F06EF90BE12068E1
:100E3000800601D5E06900E0062011238146B8F163
:100E4000650F06D0B8F1660F16D0B8F1670F6ED1F6
:100E500030E00020B9F1110F0090484600DA431C41
:100E60000AAA01A90CA8FFF7E5FEDDE90C7000262F
:100E700009F10105834646E001204B4600904FF002
:100E800000470AAA01A90CA8FFF7D4FEDDE90DB0BE
:100E90000C995D46002618B909F1010001EB000527
:100EA000B9EB050003D4C0F1FF3609F10105A5EB4C
:100EB000090029E0B9F1010F01DA4FF00109002022
:100EC000B9F1110F0090484600DC03460AAA01A9B7
:100ED0000CA8FFF7AFFEDDE90C704D4600268346F7
:100EE000206800070AD4AB4500DA5D4601A8012D51
:100EF00004DD411911F8011C302907D04F4502DAF1
:100F000017F1040F04DA0120824610E06D1EEEE7AF
:100F1000002F02DCED1B3E4403E0781CA84200DDFC
:100F20000546A7EB060000F1010A4FF000472068D4
:100F3000000703D4AA4501DB4FF0FF3A0021B7F1C7
:100F4000004F0DF143088DF8431022D002202B23CF
:100F5000002F01DA7F422D230A22011EA0F1010099
:100F600000DC4FB197FBF2F102FB117C0F460CF154
:100F7000300C08F801CDF0E7A8F101004FF0450171
:100F800003702268120500D46521A0F1010800F861
:100F9000011C09980FA9A1EB080707F1070700B189
:100FA000012000EB050101EBEA70A1693844A1EBD7
:100FB0000000A0F10100A0612068C00602D4204614
:100FC000FFF700FD099830B1D4E901219047206A6C
:100FD00000F1010020622068C00620D52046FFF7FE
:100FE000F1FC1CE0002E04DBB34502DD01A8805DAE
:100FF00000E03020D4E901219047206A761C401C93
:10100000BAF1010A20620AD1FFF772F9C0680168DB
:10101000405CD4E901219047206A401C2062281ED0
:10102000A5F10105DEDC07E0D4E9012118F8010B88
:101030009047206A401C2062381EA7F10107F3DCAC
:101040002046FFF7D5FC022065E6000001694A1C36
:1010500002610878704700B58FB0CDE901310021F9
:10106000059105497944CDE9031011466846FFF71B
:10107000FFFC0FB000BD0000E5FFFFFF30B5B0F191
:101080000A024FEA900E71F100034EEA817EB0EB46
:101090000E0061EB91014FEA101E4EEA017E10EB4B
:1010A0000E0041EB11114FEA102E4EEA016E10EBCB
:1010B0000E0041EB11214FEA104E4EEA014E10EBAB
:1010C0000E0041EB1141401841F100014FEAD00000
:1010D00040EA41704FEAD10110EB80054FEA8104EC
:1010E00044EA907444EB01046D1944EB0404521B70
:1010F000A3414FF0000348BF0A3200D530BD401C69
:1011000041F1000130BD00002DE9F04104461F46C9
:1011100003260168072A01F4006003DB15A520B946
:1011200015A502E015A500B915A521F01000206055
:10113000A069C01EA0610FB1401EA0612046FFF74C
:1011400041FC4FB1D4E9012138469047206A401C48
:101150002062C01C206206E0206AFAE7D4E901217F
:1011600015F8010B9047761EF8D22046FFF740FC99
:10117000BDE8F0814E414E006E616E00494E460062
:10118000696E66002DE9F047814616468AB03548FB
:101190007844D0E9002380680092CDE901303148DD
:1011A00078440C38D0E90223006903924FF03702EB
:1011B000CDE9043041F69B30014491FBF2F0A0F1FF
:1011C000800502FB10141B3C02D56442012000E0A4
:1011D0000020DFF890A080460027FA44AAF1C60A52
:1011E0000DE0E00709D03246684607EB47010AEBFD
:1011F000810100F038FB8DE8070064107F1C002C93
:10120000EFD1184F7F44B43F17E0E80713D007EB46
:1012100004100DF1180A90E80E00AAE80E00C0684C
:10122000F04201D198190890324606A903A800F0AF
:101230001AFB03AB07C36D10641C002DE5D13246C9
:101240006946B8F1000F03A802D000F0F8FA01E0F7
:1012500000F009FBC9E90001C9F808200AB0BDE89F
:10126000F0870000000E0000004870470C000010DE
:101270007546FFF7F9FFAE4605006946534620F074
:101280000700854618B020B5FEF78EFFBDE8204068
:101290004FF000064FF000074FF000084FF0000B32
:1012A00021F00701AC46ACE8C009ACE8C009ACE8E5
:1012B000C009ACE8C0098D4670470446AFF3008012
:1012C0002046FEF75CFF00004FF0013C50F8042B75
:1012D00051F8043B9A4221D1A2EB0C03934313EA49
:1012E000CC1317D150F8042B51F8043B9A4215D176
:1012F000A2EB0C03934313EACC130BD150F8042B4D
:1013000051F8043B9A4209D1A2EB0C03934313EA30
:10131000CC13DBD04FF00000704700BFD01A01BAE9
:10132000B1FA81F101F0180122FA01F0CB40C1F1CC
:101330002001DBB2C0B2C01A2CFA01F3D11A9143DA
:1013400011EAC311E6D1704701491820ABBEFEE790
:101350002600020000487047100000105FEA400CB1
:1013600008BF91F0000F4FEA8C234FEAC12243EAF5
:1013700051514FEA1C5018BF00F5F0404FEA3000C1
:1013800018BF41F000415FEA6C5C00F02980BCF1BD
:10139000FF3F08BF40F080407047130C06BF1204A7
:1013A0004FF0100C4FF0000C130E04BF12020CF1A2
:1013B000080C130F04BF12010CF1040C930F04BFAF
:1013C00092000CF1020CD30F04BF52000CF1010C7F
:1013D00011464FF00002A0F11F00A0EB0C00704777
:1013E00011F0004F08BF704731F000413FF4D5AF16
:1013F0000B0C06BF09044FF0100C4FF0000C0B0E45
:1014000004BF09020CF1080C0B0F04BF09010CF119
:10141000040C8B0F04BF89000CF1020CCB0F04BF2E
:1014200049000CF1010CCCF12003A0EB0C0022FAD6
:1014300003F302FA0CF241EA030100F101007047E4
:1014400020F07F4C80EA030023F07F47ACEB0703DA
:1014500003F57C5300F0004003F1FF032DE98049C0
:101460004FEA154B09B44FEA144325EA0B4E24EA20
:1014700003480FF2042606EB132749083E785FEA7B
:10148000320203FB0667C7F5000707FB06F64FEAC3
:1014900054374FEAD64606F1020607FB066CCCF13C
:1014A000005C4FEA1C472CEA074C07FB06F40CFBD8
:1014B00006F504EB15464FEA961634BF00204FF0B0
:1014C00000404FEAD13706FB07FC4FEA1C4C0CFBEF
:1014D0000BF7D21B03FB0CF761EB07010CFB0EF7BC
:1014E000B0EB074072EB17420CFB08F734BFA2EBDE
:1014F0000742B2EB074261EB17414FEA0C444FEA57
:10150000910706FB07FC4FEA1C4C0CFB0BF7B0EBFA
:10151000C74072EB573203FB0CF734BFA2EBC74254
:10152000B2EBC74261EB57310CFB0EF7B0EBC700D3
:1015300072EB57720CFB08F734BFA2EBC702B2EB99
:10154000C70261EB5771039F4FEA816141EA921133
:1015500004EBCC044FEAD1374FEA826206FB07FC6A
:1015600042EA90124FEA80604FEA1C4C0CFB0BF7EA
:10157000D21B03FB0CF761EB07010CFB0EF7B0EB82
:10158000074072EB17420CFB08F734BFA2EB07428F
:10159000B2EB074261EB17414FEA8C554FEA9107D6
:1015A00004EB9C2406FB07FC4FEA1C4C0CFB0BF7DE
:1015B000B0EBC74072EB573203FB0CF734BFA2EB22
:1015C000C742B2EBC74261EB57310CFB0EF7B0EBF1
:1015D000C70072EB57720CFB08F734BFA2EBC702CF
:1015E000B2EBC70261EB577115EB4C254FEA8161F5
:1015F00041EA92114FEA82624FEAD13742EA9012F1
:1016000006FB07FC44F100044FEA80604FEA1C4CE3
:101610000CFB0BF7D21B03FB0CF761EB07010CFB78
:101620000EF7B0EB074072EB17420CFB08F734BF24
:10163000A2EB0742B2EB074261EB174115EB1C1519
:101640004FEA813141EA92414FEA823242EA9042C6
:101650004FEA80304FEA0C7644F1000448EA034335
:101660004EEA0B484FF0000EB2EB080C71EB03078B
:1016700024BF624639464EEB0E0E4FF0000B0018A9
:10168000524149414BEB0B0BB2EB080C71EB0307DA
:101690007BF1000B24BF624639464EEB0E0E4FF035
:1016A000000B0018524149414BEB0B0BB2EB080CFD
:1016B00071EB03077BF1000B24BF624639464EEB0A
:1016C0000E0E51EA020718BF46F0010616EB0E7621
:1016D00055F1000254F1000103D5BDE88901BDE8D0
:1016E0000088BDE88901BDE80048B619524141EBC8
:1016F0000101A3F10103704780807F7E7D7C7B7AAE
:101700007978777676757473727171706F6E6E6DAD
:101710006C6C6B6A6A696868676666656464636353
:1017200062616160605F5F5E5E5D5D5C5C5B5B5AD9
:101730005A59595858575756565555555454535346
:1017400052525251515050504F4F4F4E4E4D4D4DA1
:101750004C4C4C4B4B4B4A4A4A49494948484847EC
:10176000474747464646454545444444444343432A
:101770004342424242414141002B26D4770021D0CE
:101780001CB54FEA370703B44FF010004FF01001BB
:101790004FF000000FBCBDE810400BF1010BBBF196
:1017A000010F08BF5FEA170722BF12F1010211F112
:1017B00001014FF0004143F1000300F0004043EA13
:1017C00000007047F9D35708DAE746EA064613F1F6
:1017D000400F4FEA16461FDD13F1200FDFBF1643FF
:1017E0000A46002120335B42C8D0C3F1200746EAF5
:1017F000064602FA07F74FEA164646EA0706C3F11D
:10180000200722FA03F201FA07F721FA03F14FF059
:10181000000342EA0702B1E746EA020646EA064644
:101820004FEA164646EA0106BCBF46EA0646360CB3
:101830004FF000034FF000024FF000019EE72DE94A
:10184000C048934630B491E8380007C831EA400CEC
:1018500048BF34EA430C03D5FFF7F2FDFFF78CFFD6
:10186000F0BCBDE800882DE9C048934630B491E84B
:10187000380007C810F0804F08BF13F0804F03D125
:1018800000F005F8FFF778FFF0BCBDE8008820F015
:101890007F4780EA030023F07F4C07EB0C03A3F59E
:1018A0007C5300F00040A3F1FE0392F0000F00F023
:1018B000B38095F0000F00F077802DE901494FEAE1
:1018C00011404FEA144621EA004800FB06FC24EAD6
:1018D000064708FB06F607FB08F800FB07F718EBBE
:1018E00006484CEB164C4FEA124B18EB07484FEAF0
:1018F00015464CEB174022EA0B4E0BFB06FC25EA83
:1019000006470EFB06F607FB0EFE0BFB07F71EEB6A
:10191000064E4CEB164C4FF000061EEB074E4CEB00
:10192000174B18EB0B0840F1000018EB0E0B58EBAF
:10193000000840F100008F1A4FF000013CBFC9437E
:10194000661B14BFB5EB040C00213CBFC943F61B5A
:101950004FEA17444EEA8E0E27EA04454FEA1C4729
:1019600004FB07622CEA074C05FB07F70CFB05F6A6
:1019700004FB0CFC16EB074642EB174216EB0C4639
:1019800042EB1C421BEB060658EB0202414146EAC1
:101990009E0601D5BDE80189B619524141EB01010E
:1019A000A3F10103BDE801894FEA14454FEA11474D
:1019B00024EA054621EA074C05FB07F406FB07F776
:1019C0000CFB06F105FB0CFC11EB074144EB174443
:1019D0004FEA124711EB0C4144EB1C4422EA074C3E
:1019E00005FB07F206FB07F70CFB06F605FB0CFCF4
:1019F00016EB074642EB174216EB0C4642EB1C4532
:101A00006A1854F1000148BF7047B619524141EBC2
:101A10000101A3F10103704795F0000F37D04FEAA1
:101A200011424FEA144721EA024624EA074C02FB1E
:101A300007F106FB07F70CFB06F402FB0CFC14EBAA
:101A4000074441EB17414FEA154714EB0C4441EBB7
:101A50001C4125EA074C02FB07F506FB07F70CFBC8
:101A600006F602FB0CFC16EB074645EB174516EB9A
:101A70000C4645EB1C42121951F1000148BF70475A
:101A8000B619524141EB0101A3F1010370474FEA3E
:101A900014454FEA114724EA054621EA074C05FBA5
:101AA00007F106FB07F70CFB06F24FF0000605FBFB
:101AB0000CFC12EB074241EB174112EB0C4251EBCD
:101AC0001C4148BF7047921841EB0101A3F101038B
:101AD0007047490050EAC12018BF04204A0D18BFC2
:101AE00040F0010040F2FF72B2EB515F08BF40F0DE
:101AF0000200012808BF0520704701460120303947
:101B00000A2900D30020704710B500290AD00878B0
:101B1000002807D005487844FFF7D6FB002801D0FD
:101B2000002010BD0248784410BD0000B60400003B
:101B3000AE0400000808A0F500114FEA310170471B
:101B400043004FEAD30C4FEA3C0C43401FBF400711
:101B50000CF1605113F0FE4F70471CF0006F03D181
:101B600000200CF0004170470CF0004343EA507035
:101B700010B540EACC0000F066F900BF000000920A
:101B80004FEA0001FFF7D6BF4FF000414FF00000D1
:101B9000A1F50021704700004FF47F0C1CEAD01221
:101BA0001EBF1CEAD11392EA0C0F93EA0C0F00F04F
:101BB000858090EA010F48BF42F4807240F4000C27
:101BC00041F400002CF07F4120F07F4000B58142BD
:101BD000A2EB03020FF2081CACEB504EC0F1000068
:101BE0009EF800E04FEA4E0E00FB0EFC38BF4900A5
:101BF0004FEA2C1C02F5FA020CFB0EF34FEACE1E44
:101C00004FEA112C4FEAC1210EEB635E42EB2242F8
:101C10000EFB0CFC4FEA1C5300FB03114FEA112C86
:101C20004FEA01310EFB0CFC4FEADC4C00FB0C11BF
:101C3000C14228BF09184CEB03335DF804EB10EBED
:101C4000410143EBC250B2F57C0F38BF704729D534
:101C500012F0F00F1CBF00F1C04000F000407047D0
:101C6000008182838485868788898B8C8D8E8F9175
:101C70009293959697999A9C9D9FA0A2A3A5A7A899
:101C8000AAACAEB0B2B3B5B7B9BCBEC0C2C5C7C9C5
:101C9000CCCED1D4D7D9DCDFE2E6E9ECF0F3F7FA29
:101CA000FE0000004FEA400C0CF1807CBCF17E4F3E
:101CB00028BF7047B0F1C04000F012B990EA010FA0
:101CC0000CEAD11348BF42F48072624538BF6345C5
:101CD00007D213F47F0F16D080EA010000F0004015
:101CE000704710B500F0AFF8097EFC3E00F005B873
:101CF00080EA010000F00040704780EA010000F037
:101D0000004000F0EDB812F47F0F04BF02487047A6
:101D100080EA010000F0E4B80000C07FB0FA80F370
:101D200010FA03F2C3F19D030AD0D90501EB12208A
:101D3000530638BF704700F1010008BF20F00100D2
:101D4000704700004FF47F0C1CEAD0121EBF1CEA43
:101D5000D11392EA0C0F93EA0C0F00F0478090EA3F
:101D6000010F48BF42F480724FF0004C4CEA002053
:101D70004CEA012102EB0302A0FB0113A2F50002D1
:101D8000002918BF43F001035B0028BF4FEA33036B
:101D900042EB22425FEA132C4CEBC2502EBFBCEB4D
:101DA000436FB2F57C0F70474FEA036CBCF1004FF4
:101DB00008BF20F00100B2F57C0F38BF70470BD58B
:101DC00082F0FF0212F5803FC8BF704700F1C040AB
:101DD000D8BF00F00040704700F5000C5FEA4C0CE3
:101DE00048BF7047B0F1C04000F07AB890EA010FE8
:101DF0000CEAD11348BF42F48072624538BF634594
:101E000004D280EA010000F00040704710B500F0F5
:101E10001AF800BF8900013E00F007B800F009B8C9
:101E20005FEA410C5FEA1C6C08D080EA010000F018
:101E300057B85FEA400C5FEA1C6CF6D14FF00040E7
:101E4000A0F5800070470EF1020E2EF0030E5EF832
:101E5000044B244204D44FEA4102B2F17F4F11D81F
:101E60004FEA4003B3F17F4F0CD80ED14FEAD07C3C
:101E7000B2F17F4F0CEB4C0C0CF1020C08BF4CEB99
:101E8000D17C04E04FF0080C01E04FEAD17C0CEB70
:101E90004C0324FA03F404F00704B4F1040C06D252
:101EA0000EEB840CBDE810404CF0010C6047DFE8FD
:101EB0000CF0070802024FF00040A0F5800010BDB2
:101EC0000846420018BFD2F1807288BF00F000407F
:101ED00010BD10B5FFF73EFA4FF00001016010BDD4
:101EE000FF2141EAD050C0057047FEF779BF30317D
:101EF0003233343536373839414243444546403031
:101F000058003031323334353637383961626364E2
:101F1000656640307800000002400000000000A02C
:101F20000000000005400000000000C800000000A4
:101F30000C4000000000409C000000001940000020
:101F40000020BCBE0000000034400000BFC91B8E52
:101F500000000004B5400000504BCFD06607E2CF30
:101F6000010000006C4100003E8251AADFEEA73460
:101F700001000000D9420000DCB5A0E23A301F9712
:101F8000FFFFFFFFB4450000FD25A0C8E9A3C14F36
:101F9000FFFFFFFFFF3F0000000000800000000087
:101FA000FF3F00000000008000000000E81F00006C
:101FB000000000100C00000008010000F41F0000E9
:101FC0000C00001064020000240100001C0000004E
:101FD00043000000F8FFFFFF0C0000000E000000AF
:101FE0000F0000002E0000000000000000000000B4
:041FF000C0C62D003A
:04000005000000CD2A
:00000001FF
