:020000040000FA
:1000000018F09FE518F09FE518F09FE518F09FE5C0
:1000100018F09FE50000A0E1F0FF1FE518F09FE554
:1000200054000000400000005402000044000000A2
:1000300048000000000000004C00000050000000DC
:10004000FEFFFFEAFEFFFFEAFEFFFFEAFEFFFFEA18
:10005000FEFFFFEA98009FE5AA10A0E35520A0E369
:100060002430A0E3043080E50130A0E3003080E5D7
:100070000C1080E50C2080E5083090E5013B13E290
:10008000FCFFFF0A0330A0E3003080E50C1080E5A0
:100090000C2080E55C009FE50410A0E3041080E5DF
:1000A0000210A0E3001080E54C009FE5DBF021E3A7
:1000B00000D0A0E1000040E2D7F021E300D0A0E1B1
:1000C000000040E2D1F021E300D0A0E1000040E2D6
:1000D000D2F021E300D0A0E1400040E2D3F021E3E0
:1000E00000D0A0E1200040E210F021E30C009FE5E9
:1000F00010FF2FE180C01FE000C01FE0D0080040CB
:10010000040100000CD09FE5CA0000EB00009FE551
:1001100010FF2FE17B030000700800407847C046C5
:1001200000C00FE19FF021E30030D1E5000053E172
:100130000600000A013083E20030C1E50030D2E55C
:10014000013083E2000053E10030A003930042E15C
:100150000CF021E11EFF2FE17847C04600C00FE1FF
:100160009FF021E30030D0E5013043E20030C0E5EC
:100170000CF021E11EFF2FE1C06A854670470000A8
:100180006B4607B406480360064807497847C046EF
:1001900000200FE10F2002E20020C1E510FF2FE157
:1001A0000C00004059090000100000408446034B39
:1001B0001B680C3B07CB0023604700000C0000408D
:1001C00003002DE900204DE900104FE101001DE979
:1001D00004E04EE2024020E9004040E9040040E231
:1001E000FC1F20E90C00BDE80C0020E90040A0E164
:1001F0009FF021E35C001FE500D090E53C009FE507
:100200000FE0A0E110FF2FE134009FE50410D0E5DE
:100210000510C0E50010A0E30410C0E51FF021E3C5
:100220000400A0E11C109FE511FF2FE10400074826
:100230007847C04693F021E310E09FE510FF2FE1DF
:10024000E503000014000040410A00000104000022
:100250009802000000C04FE120001CE3B2C05E1114
:10026000FFCCCC1304C01E05FFC4CC0300005CE32C
:100270001C00001A00204DE998309FE502001DE99E
:1002800000C04FE1F05F21E9003093E513FF2FE15B
:100290007847C0460040A0E12C0094E52610D4E544
:1002A000000051E30500001AF00FB0E80240B0E88A
:1002B00001000DE900205DE901F06FE10EF0B0E111
:1002C000401080E202000DE900205DE9381090E561
:1002D00034E080E20040DEE801F06FE1FF1F1EE93C
:1002E00008E09EE50EF0B0E100412DE928809FE591
:1002F000008098E508005CE1FEFFFF2A14809FE57E
:100300000CC198E700804FE10FE0A0E11CFF2FE156
:1003100008F06FE10081FDE8640400006004000063
:100320001B49FF200004886048601A491A4A0020CF
:100330000860401C9042FCD30860704730B4144DF4
:10034000FF242404AC60134B0020134A0100186002
:10035000491C9142FCD3EC601860401C9042FCD3D5
:10036000186030BC704708DFFDE700230B481A0017
:10037000190000F0EFFB09DFFDE7002210B5084887
:100380001100FFF7FDFE10BC08BC0020184700005C
:10039000008002E00000004040420F0067030000C0
:1003A0006B030000FEE77047FEE7174917488161BD
:1003B00003214161012141601548164948631648EF
:1003C0001649C86316492520C86370471149202083
:1003D000886170470D48806870470C480068C00706
:1003E000C00F70470949012008600A482021C161F7
:1003F000002202634161704706492020486170472E
:100400000449202008617047973A0000008000E00E
:100410002404000000F0FFFFC001000000F1FFFF16
:1004200000F2FFFF04002DE50000A0E3D00F00E57F
:1004300004009DE404F05EE201C08FE21CFF2FE1A6
:10044000054C064D04E020000FC800F023F81034DE
:10045000AC42F8D300F01AF8080C0000280C000099
:100460000A00000099040000CD040000DB04000035
:10047000F3040000FB040000F90300000305000082
:1004800005050000210300003D0300007847C04639
:100490001DFFFFEA184700000B4D040028680028E4
:1004A00006D0C162002220308271080000F03CFAC0
:1004B00002202C606070E078C046C046FFF7A0FFC5
:1004C0002000FFF7E5FE0000080000400100006882
:1004D000002801D002680A607047814202D3426856
:1004E0008A4201D80120704702680A60016000203A
:1004F00070470188491C018070470188491E0180AE
:100500007047704770470000020000EA043090E432
:10051000042042E2043081E4000052E3FAFFFF1AB3
:100520001EFF2FE11EFF2FE10000A0E3000052E3B9
:100530000420421204008114FBFFFF1A1EFF2FE16A
:1005400010B4002A06DA52005208D21DD308DB008C
:10055000102203E0D21C93089B000C22002B02D037
:100560009C188C4202D9012010BC70474118041D10
:100570000AC48218C91A0260D018884202D81060D2
:100580000200F9E700201060EEE700000F4910B507
:100590000D484A680E4903680968934203D0026017
:1005A000C2885218828082880904090C8A4208D1C4
:1005B00000210160054800F095F80100034800F0B3
:1005C00057F910BC08BC18471C000040EC0700405D
:1005D0002400004070B51C4DE868002831D0A88A7E
:1005E000401E0026A88226E0A068002808D0616886
:1005F00041606068002802D0A16881606660A660E2
:1006000011482100183800F033F9A08AA8826078D8
:10061000042804D10D49E08A09884018A0820120ED
:10062000252160700855E068E860E068002801D086
:100630000561E6602661A88A002802D1EC68002CDA
:10064000D2D170BC08BC1847040800402400004008
:1006500070B504000FD00D4DA1782868012682786E
:1006600091420DD900F024F928684670200000DF7F
:1006700070BC08BC1847064800F034F800DFF7E704
:1006800003482100667000F0F3F8F1E7080000402D
:10069000EC07004010B50400008B0843208362780B
:1006A000618B062A17D0052A12D10A0010420FD0FA
:1006B0000240628388432083200000F003F9012078
:1006C00060700221252001550548210000F0D0F876
:1006D00010BC08BC18470A008243EBD0F8E70000C2
:1006E000EC07004001004068002243684B600B7833
:1006F000022B05D0012B03D0032B01D042607047A1
:100700004368002B01D0996042608260704700000E
:1007100070B50400160000200122207025006270D0
:100720002035A17029716060A060E06020612062C6
:10073000A082E082208360836871AB71208D0028E5
:1007400002D1054801DF20633100200000F012F8DB
:1007500070BC08BC1847000090010040034800210D
:10076000016003490988491EC18070471C00004090
:10077000EC0B000030B4028D920803D1164A1288A7
:100780001204920C036B92009A18530700D5121FA3
:1007900026231B5C002B18D0104B403AD1631B78EA
:1007A000002B01D00E4B01E00D4B0F3BCC079363A8
:1007B00002D0202423439363C569012300241560DC
:1007C0009D005B1C0E2B5451FAD3C2624163054954
:1007D000006B016030BC7047E80B00001000004067
:1007E0001F000040A52E5AE270B5040040680D00BD
:1007F0000026002805D06078022819D0A08900289A
:100800001ED0A089E18988422CD22089800000195D
:10081000056120000C3003DF2089401C0004000C1F
:100820002081E189884200D1268170BC08BC18472C
:1008300020006670FFF756FF04002030467107E085
:100840002000FFF74FFF04000421C56120304171F3
:1008500001206070200000F035F80448210000F00D
:1008600007F8E2E70320FFF79FFDDEE7EC07004013
:1008700030B402780023022A03D0012A01D0032ACF
:1008800000D101238C7800E010004268002A02D0D9
:100890009578A542F8D24A60002B416005D0002A25
:1008A00000D09160886030BC70470020FAE70000FB
:1008B000034900234A688360426048607047000033
:1008C000EC07004010B4016900290FD0C368002272
:1008D000CB60C368002B07D08B8A848A1B198B825C
:1008E000C3681961C26000E08A82026110BC70476F
:1008F00010B54168002910D0FFF7F4FE0400FFF79F
:10090000E1FF0120607003212520015505482100E9
:10091000FFF7AEFF10BC08BC18474188491C418056
:10092000F8E70000EC07004010B5002800D1684649
:1009300007490968096B814203D80868054988425C
:1009400002D00120FFF730FD10BC08BC18470000A2
:1009500008000040A52E5AE2C046C04605DF002030
:100960002649274A040002E08300401CCC5013882B
:100970009842F9D32348382201882348FFF7E0FD45
:10098000224801210088C9070004000C42182048B1
:1009900001682048FFF7D4FD1F48082201881F483E
:1009A0000068FFF7CDFD1E4DFF20E87000231D4AB3
:1009B000190028002C85FFF7ABFE1B4804210170AD
:1009C00044601A480170C460046184822800FFF703
:1009D000D3FB174818490560022068701548047059
:1009E00044700978C170FFF7E0FCFFF7B7FE1348C9
:1009F000FFF7DCFBFFF7D6FCFEE700009C0700409A
:100A0000E40B0000F80B000030000040E80B000091
:100A1000FC0B000090010040020C000004000040AC
:100A2000B4070040A5030000EC07004004080040A4
:100A30000800004018070040000C0000550B0000A3
:100A40002E4E010030682622C16201211154002778
:100A50004170FFF72DFF2A4C6079002808D0FFF77E
:100A6000B9FC216888420ED2FFF7B7FC00280AD1F2
:100A7000C046C046FFF78AFD22480168491C016054
:100A8000FFF7A8FD0127002060711F4C657811E079
:100A9000E800011948680278002A12D0012A16D00D
:100AA000FFF726FFE0786D1C854200D10025A01CD1
:100AB000FFF752FBA0780028EAD1012F65700AD019
:100AC0000BE009890904090CFFF7E4FDEAE78968EE
:100AD000FFF78AFEE6E700F01BF83068C06AFFF710
:100AE00023FF0A48FFF7FEFD022130604170C07805
:100AF000C046C0463068FFF799FB00000800004080
:100B0000140000402400004018070040EC0700409B
:100B100070B50E4C2068002814D0A0880C4E401EE2
:100B2000A08009E0E888FFF73EFCA8882900A080A3
:100B300028682060306802DFA088002802D125687C
:100B4000002DEFD170BC08BC184700002800004001
:100B500004000040FFB51E0017000D0081B005DF46
:100B6000280600D16D1C1C4801DF04000FD02802AC
:100B7000000C276320852906E661019A090E0123EE
:100B80002000FFF7C5FD1549154A01200DE0FFF7CC
:100B900037FC002005B0F0BC08BC184783005B1888
:100BA000403BDB6B002B10D0401C13889842F5D9DA
:100BB000E178606BFF310131C046C0462000FFF78D
:100BC00047FDFFF71DFCE078E4E783005918403942
:100BD000CC63E070ECE70000300000409C07004070
:100BE000E40B000006000000C80000010500010041
:100BF000E8030000000001005C010000880500001F
:100C00001000000049000400280C00000000004013
:100C10003000000008050000580C000030000040C3
:100C2000A0080000280500000000000000000000EF
:100C300000000000000000000000000000000000B4
:100C400000000000000000000000000000000000A4
:080C500000000000000000009C
:0400000500000104F2
:00000001FF
